{
  "contractName": "ERC777SenderRecipientMock",
  "abi": [
    {
      "anonymous": false,
      "inputs": [
        {
          "indexed": false,
          "internalType": "address",
          "name": "operator",
          "type": "address"
        },
        {
          "indexed": false,
          "internalType": "address",
          "name": "from",
          "type": "address"
        },
        {
          "indexed": false,
          "internalType": "address",
          "name": "to",
          "type": "address"
        },
        {
          "indexed": false,
          "internalType": "uint256",
          "name": "amount",
          "type": "uint256"
        },
        {
          "indexed": false,
          "internalType": "bytes",
          "name": "data",
          "type": "bytes"
        },
        {
          "indexed": false,
          "internalType": "bytes",
          "name": "operatorData",
          "type": "bytes"
        },
        {
          "indexed": false,
          "internalType": "address",
          "name": "token",
          "type": "address"
        },
        {
          "indexed": false,
          "internalType": "uint256",
          "name": "fromBalance",
          "type": "uint256"
        },
        {
          "indexed": false,
          "internalType": "uint256",
          "name": "toBalance",
          "type": "uint256"
        }
      ],
      "name": "TokensReceivedCalled",
      "type": "event"
    },
    {
      "anonymous": false,
      "inputs": [
        {
          "indexed": false,
          "internalType": "address",
          "name": "operator",
          "type": "address"
        },
        {
          "indexed": false,
          "internalType": "address",
          "name": "from",
          "type": "address"
        },
        {
          "indexed": false,
          "internalType": "address",
          "name": "to",
          "type": "address"
        },
        {
          "indexed": false,
          "internalType": "uint256",
          "name": "amount",
          "type": "uint256"
        },
        {
          "indexed": false,
          "internalType": "bytes",
          "name": "data",
          "type": "bytes"
        },
        {
          "indexed": false,
          "internalType": "bytes",
          "name": "operatorData",
          "type": "bytes"
        },
        {
          "indexed": false,
          "internalType": "address",
          "name": "token",
          "type": "address"
        },
        {
          "indexed": false,
          "internalType": "uint256",
          "name": "fromBalance",
          "type": "uint256"
        },
        {
          "indexed": false,
          "internalType": "uint256",
          "name": "toBalance",
          "type": "uint256"
        }
      ],
      "name": "TokensToSendCalled",
      "type": "event"
    },
    {
      "constant": true,
      "inputs": [
        {
          "internalType": "bytes32",
          "name": "interfaceHash",
          "type": "bytes32"
        },
        {
          "internalType": "address",
          "name": "account",
          "type": "address"
        }
      ],
      "name": "canImplementInterfaceForAddress",
      "outputs": [
        {
          "internalType": "bytes32",
          "name": "",
          "type": "bytes32"
        }
      ],
      "payable": false,
      "stateMutability": "view",
      "type": "function"
    },
    {
      "constant": false,
      "inputs": [
        {
          "internalType": "address",
          "name": "operator",
          "type": "address"
        },
        {
          "internalType": "address",
          "name": "from",
          "type": "address"
        },
        {
          "internalType": "address",
          "name": "to",
          "type": "address"
        },
        {
          "internalType": "uint256",
          "name": "amount",
          "type": "uint256"
        },
        {
          "internalType": "bytes",
          "name": "userData",
          "type": "bytes"
        },
        {
          "internalType": "bytes",
          "name": "operatorData",
          "type": "bytes"
        }
      ],
      "name": "tokensToSend",
      "outputs": [],
      "payable": false,
      "stateMutability": "nonpayable",
      "type": "function"
    },
    {
      "constant": false,
      "inputs": [
        {
          "internalType": "address",
          "name": "operator",
          "type": "address"
        },
        {
          "internalType": "address",
          "name": "from",
          "type": "address"
        },
        {
          "internalType": "address",
          "name": "to",
          "type": "address"
        },
        {
          "internalType": "uint256",
          "name": "amount",
          "type": "uint256"
        },
        {
          "internalType": "bytes",
          "name": "userData",
          "type": "bytes"
        },
        {
          "internalType": "bytes",
          "name": "operatorData",
          "type": "bytes"
        }
      ],
      "name": "tokensReceived",
      "outputs": [],
      "payable": false,
      "stateMutability": "nonpayable",
      "type": "function"
    },
    {
      "constant": false,
      "inputs": [
        {
          "internalType": "address",
          "name": "account",
          "type": "address"
        }
      ],
      "name": "senderFor",
      "outputs": [],
      "payable": false,
      "stateMutability": "nonpayable",
      "type": "function"
    },
    {
      "constant": false,
      "inputs": [
        {
          "internalType": "address",
          "name": "sender",
          "type": "address"
        }
      ],
      "name": "registerSender",
      "outputs": [],
      "payable": false,
      "stateMutability": "nonpayable",
      "type": "function"
    },
    {
      "constant": false,
      "inputs": [
        {
          "internalType": "address",
          "name": "account",
          "type": "address"
        }
      ],
      "name": "recipientFor",
      "outputs": [],
      "payable": false,
      "stateMutability": "nonpayable",
      "type": "function"
    },
    {
      "constant": false,
      "inputs": [
        {
          "internalType": "address",
          "name": "recipient",
          "type": "address"
        }
      ],
      "name": "registerRecipient",
      "outputs": [],
      "payable": false,
      "stateMutability": "nonpayable",
      "type": "function"
    },
    {
      "constant": false,
      "inputs": [
        {
          "internalType": "bool",
          "name": "shouldRevert",
          "type": "bool"
        }
      ],
      "name": "setShouldRevertSend",
      "outputs": [],
      "payable": false,
      "stateMutability": "nonpayable",
      "type": "function"
    },
    {
      "constant": false,
      "inputs": [
        {
          "internalType": "bool",
          "name": "shouldRevert",
          "type": "bool"
        }
      ],
      "name": "setShouldRevertReceive",
      "outputs": [],
      "payable": false,
      "stateMutability": "nonpayable",
      "type": "function"
    },
    {
      "constant": false,
      "inputs": [
        {
          "internalType": "contract IERC777",
          "name": "token",
          "type": "address"
        },
        {
          "internalType": "address",
          "name": "to",
          "type": "address"
        },
        {
          "internalType": "uint256",
          "name": "amount",
          "type": "uint256"
        },
        {
          "internalType": "bytes",
          "name": "data",
          "type": "bytes"
        }
      ],
      "name": "send",
      "outputs": [],
      "payable": false,
      "stateMutability": "nonpayable",
      "type": "function"
    },
    {
      "constant": false,
      "inputs": [
        {
          "internalType": "contract IERC777",
          "name": "token",
          "type": "address"
        },
        {
          "internalType": "uint256",
          "name": "amount",
          "type": "uint256"
        },
        {
          "internalType": "bytes",
          "name": "data",
          "type": "bytes"
        }
      ],
      "name": "burn",
      "outputs": [],
      "payable": false,
      "stateMutability": "nonpayable",
      "type": "function"
    }
  ],
  "bytecode": "0x6080604052731820a4b7618bde71dce8cdc73aab6c95905fad24600160026101000a81548173ffffffffffffffffffffffffffffffffffffffff021916908373ffffffffffffffffffffffffffffffffffffffff16021790555034801561006557600080fd5b50611409806100756000396000f3fe608060405234801561001057600080fd5b50600436106100a85760003560e01c806375ab97821161007157806375ab978214610461578063a8badaa514610599578063c97e18fc146105dd578063d2de64741461060d578063e0eb218014610651578063e1ecbd3014610695576100a8565b806223de29146100ad578063249cb3fa146101e55780633836ef891461024757806344d171871461034c5780634e4ae5a514610431575b600080fd5b6101e3600480360360c08110156100c357600080fd5b81019080803573ffffffffffffffffffffffffffffffffffffffff169060200190929190803573ffffffffffffffffffffffffffffffffffffffff169060200190929190803573ffffffffffffffffffffffffffffffffffffffff169060200190929190803590602001909291908035906020019064010000000081111561014a57600080fd5b82018360208201111561015c57600080fd5b8035906020019184600183028401116401000000008311171561017e57600080fd5b90919293919293908035906020019064010000000081111561019f57600080fd5b8201836020820111156101b157600080fd5b803590602001918460018302840111640100000000831117156101d357600080fd5b90919293919293905050506106d9565b005b610231600480360360408110156101fb57600080fd5b8101908080359060200190929190803573ffffffffffffffffffffffffffffffffffffffff1690602001909291905050506109fb565b6040518082815260200191505060405180910390f35b61034a6004803603608081101561025d57600080fd5b81019080803573ffffffffffffffffffffffffffffffffffffffff169060200190929190803573ffffffffffffffffffffffffffffffffffffffff16906020019092919080359060200190929190803590602001906401000000008111156102c457600080fd5b8201836020820111156102d657600080fd5b803590602001918460018302840111640100000000831117156102f857600080fd5b91908080601f016020809104026020016040519081016040528093929190818152602001838380828437600081840152601f19601f820116905080830192505050505050509192919290505050610ab7565b005b61042f6004803603606081101561036257600080fd5b81019080803573ffffffffffffffffffffffffffffffffffffffff16906020019092919080359060200190929190803590602001906401000000008111156103a957600080fd5b8201836020820111156103bb57600080fd5b803590602001918460018302840111640100000000831117156103dd57600080fd5b91908080601f016020809104026020016040519081016040528093929190818152602001838380828437600081840152601f19601f820116905080830192505050505050509192919290505050610bc9565b005b61045f6004803603602081101561044757600080fd5b81019080803515159060200190929190505050610ca6565b005b610597600480360360c081101561047757600080fd5b81019080803573ffffffffffffffffffffffffffffffffffffffff169060200190929190803573ffffffffffffffffffffffffffffffffffffffff169060200190929190803573ffffffffffffffffffffffffffffffffffffffff16906020019092919080359060200190929190803590602001906401000000008111156104fe57600080fd5b82018360208201111561051057600080fd5b8035906020019184600183028401116401000000008311171561053257600080fd5b90919293919293908035906020019064010000000081111561055357600080fd5b82018360208201111561056557600080fd5b8035906020019184600183028401116401000000008311171561058757600080fd5b9091929391929390505050610cc3565b005b6105db600480360360208110156105af57600080fd5b81019080803573ffffffffffffffffffffffffffffffffffffffff169060200190929190505050610fe6565b005b61060b600480360360208110156105f357600080fd5b81019080803515159060200190929190505050611113565b005b61064f6004803603602081101561062357600080fd5b81019080803573ffffffffffffffffffffffffffffffffffffffff16906020019092919050505061112f565b005b6106936004803603602081101561066757600080fd5b81019080803573ffffffffffffffffffffffffffffffffffffffff1690602001909291905050506111b5565b005b6106d7600480360360208110156106ab57600080fd5b81019080803573ffffffffffffffffffffffffffffffffffffffff16906020019092919050505061123b565b005b6001809054906101000a900460ff16156106f257600080fd5b600033905060008173ffffffffffffffffffffffffffffffffffffffff166370a082318a6040518263ffffffff1660e01b8152600401808273ffffffffffffffffffffffffffffffffffffffff1673ffffffffffffffffffffffffffffffffffffffff16815260200191505060206040518083038186803b15801561077657600080fd5b505afa15801561078a573d6000803e3d6000fd5b505050506040513d60208110156107a057600080fd5b8101908080519060200190929190505050905060008273ffffffffffffffffffffffffffffffffffffffff166370a082318a6040518263ffffffff1660e01b8152600401808273ffffffffffffffffffffffffffffffffffffffff1673ffffffffffffffffffffffffffffffffffffffff16815260200191505060206040518083038186803b15801561083257600080fd5b505afa158015610846573d6000803e3d6000fd5b505050506040513d602081101561085c57600080fd5b810190808051906020019092919050505090507f47e915878c47f3ec4d7ff646a2becb229f64fd2abe4d2b5e2bb4275b0cf50d4e8b8b8b8b8b8b8b8b8b8b8b604051808c73ffffffffffffffffffffffffffffffffffffffff1673ffffffffffffffffffffffffffffffffffffffff1681526020018b73ffffffffffffffffffffffffffffffffffffffff1673ffffffffffffffffffffffffffffffffffffffff1681526020018a73ffffffffffffffffffffffffffffffffffffffff1673ffffffffffffffffffffffffffffffffffffffff16815260200189815260200180602001806020018673ffffffffffffffffffffffffffffffffffffffff1673ffffffffffffffffffffffffffffffffffffffff16815260200185815260200184815260200183810383528a8a82818152602001925080828437600081840152601f19601f8201169050808301925050508381038252888882818152602001925080828437600081840152601f19601f8201169050808301925050509d505050505050505050505050505060405180910390a15050505050505050505050565b600080600084815260200190815260200160002060008373ffffffffffffffffffffffffffffffffffffffff1673ffffffffffffffffffffffffffffffffffffffff16815260200190815260200160002060009054906101000a900460ff16610a67576000801b610aaf565b60405160200180807f455243313832305f4143434550545f4d414749430000000000000000000000008152506014019050604051602081830303815290604052805190602001205b905092915050565b8373ffffffffffffffffffffffffffffffffffffffff16639bd9bbc68484846040518463ffffffff1660e01b8152600401808473ffffffffffffffffffffffffffffffffffffffff1673ffffffffffffffffffffffffffffffffffffffff16815260200183815260200180602001828103825283818151815260200191508051906020019080838360005b83811015610b5d578082015181840152602081019050610b42565b50505050905090810190601f168015610b8a5780820380516001836020036101000a031916815260200191505b50945050505050600060405180830381600087803b158015610bab57600080fd5b505af1158015610bbf573d6000803e3d6000fd5b5050505050505050565b8273ffffffffffffffffffffffffffffffffffffffff1663fe9d930383836040518363ffffffff1660e01b81526004018083815260200180602001828103825283818151815260200191508051906020019080838360005b83811015610c3c578082015181840152602081019050610c21565b50505050905090810190601f168015610c695780820380516001836020036101000a031916815260200191505b509350505050600060405180830381600087803b158015610c8957600080fd5b505af1158015610c9d573d6000803e3d6000fd5b50505050505050565b80600160006101000a81548160ff02191690831515021790555050565b600160009054906101000a900460ff1615610cdd57600080fd5b600033905060008173ffffffffffffffffffffffffffffffffffffffff166370a082318a6040518263ffffffff1660e01b8152600401808273ffffffffffffffffffffffffffffffffffffffff1673ffffffffffffffffffffffffffffffffffffffff16815260200191505060206040518083038186803b158015610d6157600080fd5b505afa158015610d75573d6000803e3d6000fd5b505050506040513d6020811015610d8b57600080fd5b8101908080519060200190929190505050905060008273ffffffffffffffffffffffffffffffffffffffff166370a082318a6040518263ffffffff1660e01b8152600401808273ffffffffffffffffffffffffffffffffffffffff1673ffffffffffffffffffffffffffffffffffffffff16815260200191505060206040518083038186803b158015610e1d57600080fd5b505afa158015610e31573d6000803e3d6000fd5b505050506040513d6020811015610e4757600080fd5b810190808051906020019092919050505090507faa3e88aca472e90221daf7d3d601abafb62b120319089d7a2c2f63588da855298b8b8b8b8b8b8b8b8b8b8b604051808c73ffffffffffffffffffffffffffffffffffffffff1673ffffffffffffffffffffffffffffffffffffffff1681526020018b73ffffffffffffffffffffffffffffffffffffffff1673ffffffffffffffffffffffffffffffffffffffff1681526020018a73ffffffffffffffffffffffffffffffffffffffff1673ffffffffffffffffffffffffffffffffffffffff16815260200189815260200180602001806020018673ffffffffffffffffffffffffffffffffffffffff1673ffffffffffffffffffffffffffffffffffffffff16815260200185815260200184815260200183810383528a8a82818152602001925080828437600081840152601f19601f8201169050808301925050508381038252888882818152602001925080828437600081840152601f19601f8201169050808301925050509d505050505050505050505050505060405180910390a15050505050505050505050565b600160029054906101000a900473ffffffffffffffffffffffffffffffffffffffff1673ffffffffffffffffffffffffffffffffffffffff166329965a1d3060405180807f455243373737546f6b656e73526563697069656e74000000000000000000000081525060150190506040518091039020846040518463ffffffff1660e01b8152600401808473ffffffffffffffffffffffffffffffffffffffff1673ffffffffffffffffffffffffffffffffffffffff1681526020018381526020018273ffffffffffffffffffffffffffffffffffffffff1673ffffffffffffffffffffffffffffffffffffffff1681526020019350505050600060405180830381600087803b1580156110f857600080fd5b505af115801561110c573d6000803e3d6000fd5b5050505050565b806001806101000a81548160ff02191690831515021790555050565b61116e60405180807f455243373737546f6b656e7353656e64657200000000000000000000000000008152506012019050604051809103902082611368565b60003090508073ffffffffffffffffffffffffffffffffffffffff168273ffffffffffffffffffffffffffffffffffffffff1614156111b1576111b08161123b565b5b5050565b6111f460405180807f455243373737546f6b656e73526563697069656e7400000000000000000000008152506015019050604051809103902082611368565b60003090508073ffffffffffffffffffffffffffffffffffffffff168273ffffffffffffffffffffffffffffffffffffffff1614156112375761123681610fe6565b5b5050565b600160029054906101000a900473ffffffffffffffffffffffffffffffffffffffff1673ffffffffffffffffffffffffffffffffffffffff166329965a1d3060405180807f455243373737546f6b656e7353656e646572000000000000000000000000000081525060120190506040518091039020846040518463ffffffff1660e01b8152600401808473ffffffffffffffffffffffffffffffffffffffff1673ffffffffffffffffffffffffffffffffffffffff1681526020018381526020018273ffffffffffffffffffffffffffffffffffffffff1673ffffffffffffffffffffffffffffffffffffffff1681526020019350505050600060405180830381600087803b15801561134d57600080fd5b505af1158015611361573d6000803e3d6000fd5b5050505050565b600160008084815260200190815260200160002060008373ffffffffffffffffffffffffffffffffffffffff1673ffffffffffffffffffffffffffffffffffffffff16815260200190815260200160002060006101000a81548160ff021916908315150217905550505056fea265627a7a72315820c9f5d44ac8e1160a7606e4ad908084cac191553d7eef7d5cb4a2d07226a71a5864736f6c63430005100032",
  "source": "pragma solidity ^0.5.0;\n\nimport \"../drafts/ERC777/IERC777.sol\";\nimport \"../drafts/ERC777/IERC777Sender.sol\";\nimport \"../drafts/ERC777/IERC777Recipient.sol\";\nimport \"../drafts/IERC1820Registry.sol\";\nimport \"../drafts/ERC1820Implementer.sol\";\n\ncontract ERC777SenderRecipientMock is IERC777Sender, IERC777Recipient, ERC1820Implementer {\n    event TokensToSendCalled(\n        address operator,\n        address from,\n        address to,\n        uint256 amount,\n        bytes data,\n        bytes operatorData,\n        address token,\n        uint256 fromBalance,\n        uint256 toBalance\n    );\n\n    event TokensReceivedCalled(\n        address operator,\n        address from,\n        address to,\n        uint256 amount,\n        bytes data,\n        bytes operatorData,\n        address token,\n        uint256 fromBalance,\n        uint256 toBalance\n    );\n\n    bool private _shouldRevertSend;\n    bool private _shouldRevertReceive;\n\n    IERC1820Registry private _erc1820 = IERC1820Registry(0x1820a4B7618BdE71Dce8cdc73aAB6C95905faD24);\n\n    bytes32 constant private TOKENS_SENDER_INTERFACE_HASH = keccak256(\"ERC777TokensSender\");\n    bytes32 constant private TOKENS_RECIPIENT_INTERFACE_HASH = keccak256(\"ERC777TokensRecipient\");\n\n    function tokensToSend(\n        address operator,\n        address from,\n        address to,\n        uint amount,\n        bytes calldata userData,\n        bytes calldata operatorData\n    ) external {\n        if (_shouldRevertSend) {\n            revert();\n        }\n\n        IERC777 token = IERC777(msg.sender);\n\n        uint256 fromBalance = token.balanceOf(from);\n        // when called due to burn, to will be the zero address, which will have a balance of 0\n        uint256 toBalance = token.balanceOf(to);\n\n        emit TokensToSendCalled(\n            operator,\n            from,\n            to,\n            amount,\n            userData,\n            operatorData,\n            address(token),\n            fromBalance,\n            toBalance\n        );\n    }\n\n    function tokensReceived(\n        address operator,\n        address from,\n        address to,\n        uint amount,\n        bytes calldata userData,\n        bytes calldata operatorData\n    ) external{\n        if (_shouldRevertReceive) {\n            revert();\n        }\n\n        IERC777 token = IERC777(msg.sender);\n\n        uint256 fromBalance = token.balanceOf(from);\n        // when called due to burn, to will be the zero address, which will have a balance of 0\n        uint256 toBalance = token.balanceOf(to);\n\n        emit TokensReceivedCalled(\n            operator,\n            from,\n            to,\n            amount,\n            userData,\n            operatorData,\n            address(token),\n            fromBalance,\n            toBalance\n        );\n    }\n\n    function senderFor(address account) public {\n        _registerInterfaceForAddress(TOKENS_SENDER_INTERFACE_HASH, account);\n\n        address self = address(this);\n        if (account == self) {\n            registerSender(self);\n        }\n    }\n\n    function registerSender(address sender) public {\n        _erc1820.setInterfaceImplementer(address(this), TOKENS_SENDER_INTERFACE_HASH, sender);\n    }\n\n    function recipientFor(address account) public {\n        _registerInterfaceForAddress(TOKENS_RECIPIENT_INTERFACE_HASH, account);\n\n        address self = address(this);\n        if (account == self) {\n            registerRecipient(self);\n        }\n    }\n\n    function registerRecipient(address recipient) public {\n        _erc1820.setInterfaceImplementer(address(this), TOKENS_RECIPIENT_INTERFACE_HASH, recipient);\n    }\n\n    function setShouldRevertSend(bool shouldRevert) public {\n        _shouldRevertSend = shouldRevert;\n    }\n\n    function setShouldRevertReceive(bool shouldRevert) public {\n        _shouldRevertReceive = shouldRevert;\n    }\n\n    function send(IERC777 token, address to, uint256 amount, bytes memory data) public {\n        // This is 777's send function, not the Solidity send function\n        token.send(to, amount, data); // solhint-disable-line check-send-result\n    }\n\n    function burn(IERC777 token, uint256 amount, bytes memory data) public {\n        token.burn(amount, data);\n    }\n}\n\n",
  "sourcePath": "/home/grifma/Code/vi-fresh/v-alpha-2/smart-contract/contracts/lib/openzeppelin-solidity/contracts/mocks/ERC777SenderRecipientMock.sol",
  "compiler": {
    "name": "solc",
    "version": "0.5.16+commit.9c3226ce.Emscripten.clang"
  },
  "schemaVersion": "3.0.23",
  "updatedAt": "2020-06-09T20:14:57.873Z",
  "devdoc": {
    "methods": {}
  },
  "userdoc": {
    "methods": {}
  }
}