{
  "contractName": "ERC777",
  "abi": [
    {
      "inputs": [
        {
          "internalType": "string",
          "name": "name",
          "type": "string"
        },
        {
          "internalType": "string",
          "name": "symbol",
          "type": "string"
        },
        {
          "internalType": "address[]",
          "name": "defaultOperators",
          "type": "address[]"
        }
      ],
      "payable": false,
      "stateMutability": "nonpayable",
      "type": "constructor"
    },
    {
      "anonymous": false,
      "inputs": [
        {
          "indexed": true,
          "internalType": "address",
          "name": "operator",
          "type": "address"
        },
        {
          "indexed": true,
          "internalType": "address",
          "name": "tokenHolder",
          "type": "address"
        }
      ],
      "name": "AuthorizedOperator",
      "type": "event"
    },
    {
      "anonymous": false,
      "inputs": [
        {
          "indexed": true,
          "internalType": "address",
          "name": "operator",
          "type": "address"
        },
        {
          "indexed": true,
          "internalType": "address",
          "name": "from",
          "type": "address"
        },
        {
          "indexed": false,
          "internalType": "uint256",
          "name": "amount",
          "type": "uint256"
        },
        {
          "indexed": false,
          "internalType": "bytes",
          "name": "data",
          "type": "bytes"
        },
        {
          "indexed": false,
          "internalType": "bytes",
          "name": "operatorData",
          "type": "bytes"
        }
      ],
      "name": "Burned",
      "type": "event"
    },
    {
      "anonymous": false,
      "inputs": [
        {
          "indexed": true,
          "internalType": "address",
          "name": "operator",
          "type": "address"
        },
        {
          "indexed": true,
          "internalType": "address",
          "name": "to",
          "type": "address"
        },
        {
          "indexed": false,
          "internalType": "uint256",
          "name": "amount",
          "type": "uint256"
        },
        {
          "indexed": false,
          "internalType": "bytes",
          "name": "data",
          "type": "bytes"
        },
        {
          "indexed": false,
          "internalType": "bytes",
          "name": "operatorData",
          "type": "bytes"
        }
      ],
      "name": "Minted",
      "type": "event"
    },
    {
      "anonymous": false,
      "inputs": [
        {
          "indexed": true,
          "internalType": "address",
          "name": "operator",
          "type": "address"
        },
        {
          "indexed": true,
          "internalType": "address",
          "name": "tokenHolder",
          "type": "address"
        }
      ],
      "name": "RevokedOperator",
      "type": "event"
    },
    {
      "anonymous": false,
      "inputs": [
        {
          "indexed": true,
          "internalType": "address",
          "name": "operator",
          "type": "address"
        },
        {
          "indexed": true,
          "internalType": "address",
          "name": "from",
          "type": "address"
        },
        {
          "indexed": true,
          "internalType": "address",
          "name": "to",
          "type": "address"
        },
        {
          "indexed": false,
          "internalType": "uint256",
          "name": "amount",
          "type": "uint256"
        },
        {
          "indexed": false,
          "internalType": "bytes",
          "name": "data",
          "type": "bytes"
        },
        {
          "indexed": false,
          "internalType": "bytes",
          "name": "operatorData",
          "type": "bytes"
        }
      ],
      "name": "Sent",
      "type": "event"
    },
    {
      "constant": false,
      "inputs": [
        {
          "internalType": "address",
          "name": "to",
          "type": "address"
        },
        {
          "internalType": "uint256",
          "name": "amount",
          "type": "uint256"
        },
        {
          "internalType": "bytes",
          "name": "data",
          "type": "bytes"
        }
      ],
      "name": "send",
      "outputs": [],
      "payable": false,
      "stateMutability": "nonpayable",
      "type": "function"
    },
    {
      "constant": false,
      "inputs": [
        {
          "internalType": "address",
          "name": "from",
          "type": "address"
        },
        {
          "internalType": "address",
          "name": "to",
          "type": "address"
        },
        {
          "internalType": "uint256",
          "name": "amount",
          "type": "uint256"
        },
        {
          "internalType": "bytes",
          "name": "data",
          "type": "bytes"
        },
        {
          "internalType": "bytes",
          "name": "operatorData",
          "type": "bytes"
        }
      ],
      "name": "operatorSend",
      "outputs": [],
      "payable": false,
      "stateMutability": "nonpayable",
      "type": "function"
    },
    {
      "constant": false,
      "inputs": [
        {
          "internalType": "uint256",
          "name": "amount",
          "type": "uint256"
        },
        {
          "internalType": "bytes",
          "name": "data",
          "type": "bytes"
        }
      ],
      "name": "burn",
      "outputs": [],
      "payable": false,
      "stateMutability": "nonpayable",
      "type": "function"
    },
    {
      "constant": false,
      "inputs": [
        {
          "internalType": "address",
          "name": "from",
          "type": "address"
        },
        {
          "internalType": "uint256",
          "name": "amount",
          "type": "uint256"
        },
        {
          "internalType": "bytes",
          "name": "data",
          "type": "bytes"
        },
        {
          "internalType": "bytes",
          "name": "operatorData",
          "type": "bytes"
        }
      ],
      "name": "operatorBurn",
      "outputs": [],
      "payable": false,
      "stateMutability": "nonpayable",
      "type": "function"
    },
    {
      "constant": false,
      "inputs": [
        {
          "internalType": "address",
          "name": "operator",
          "type": "address"
        }
      ],
      "name": "authorizeOperator",
      "outputs": [],
      "payable": false,
      "stateMutability": "nonpayable",
      "type": "function"
    },
    {
      "constant": false,
      "inputs": [
        {
          "internalType": "address",
          "name": "operator",
          "type": "address"
        }
      ],
      "name": "revokeOperator",
      "outputs": [],
      "payable": false,
      "stateMutability": "nonpayable",
      "type": "function"
    },
    {
      "constant": true,
      "inputs": [],
      "name": "name",
      "outputs": [
        {
          "internalType": "string",
          "name": "",
          "type": "string"
        }
      ],
      "payable": false,
      "stateMutability": "view",
      "type": "function"
    },
    {
      "constant": true,
      "inputs": [],
      "name": "symbol",
      "outputs": [
        {
          "internalType": "string",
          "name": "",
          "type": "string"
        }
      ],
      "payable": false,
      "stateMutability": "view",
      "type": "function"
    },
    {
      "constant": true,
      "inputs": [],
      "name": "totalSupply",
      "outputs": [
        {
          "internalType": "uint256",
          "name": "",
          "type": "uint256"
        }
      ],
      "payable": false,
      "stateMutability": "view",
      "type": "function"
    },
    {
      "constant": true,
      "inputs": [
        {
          "internalType": "address",
          "name": "tokenHolder",
          "type": "address"
        }
      ],
      "name": "balanceOf",
      "outputs": [
        {
          "internalType": "uint256",
          "name": "",
          "type": "uint256"
        }
      ],
      "payable": false,
      "stateMutability": "view",
      "type": "function"
    },
    {
      "constant": true,
      "inputs": [],
      "name": "granularity",
      "outputs": [
        {
          "internalType": "uint256",
          "name": "",
          "type": "uint256"
        }
      ],
      "payable": false,
      "stateMutability": "view",
      "type": "function"
    },
    {
      "constant": true,
      "inputs": [],
      "name": "defaultOperators",
      "outputs": [
        {
          "internalType": "address[]",
          "name": "",
          "type": "address[]"
        }
      ],
      "payable": false,
      "stateMutability": "view",
      "type": "function"
    },
    {
      "constant": true,
      "inputs": [
        {
          "internalType": "address",
          "name": "operator",
          "type": "address"
        },
        {
          "internalType": "address",
          "name": "tokenHolder",
          "type": "address"
        }
      ],
      "name": "isOperatorFor",
      "outputs": [
        {
          "internalType": "bool",
          "name": "",
          "type": "bool"
        }
      ],
      "payable": false,
      "stateMutability": "view",
      "type": "function"
    }
  ],
  "bytecode": "0x6080604052731820a4b7618bde71dce8cdc73aab6c95905fad246000806101000a81548173ffffffffffffffffffffffffffffffffffffffff021916908373ffffffffffffffffffffffffffffffffffffffff1602179055503480156200006557600080fd5b50604051620024e8380380620024e8833981810160405260608110156200008b57600080fd5b8101908080516040519392919084640100000000821115620000ac57600080fd5b83820191506020820185811115620000c357600080fd5b8251866001820283011164010000000082111715620000e157600080fd5b8083526020830192505050908051906020019080838360005b8381101562000117578082015181840152602081019050620000fa565b50505050905090810190601f168015620001455780820380516001836020036101000a031916815260200191505b50604052602001805160405193929190846401000000008211156200016957600080fd5b838201915060208201858111156200018057600080fd5b82518660018202830111640100000000821117156200019e57600080fd5b8083526020830192505050908051906020019080838360005b83811015620001d4578082015181840152602081019050620001b7565b50505050905090810190601f168015620002025780820380516001836020036101000a031916815260200191505b50604052602001805160405193929190846401000000008211156200022657600080fd5b838201915060208201858111156200023d57600080fd5b82518660208202830111640100000000821117156200025b57600080fd5b8083526020830192505050908051906020019060200280838360005b838110156200029457808201518184015260208101905062000277565b505050509050016040525050508260019080519060200190620002b9929190620004d3565b508160029080519060200190620002d2929190620004d3565b508060059080519060200190620002eb9291906200055a565b5060008090505b6005805490508110156200039e57600160066000600584815481106200031457fe5b9060005260206000200160009054906101000a900473ffffffffffffffffffffffffffffffffffffffff1673ffffffffffffffffffffffffffffffffffffffff1673ffffffffffffffffffffffffffffffffffffffff16815260200190815260200160002060006101000a81548160ff0219169083151502179055508080600101915050620002f2565b506000809054906101000a900473ffffffffffffffffffffffffffffffffffffffff1673ffffffffffffffffffffffffffffffffffffffff166329965a1d3060405180807f455243373737546f6b656e000000000000000000000000000000000000000000815250600b0190506040518091039020306040518463ffffffff1660e01b8152600401808473ffffffffffffffffffffffffffffffffffffffff1673ffffffffffffffffffffffffffffffffffffffff1681526020018381526020018273ffffffffffffffffffffffffffffffffffffffff1673ffffffffffffffffffffffffffffffffffffffff1681526020019350505050600060405180830381600087803b158015620004b157600080fd5b505af1158015620004c6573d6000803e3d6000fd5b5050505050505062000657565b828054600181600116156101000203166002900490600052602060002090601f016020900481019282601f106200051657805160ff191683800117855562000547565b8280016001018555821562000547579182015b828111156200054657825182559160200191906001019062000529565b5b509050620005569190620005e9565b5090565b828054828255906000526020600020908101928215620005d6579160200282015b82811115620005d55782518260006101000a81548173ffffffffffffffffffffffffffffffffffffffff021916908373ffffffffffffffffffffffffffffffffffffffff160217905550916020019190600101906200057b565b5b509050620005e5919062000611565b5090565b6200060e91905b808211156200060a576000816000905550600101620005f0565b5090565b90565b6200065491905b808211156200065057600081816101000a81549073ffffffffffffffffffffffffffffffffffffffff02191690555060010162000618565b5090565b90565b611e8180620006676000396000f3fe608060405234801561001057600080fd5b50600436106100cf5760003560e01c8063959b8c3f1161008c578063d95b637111610066578063d95b6371146104cc578063fad8b32a14610548578063fc673c4f1461058c578063fe9d930314610684576100cf565b8063959b8c3f1461036257806395d89b41146103a65780639bd9bbc614610429576100cf565b806306e48538146100d457806306fdde031461013357806318160ddd146101b6578063556f0dc7146101d457806362ad1b83146101f257806370a082311461030a575b600080fd5b6100dc610707565b6040518080602001828103825283818151815260200191508051906020019060200280838360005b8381101561011f578082015181840152602081019050610104565b505050509050019250505060405180910390f35b61013b610795565b6040518080602001828103825283818151815260200191508051906020019080838360005b8381101561017b578082015181840152602081019050610160565b50505050905090810190601f1680156101a85780820380516001836020036101000a031916815260200191505b509250505060405180910390f35b6101be610837565b6040518082815260200191505060405180910390f35b6101dc610841565b6040518082815260200191505060405180910390f35b610308600480360360a081101561020857600080fd5b81019080803573ffffffffffffffffffffffffffffffffffffffff169060200190929190803573ffffffffffffffffffffffffffffffffffffffff169060200190929190803590602001909291908035906020019064010000000081111561026f57600080fd5b82018360208201111561028157600080fd5b803590602001918460018302840111640100000000831117156102a357600080fd5b9091929391929390803590602001906401000000008111156102c457600080fd5b8201836020820111156102d657600080fd5b803590602001918460018302840111640100000000831117156102f857600080fd5b909192939192939050505061084a565b005b61034c6004803603602081101561032057600080fd5b81019080803573ffffffffffffffffffffffffffffffffffffffff1690602001909291905050506108fc565b6040518082815260200191505060405180910390f35b6103a46004803603602081101561037857600080fd5b81019080803573ffffffffffffffffffffffffffffffffffffffff169060200190929190505050610945565b005b6103ae610b54565b6040518080602001828103825283818151815260200191508051906020019080838360005b838110156103ee5780820151818401526020810190506103d3565b50505050905090810190601f16801561041b5780820380516001836020036101000a031916815260200191505b509250505060405180910390f35b6104ca6004803603606081101561043f57600080fd5b81019080803573ffffffffffffffffffffffffffffffffffffffff169060200190929190803590602001909291908035906020019064010000000081111561048657600080fd5b82018360208201111561049857600080fd5b803590602001918460018302840111640100000000831117156104ba57600080fd5b9091929391929390505050610bf6565b005b61052e600480360360408110156104e257600080fd5b81019080803573ffffffffffffffffffffffffffffffffffffffff169060200190929190803573ffffffffffffffffffffffffffffffffffffffff169060200190929190505050610c5d565b604051808215151515815260200191505060405180910390f35b61058a6004803603602081101561055e57600080fd5b81019080803573ffffffffffffffffffffffffffffffffffffffff169060200190929190505050610e0e565b005b610682600480360360808110156105a257600080fd5b81019080803573ffffffffffffffffffffffffffffffffffffffff16906020019092919080359060200190929190803590602001906401000000008111156105e957600080fd5b8201836020820111156105fb57600080fd5b8035906020019184600183028401116401000000008311171561061d57600080fd5b90919293919293908035906020019064010000000081111561063e57600080fd5b82018360208201111561065057600080fd5b8035906020019184600183028401116401000000008311171561067257600080fd5b909192939192939050505061101d565b005b6107056004803603604081101561069a57600080fd5b8101908080359060200190929190803590602001906401000000008111156106c157600080fd5b8201836020820111156106d357600080fd5b803590602001918460018302840111640100000000831117156106f557600080fd5b90919293919293905050506110cd565b005b6060600580548060200260200160405190810160405280929190818152602001828054801561078b57602002820191906000526020600020905b8160009054906101000a900473ffffffffffffffffffffffffffffffffffffffff1673ffffffffffffffffffffffffffffffffffffffff1681526020019060010190808311610741575b5050505050905090565b606060018054600181600116156101000203166002900480601f01602080910402602001604051908101604052809291908181526020018280546001816001161561010002031660029004801561082d5780601f106108025761010080835404028352916020019161082d565b820191906000526020600020905b81548152906001019060200180831161081057829003601f168201915b5050505050905090565b6000600454905090565b60006001905090565b6108543388610c5d565b61085d57600080fd5b6108f33388888888888080601f016020809104026020016040519081016040528093929190818152602001838380828437600081840152601f19601f8201169050808301925050505050505087878080601f016020809104026020016040519081016040528093929190818152602001838380828437600081840152601f19601f82011690508083019250505050505050611132565b50505050505050565b6000600360008373ffffffffffffffffffffffffffffffffffffffff1673ffffffffffffffffffffffffffffffffffffffff168152602001908152602001600020549050919050565b8073ffffffffffffffffffffffffffffffffffffffff163373ffffffffffffffffffffffffffffffffffffffff16141561097e57600080fd5b600660008273ffffffffffffffffffffffffffffffffffffffff1673ffffffffffffffffffffffffffffffffffffffff16815260200190815260200160002060009054906101000a900460ff1615610a6157600860003373ffffffffffffffffffffffffffffffffffffffff1673ffffffffffffffffffffffffffffffffffffffff16815260200190815260200160002060008273ffffffffffffffffffffffffffffffffffffffff1673ffffffffffffffffffffffffffffffffffffffff16815260200190815260200160002060006101000a81549060ff0219169055610af7565b6001600760003373ffffffffffffffffffffffffffffffffffffffff1673ffffffffffffffffffffffffffffffffffffffff16815260200190815260200160002060008373ffffffffffffffffffffffffffffffffffffffff1673ffffffffffffffffffffffffffffffffffffffff16815260200190815260200160002060006101000a81548160ff0219169083151502179055505b3373ffffffffffffffffffffffffffffffffffffffff168173ffffffffffffffffffffffffffffffffffffffff167ff4caeb2d6ca8932a215a353d0703c326ec2d81fc68170f320eb2ab49e9df61f960405160405180910390a350565b606060028054600181600116156101000203166002900480601f016020809104026020016040519081016040528092919081815260200182805460018160011615610100020316600290048015610bec5780601f10610bc157610100808354040283529160200191610bec565b820191906000526020600020905b815481529060010190602001808311610bcf57829003601f168201915b5050505050905090565b610c573333868686868080601f016020809104026020016040519081016040528093929190818152602001838380828437600081840152601f19601f8201169050808301925050505050505060405180602001604052806000815250611132565b50505050565b60008173ffffffffffffffffffffffffffffffffffffffff168373ffffffffffffffffffffffffffffffffffffffff161480610d755750600660008473ffffffffffffffffffffffffffffffffffffffff1673ffffffffffffffffffffffffffffffffffffffff16815260200190815260200160002060009054906101000a900460ff168015610d745750600860008373ffffffffffffffffffffffffffffffffffffffff1673ffffffffffffffffffffffffffffffffffffffff16815260200190815260200160002060008473ffffffffffffffffffffffffffffffffffffffff1673ffffffffffffffffffffffffffffffffffffffff16815260200190815260200160002060009054906101000a900460ff16155b5b80610e065750600760008373ffffffffffffffffffffffffffffffffffffffff1673ffffffffffffffffffffffffffffffffffffffff16815260200190815260200160002060008473ffffffffffffffffffffffffffffffffffffffff1673ffffffffffffffffffffffffffffffffffffffff16815260200190815260200160002060009054906101000a900460ff165b905092915050565b3373ffffffffffffffffffffffffffffffffffffffff168173ffffffffffffffffffffffffffffffffffffffff161415610e4757600080fd5b600660008273ffffffffffffffffffffffffffffffffffffffff1673ffffffffffffffffffffffffffffffffffffffff16815260200190815260200160002060009054906101000a900460ff1615610f33576001600860003373ffffffffffffffffffffffffffffffffffffffff1673ffffffffffffffffffffffffffffffffffffffff16815260200190815260200160002060008373ffffffffffffffffffffffffffffffffffffffff1673ffffffffffffffffffffffffffffffffffffffff16815260200190815260200160002060006101000a81548160ff021916908315150217905550610fc0565b600760003373ffffffffffffffffffffffffffffffffffffffff1673ffffffffffffffffffffffffffffffffffffffff16815260200190815260200160002060008273ffffffffffffffffffffffffffffffffffffffff1673ffffffffffffffffffffffffffffffffffffffff16815260200190815260200160002060006101000a81549060ff02191690555b3373ffffffffffffffffffffffffffffffffffffffff168173ffffffffffffffffffffffffffffffffffffffff167f50546e66e5f44d728365dc3908c63bc5cfeeab470722c1677e3073a6ac294aa160405160405180910390a350565b6110273387610c5d565b61103057600080fd5b6110c533878787878080601f016020809104026020016040519081016040528093929190818152602001838380828437600081840152601f19601f8201169050808301925050505050505086868080601f016020809104026020016040519081016040528093929190818152602001838380828437600081840152601f19601f8201169050808301925050505050505061144a565b505050505050565b61112d33338585858080601f016020809104026020016040519081016040528093929190818152602001838380828437600081840152601f19601f820116905080830192505050505050506040518060200160405280600081525061144a565b505050565b600073ffffffffffffffffffffffffffffffffffffffff168573ffffffffffffffffffffffffffffffffffffffff16141561116c57600080fd5b600073ffffffffffffffffffffffffffffffffffffffff168473ffffffffffffffffffffffffffffffffffffffff1614156111a657600080fd5b6111b4868686868686611689565b61120683600360008873ffffffffffffffffffffffffffffffffffffffff1673ffffffffffffffffffffffffffffffffffffffff168152602001908152602001600020546119c290919063ffffffff16565b600360008773ffffffffffffffffffffffffffffffffffffffff1673ffffffffffffffffffffffffffffffffffffffff1681526020019081526020016000208190555061129b83600360008773ffffffffffffffffffffffffffffffffffffffff1673ffffffffffffffffffffffffffffffffffffffff16815260200190815260200160002054611a4b90919063ffffffff16565b600360008673ffffffffffffffffffffffffffffffffffffffff1673ffffffffffffffffffffffffffffffffffffffff168152602001908152602001600020819055506112ec868686868686611ad3565b8373ffffffffffffffffffffffffffffffffffffffff168573ffffffffffffffffffffffffffffffffffffffff168773ffffffffffffffffffffffffffffffffffffffff167f06b541ddaa720db2b10a4d0cdac39b8d360425fc073085fac19bc82614677987868686604051808481526020018060200180602001838103835285818151815260200191508051906020019080838360005b8381101561139f578082015181840152602081019050611384565b50505050905090810190601f1680156113cc5780820380516001836020036101000a031916815260200191505b50838103825284818151815260200191508051906020019080838360005b838110156114055780820151818401526020810190506113ea565b50505050905090810190601f1680156114325780820380516001836020036101000a031916815260200191505b509550505050505060405180910390a4505050505050565b600073ffffffffffffffffffffffffffffffffffffffff168473ffffffffffffffffffffffffffffffffffffffff16141561148457600080fd5b61149385856000868686611689565b6114a8836004546119c290919063ffffffff16565b60048190555061150083600360008773ffffffffffffffffffffffffffffffffffffffff1673ffffffffffffffffffffffffffffffffffffffff168152602001908152602001600020546119c290919063ffffffff16565b600360008673ffffffffffffffffffffffffffffffffffffffff1673ffffffffffffffffffffffffffffffffffffffff168152602001908152602001600020819055508373ffffffffffffffffffffffffffffffffffffffff168573ffffffffffffffffffffffffffffffffffffffff167fa78a9be3a7b862d26933ad85fb11d80ef66b8f972d7cbba06621d583943a4098858585604051808481526020018060200180602001838103835285818151815260200191508051906020019080838360005b838110156115df5780820151818401526020810190506115c4565b50505050905090810190601f16801561160c5780820380516001836020036101000a031916815260200191505b50838103825284818151815260200191508051906020019080838360005b8381101561164557808201518184015260208101905061162a565b50505050905090810190601f1680156116725780820380516001836020036101000a031916815260200191505b509550505050505060405180910390a35050505050565b60008060009054906101000a900473ffffffffffffffffffffffffffffffffffffffff1673ffffffffffffffffffffffffffffffffffffffff1663aabbb8ca8760405180807f455243373737546f6b656e7353656e6465720000000000000000000000000000815250601201905060405180910390206040518363ffffffff1660e01b8152600401808373ffffffffffffffffffffffffffffffffffffffff1673ffffffffffffffffffffffffffffffffffffffff1681526020018281526020019250505060206040518083038186803b15801561176657600080fd5b505afa15801561177a573d6000803e3d6000fd5b505050506040513d602081101561179057600080fd5b81019080805190602001909291905050509050600073ffffffffffffffffffffffffffffffffffffffff168173ffffffffffffffffffffffffffffffffffffffff16146119b9578073ffffffffffffffffffffffffffffffffffffffff166375ab97828888888888886040518763ffffffff1660e01b8152600401808773ffffffffffffffffffffffffffffffffffffffff1673ffffffffffffffffffffffffffffffffffffffff1681526020018673ffffffffffffffffffffffffffffffffffffffff1673ffffffffffffffffffffffffffffffffffffffff1681526020018573ffffffffffffffffffffffffffffffffffffffff1673ffffffffffffffffffffffffffffffffffffffff1681526020018481526020018060200180602001838103835285818151815260200191508051906020019080838360005b838110156118e85780820151818401526020810190506118cd565b50505050905090810190601f1680156119155780820380516001836020036101000a031916815260200191505b50838103825284818151815260200191508051906020019080838360005b8381101561194e578082015181840152602081019050611933565b50505050905090810190601f16801561197b5780820380516001836020036101000a031916815260200191505b5098505050505050505050600060405180830381600087803b1580156119a057600080fd5b505af11580156119b4573d6000803e3d6000fd5b505050505b50505050505050565b600082821115611a3a576040517f08c379a000000000000000000000000000000000000000000000000000000000815260040180806020018281038252601e8152602001807f536166654d6174683a207375627472616374696f6e206f766572666c6f77000081525060200191505060405180910390fd5b600082840390508091505092915050565b600080828401905083811015611ac9576040517f08c379a000000000000000000000000000000000000000000000000000000000815260040180806020018281038252601b8152602001807f536166654d6174683a206164646974696f6e206f766572666c6f77000000000081525060200191505060405180910390fd5b8091505092915050565b60008060009054906101000a900473ffffffffffffffffffffffffffffffffffffffff1673ffffffffffffffffffffffffffffffffffffffff1663aabbb8ca8660405180807f455243373737546f6b656e73526563697069656e740000000000000000000000815250601501905060405180910390206040518363ffffffff1660e01b8152600401808373ffffffffffffffffffffffffffffffffffffffff1673ffffffffffffffffffffffffffffffffffffffff1681526020018281526020019250505060206040518083038186803b158015611bb057600080fd5b505afa158015611bc4573d6000803e3d6000fd5b505050506040513d6020811015611bda57600080fd5b81019080805190602001909291905050509050600073ffffffffffffffffffffffffffffffffffffffff168173ffffffffffffffffffffffffffffffffffffffff1614611e06578073ffffffffffffffffffffffffffffffffffffffff166223de298888888888886040518763ffffffff1660e01b8152600401808773ffffffffffffffffffffffffffffffffffffffff1673ffffffffffffffffffffffffffffffffffffffff1681526020018673ffffffffffffffffffffffffffffffffffffffff1673ffffffffffffffffffffffffffffffffffffffff1681526020018573ffffffffffffffffffffffffffffffffffffffff1673ffffffffffffffffffffffffffffffffffffffff1681526020018481526020018060200180602001838103835285818151815260200191508051906020019080838360005b83811015611d31578082015181840152602081019050611d16565b50505050905090810190601f168015611d5e5780820380516001836020036101000a031916815260200191505b50838103825284818151815260200191508051906020019080838360005b83811015611d97578082015181840152602081019050611d7c565b50505050905090810190601f168015611dc45780820380516001836020036101000a031916815260200191505b5098505050505050505050600060405180830381600087803b158015611de957600080fd5b505af1158015611dfd573d6000803e3d6000fd5b50505050611e30565b611e258573ffffffffffffffffffffffffffffffffffffffff16611e39565b15611e2f57600080fd5b5b50505050505050565b600080823b90506000811191505091905056fea265627a7a723158202552dbe9099a010d5e18ef878aa22f03c0174fccd9bd1b0b78a12c023724609c64736f6c63430005100032",
  "source": "pragma solidity ^0.5.0;\n\nimport \"./IERC777.sol\";\nimport \"./IERC777Recipient.sol\";\nimport \"./IERC777Sender.sol\";\nimport \"../../math/SafeMath.sol\";\nimport \"../../utils/Address.sol\";\nimport \"../IERC1820Registry.sol\";\n\n/**\n * @title ERC777 token implementation, with granularity harcoded to 1.\n * @author etsvigun <utgarda@gmail.com>, Bertrand Masius <github@catageeks.tk>\n */\ncontract ERC777 is IERC777 {\n    using SafeMath for uint256;\n    using Address for address;\n\n    IERC1820Registry private _erc1820 = IERC1820Registry(0x1820a4B7618BdE71Dce8cdc73aAB6C95905faD24);\n\n    string private _name;\n\n    string private _symbol;\n\n    mapping(address => uint256) private _balances;\n\n    uint256 private _totalSupply;\n\n    bytes32 constant private TOKENS_SENDER_INTERFACE_HASH = keccak256(\"ERC777TokensSender\");\n    bytes32 constant private TOKENS_RECIPIENT_INTERFACE_HASH = keccak256(\"ERC777TokensRecipient\");\n\n    // This isn't ever read from - it's only used to respond to the defaultOperators query.\n    address[] private _defaultOperatorsArray;\n\n    // Immutable, but accounts may revoke them (tracked in __revokedDefaultOperators).\n    mapping(address => bool) private _defaultOperators;\n\n    // For each account, a mapping of its operators and revoked default operators.\n    mapping(address => mapping(address => bool)) private _operators;\n    mapping(address => mapping(address => bool)) private _revokedDefaultOperators;\n\n    constructor(\n        string memory name,\n        string memory symbol,\n        address[] memory defaultOperators\n    ) public {\n        _name = name;\n        _symbol = symbol;\n\n        _defaultOperatorsArray = defaultOperators;\n        for (uint256 i = 0; i < _defaultOperatorsArray.length; i++) {\n            _defaultOperators[_defaultOperatorsArray[i]] = true;\n        }\n\n        // register interface\n        _erc1820.setInterfaceImplementer(address(this), keccak256(\"ERC777Token\"), address(this));\n    }\n\n    /**\n     * @dev Send the amount of tokens from the address msg.sender to the address to\n     * @param to address recipient address\n     * @param amount uint256 amount of tokens to transfer\n     * @param data bytes information attached to the send, and intended for the recipient (to)\n     */\n    function send(address to, uint256 amount, bytes calldata data) external {\n        _send(msg.sender, msg.sender, to, amount, data, \"\");\n    }\n\n    /**\n     * @dev Send the amount of tokens on behalf of the address from to the address to\n     * @param from address token holder address.\n     * @param to address recipient address\n     * @param amount uint256 amount of tokens to transfer\n     * @param data bytes information attached to the send, and intended for the recipient (to)\n     * @param operatorData bytes extra information provided by the operator (if any)\n     */\n    function operatorSend(\n        address from,\n        address to,\n        uint256 amount,\n        bytes calldata data,\n        bytes calldata operatorData\n    )\n    external\n    {\n        require(isOperatorFor(msg.sender, from));\n        _send(msg.sender, from, to, amount, data, operatorData);\n    }\n\n    /**\n     * @dev Burn the amount of tokens from the address msg.sender\n     * @param amount uint256 amount of tokens to transfer\n     * @param data bytes extra information provided by the token holder\n     */\n    function burn(uint256 amount, bytes calldata data) external {\n        _burn(msg.sender, msg.sender, amount, data, \"\");\n    }\n\n    /**\n     * @dev Burn the amount of tokens on behalf of the address from\n     * @param from address token holder address.\n     * @param amount uint256 amount of tokens to transfer\n     * @param data bytes extra information provided by the token holder\n     * @param operatorData bytes extra information provided by the operator (if any)\n     */\n    function operatorBurn(address from, uint256 amount, bytes calldata data, bytes calldata operatorData) external {\n        require(isOperatorFor(msg.sender, from));\n        _burn(msg.sender, from, amount, data, operatorData);\n    }\n\n    /**\n     * @dev Authorize an operator for the sender\n     * @param operator address to be authorized as operator\n     */\n    function authorizeOperator(address operator) external {\n        require(msg.sender != operator);\n\n        if (_defaultOperators[operator]) {\n            delete _revokedDefaultOperators[msg.sender][operator];\n        } else {\n            _operators[msg.sender][operator] = true;\n        }\n\n        emit AuthorizedOperator(operator, msg.sender);\n    }\n\n    /**\n     * @dev Revoke operator rights from one of the default operators\n     * @param operator address to revoke operator rights from\n     */\n    function revokeOperator(address operator) external {\n        require(operator != msg.sender);\n\n        if (_defaultOperators[operator]) {\n            _revokedDefaultOperators[msg.sender][operator] = true;\n        } else {\n            delete _operators[msg.sender][operator];\n        }\n\n        emit RevokedOperator(operator, msg.sender);\n    }\n\n    /**\n     * @return the name of the token.\n     */\n    function name() public view returns (string memory) {\n        return _name;\n    }\n\n    /**\n     * @return the symbol of the token.\n     */\n    function symbol() public view returns (string memory) {\n        return _symbol;\n    }\n\n    /**\n     * @dev Total number of tokens in existence\n     */\n    function totalSupply() public view returns (uint256) {\n        return _totalSupply;\n    }\n\n    /**\n     * @dev Gets the balance of the specified address.\n     * @param tokenHolder The address to query the balance of.\n        * @return uint256 representing the amount owned by the specified address.\n     */\n    function balanceOf(address tokenHolder) public view returns (uint256) {\n        return _balances[tokenHolder];\n    }\n\n    /**\n     * @dev Gets the token's granularity,\n     * i.e. the smallest number of tokens (in the basic unit)\n     * which may be minted, sent or burned at any time\n     * @return uint256 granularity\n     */\n    function granularity() public view returns (uint256) {\n        return 1;\n    }\n\n    /**\n     * @dev Get the list of default operators as defined by the token contract.\n     * @return address[] default operators\n     */\n    function defaultOperators() public view returns (address[] memory) {\n        return _defaultOperatorsArray;\n    }\n\n    /**\n     * @dev Indicate whether an address\n     * is an operator of the tokenHolder address\n     * @param operator address which may be an operator of tokenHolder\n     * @param tokenHolder address of a token holder which may have the operator\n     * address as an operator.\n     */\n    function isOperatorFor(\n        address operator,\n        address tokenHolder\n    ) public view returns (bool) {\n        return operator == tokenHolder ||\n            (_defaultOperators[operator] && !_revokedDefaultOperators[tokenHolder][operator]) ||\n            _operators[tokenHolder][operator];\n    }\n\n    /**\n     * @dev Mint tokens. Does not check authorization of operator\n     * @dev the caller may ckeck that operator is authorized before calling\n     * @param operator address operator requesting the operation\n     * @param to address token recipient address\n     * @param amount uint256 amount of tokens to mint\n     * @param userData bytes extra information defined by the token recipient (if any)\n     * @param operatorData bytes extra information provided by the operator (if any)\n     */\n    function _mint(\n        address operator,\n        address to,\n        uint256 amount,\n        bytes memory userData,\n        bytes memory operatorData\n    )\n    internal\n    {\n        require(to != address(0));\n\n        // Update state variables\n        _totalSupply = _totalSupply.add(amount);\n        _balances[to] = _balances[to].add(amount);\n\n        _callTokensReceived(operator, address(0), to, amount, userData, operatorData);\n\n        emit Minted(operator, to, amount, userData, operatorData);\n    }\n\n    /**\n     * @dev Send tokens\n     * @param operator address operator requesting the transfer\n     * @param from address token holder address\n     * @param to address recipient address\n     * @param amount uint256 amount of tokens to transfer\n     * @param userData bytes extra information provided by the token holder (if any)\n     * @param operatorData bytes extra information provided by the operator (if any)\n     */\n    function _send(\n        address operator,\n        address from,\n        address to,\n        uint256 amount,\n        bytes memory userData,\n        bytes memory operatorData\n    )\n    private\n    {\n        require(from != address(0));\n        require(to != address(0));\n\n        _callTokensToSend(operator, from, to, amount, userData, operatorData);\n\n        // Update state variables\n        _balances[from] = _balances[from].sub(amount);\n        _balances[to] = _balances[to].add(amount);\n\n        _callTokensReceived(operator, from, to, amount, userData, operatorData);\n\n        emit Sent(operator, from, to, amount, userData, operatorData);\n    }\n\n    /**\n     * @dev Burn tokens\n     * @param operator address operator requesting the operation\n     * @param from address token holder address\n     * @param amount uint256 amount of tokens to burn\n     * @param data bytes extra information provided by the token holder\n     * @param operatorData bytes extra information provided by the operator (if any)\n     */\n    function _burn(\n        address operator,\n        address from,\n        uint256 amount,\n        bytes memory data,\n        bytes memory operatorData\n    )\n    private\n    {\n        require(from != address(0));\n\n        _callTokensToSend(operator, from, address(0), amount, data, operatorData);\n\n        // Update state variables\n        _totalSupply = _totalSupply.sub(amount);\n        _balances[from] = _balances[from].sub(amount);\n\n        emit Burned(operator, from, amount, data, operatorData);\n    }\n\n    /**\n     * @dev Call from.tokensToSend() if the interface is registered\n     * @param operator address operator requesting the transfer\n     * @param from address token holder address\n     * @param to address recipient address\n     * @param amount uint256 amount of tokens to transfer\n     * @param userData bytes extra information provided by the token holder (if any)\n     * @param operatorData bytes extra information provided by the operator (if any)\n     */\n    function _callTokensToSend(\n        address operator,\n        address from,\n        address to,\n        uint256 amount,\n        bytes memory userData,\n        bytes memory operatorData\n    )\n    private\n    {\n        address implementer = _erc1820.getInterfaceImplementer(from, TOKENS_SENDER_INTERFACE_HASH);\n        if (implementer != address(0)) {\n            IERC777Sender(implementer).tokensToSend(operator, from, to, amount, userData, operatorData);\n        }\n    }\n\n    /**\n     * @dev Call to.tokensReceived() if the interface is registered. Reverts if the recipient is a contract but\n     * tokensReceived() was not registered for the recipient\n     * @param operator address operator requesting the transfer\n     * @param from address token holder address\n     * @param to address recipient address\n     * @param amount uint256 amount of tokens to transfer\n     * @param userData bytes extra information provided by the token holder (if any)\n     * @param operatorData bytes extra information provided by the operator (if any)\n     */\n    function _callTokensReceived(\n        address operator,\n        address from,\n        address to,\n        uint256 amount,\n        bytes memory userData,\n        bytes memory operatorData\n    )\n    private\n    {\n        address implementer = _erc1820.getInterfaceImplementer(to, TOKENS_RECIPIENT_INTERFACE_HASH);\n        if (implementer != address(0)) {\n            IERC777Recipient(implementer).tokensReceived(operator, from, to, amount, userData, operatorData);\n        } else {\n            require(!to.isContract());\n        }\n    }\n}\n",
  "sourcePath": "/home/grifma/Code/vi-fresh/v-alpha-2/smart-contract/contracts/lib/openzeppelin-solidity/contracts/drafts/ERC777/ERC777.sol",
  "compiler": {
    "name": "solc",
    "version": "0.5.16+commit.9c3226ce.Emscripten.clang"
  },
  "schemaVersion": "3.0.23",
  "updatedAt": "2020-06-09T20:14:57.780Z",
  "devdoc": {
    "author": "etsvigun <utgarda@gmail.com>, Bertrand Masius <github@catageeks.tk>",
    "methods": {
      "authorizeOperator(address)": {
        "details": "Authorize an operator for the sender",
        "params": {
          "operator": "address to be authorized as operator"
        }
      },
      "balanceOf(address)": {
        "details": "Gets the balance of the specified address.",
        "params": {
          "tokenHolder": "The address to query the balance of."
        },
        "return": "uint256 representing the amount owned by the specified address."
      },
      "burn(uint256,bytes)": {
        "details": "Burn the amount of tokens from the address msg.sender",
        "params": {
          "amount": "uint256 amount of tokens to transfer",
          "data": "bytes extra information provided by the token holder"
        }
      },
      "defaultOperators()": {
        "details": "Get the list of default operators as defined by the token contract.",
        "return": "address[] default operators"
      },
      "granularity()": {
        "details": "Gets the token's granularity, i.e. the smallest number of tokens (in the basic unit) which may be minted, sent or burned at any time",
        "return": "uint256 granularity"
      },
      "isOperatorFor(address,address)": {
        "details": "Indicate whether an address is an operator of the tokenHolder address",
        "params": {
          "operator": "address which may be an operator of tokenHolder",
          "tokenHolder": "address of a token holder which may have the operator address as an operator."
        }
      },
      "name()": {
        "return": "the name of the token."
      },
      "operatorBurn(address,uint256,bytes,bytes)": {
        "details": "Burn the amount of tokens on behalf of the address from",
        "params": {
          "amount": "uint256 amount of tokens to transfer",
          "data": "bytes extra information provided by the token holder",
          "from": "address token holder address.",
          "operatorData": "bytes extra information provided by the operator (if any)"
        }
      },
      "operatorSend(address,address,uint256,bytes,bytes)": {
        "details": "Send the amount of tokens on behalf of the address from to the address to",
        "params": {
          "amount": "uint256 amount of tokens to transfer",
          "data": "bytes information attached to the send, and intended for the recipient (to)",
          "from": "address token holder address.",
          "operatorData": "bytes extra information provided by the operator (if any)",
          "to": "address recipient address"
        }
      },
      "revokeOperator(address)": {
        "details": "Revoke operator rights from one of the default operators",
        "params": {
          "operator": "address to revoke operator rights from"
        }
      },
      "send(address,uint256,bytes)": {
        "details": "Send the amount of tokens from the address msg.sender to the address to",
        "params": {
          "amount": "uint256 amount of tokens to transfer",
          "data": "bytes information attached to the send, and intended for the recipient (to)",
          "to": "address recipient address"
        }
      },
      "symbol()": {
        "return": "the symbol of the token."
      },
      "totalSupply()": {
        "details": "Total number of tokens in existence"
      }
    },
    "title": "ERC777 token implementation, with granularity harcoded to 1."
  },
  "userdoc": {
    "methods": {}
  }
}