{
  "contractName": "ReentrancyMock",
  "abi": [
    {
      "inputs": [],
      "payable": false,
      "stateMutability": "nonpayable",
      "type": "constructor"
    },
    {
      "constant": true,
      "inputs": [],
      "name": "counter",
      "outputs": [
        {
          "internalType": "uint256",
          "name": "",
          "type": "uint256"
        }
      ],
      "payable": false,
      "stateMutability": "view",
      "type": "function"
    },
    {
      "constant": false,
      "inputs": [],
      "name": "callback",
      "outputs": [],
      "payable": false,
      "stateMutability": "nonpayable",
      "type": "function"
    },
    {
      "constant": false,
      "inputs": [
        {
          "internalType": "uint256",
          "name": "n",
          "type": "uint256"
        }
      ],
      "name": "countLocalRecursive",
      "outputs": [],
      "payable": false,
      "stateMutability": "nonpayable",
      "type": "function"
    },
    {
      "constant": false,
      "inputs": [
        {
          "internalType": "uint256",
          "name": "n",
          "type": "uint256"
        }
      ],
      "name": "countThisRecursive",
      "outputs": [],
      "payable": false,
      "stateMutability": "nonpayable",
      "type": "function"
    },
    {
      "constant": false,
      "inputs": [
        {
          "internalType": "contract ReentrancyAttack",
          "name": "attacker",
          "type": "address"
        }
      ],
      "name": "countAndCall",
      "outputs": [],
      "payable": false,
      "stateMutability": "nonpayable",
      "type": "function"
    }
  ],
  "bytecode": "0x608060405234801561001057600080fd5b5060016000819055506000600181905550610694806100306000396000f3fe608060405234801561001057600080fd5b50600436106100575760003560e01c8063083b27321461005c57806361bc221a146100665780638c5344fa1461008457806396ffa690146100b2578063b672ad8b146100e0575b600080fd5b610064610124565b005b61006e6101bc565b6040518082815260200191505060405180910390f35b6100b06004803603602081101561009a57600080fd5b81019080803590602001909291905050506101c2565b005b6100de600480360360208110156100c857600080fd5b8101908080359060200190929190505050610421565b005b610122600480360360208110156100f657600080fd5b81019080803573ffffffffffffffffffffffffffffffffffffffff1690602001909291905050506104d0565b005b6001600080828254019250508190555060008054905061014261064d565b60005481146101b9576040517f08c379a000000000000000000000000000000000000000000000000000000000815260040180806020018281038252601f8152602001807f5265656e7472616e637947756172643a207265656e7472616e742063616c6c0081525060200191505060405180910390fd5b50565b60015481565b6001600080828254019250508190555060008054905060008211156103a6576101e961064d565b60003073ffffffffffffffffffffffffffffffffffffffff1660018403604051602401808281526020019150506040516020818303038152906040527f8c5344fa000000000000000000000000000000000000000000000000000000007bffffffffffffffffffffffffffffffffffffffffffffffffffffffff19166020820180517bffffffffffffffffffffffffffffffffffffffffffffffffffffffff83818316178352505050506040518082805190602001908083835b602083106102c657805182526020820191506020810190506020830392506102a3565b6001836020036101000a0380198251168184511680821785525050505050509050019150506000604051808303816000865af19150503d8060008114610328576040519150601f19603f3d011682016040523d82523d6000602084013e61032d565b606091505b50509050806103a4576040517f08c379a000000000000000000000000000000000000000000000000000000000815260040180806020018281038252601b8152602001807f5265656e7472616e63794d6f636b3a206661696c65642063616c6c000000000081525060200191505060405180910390fd5b505b600054811461041d576040517f08c379a000000000000000000000000000000000000000000000000000000000815260040180806020018281038252601f8152602001807f5265656e7472616e637947756172643a207265656e7472616e742063616c6c0081525060200191505060405180910390fd5b5050565b6001600080828254019250508190555060008054905060008211156104555761044861064d565b61045460018303610421565b5b60005481146104cc576040517f08c379a000000000000000000000000000000000000000000000000000000000815260040180806020018281038252601f8152602001807f5265656e7472616e637947756172643a207265656e7472616e742063616c6c0081525060200191505060405180910390fd5b5050565b600160008082825401925050819055506000805490506104ee61064d565b600060405180807f63616c6c6261636b282900000000000000000000000000000000000000000000815250600a019050604051809103902090508273ffffffffffffffffffffffffffffffffffffffff16630a2df1ed826040518263ffffffff1660e01b815260040180827bffffffffffffffffffffffffffffffffffffffffffffffffffffffff19167bffffffffffffffffffffffffffffffffffffffffffffffffffffffff19168152602001915050600060405180830381600087803b1580156105b957600080fd5b505af11580156105cd573d6000803e3d6000fd5b50505050506000548114610649576040517f08c379a000000000000000000000000000000000000000000000000000000000815260040180806020018281038252601f8152602001807f5265656e7472616e637947756172643a207265656e7472616e742063616c6c0081525060200191505060405180910390fd5b5050565b6001806000828254019250508190555056fea265627a7a72315820f59f9b77fbaf8b4e80b965f338f35d8089902e2494940a393852063f589430b364736f6c63430005100032",
  "source": "pragma solidity ^0.5.0;\n\nimport \"../utils/ReentrancyGuard.sol\";\nimport \"./ReentrancyAttack.sol\";\n\ncontract ReentrancyMock is ReentrancyGuard {\n    uint256 public counter;\n\n    constructor () public {\n        counter = 0;\n    }\n\n    function callback() external nonReentrant {\n        count();\n    }\n\n    function countLocalRecursive(uint256 n) public nonReentrant {\n        if (n > 0) {\n            count();\n            countLocalRecursive(n - 1);\n        }\n    }\n\n    function countThisRecursive(uint256 n) public nonReentrant {\n        if (n > 0) {\n            count();\n            // solhint-disable-next-line avoid-low-level-calls\n            (bool success,) = address(this).call(abi.encodeWithSignature(\"countThisRecursive(uint256)\", n - 1));\n            require(success, \"ReentrancyMock: failed call\");\n        }\n    }\n\n    function countAndCall(ReentrancyAttack attacker) public nonReentrant {\n        count();\n        bytes4 func = bytes4(keccak256(\"callback()\"));\n        attacker.callSender(func);\n    }\n\n    function count() private {\n        counter += 1;\n    }\n}\n",
  "sourcePath": "/home/grifma/Code/vi-fresh/v-alpha-2/smart-contract/contracts/lib/openzeppelin-solidity/contracts/mocks/ReentrancyMock.sol",
  "compiler": {
    "name": "solc",
    "version": "0.5.16+commit.9c3226ce.Emscripten.clang"
  },
  "schemaVersion": "3.0.23",
  "updatedAt": "2020-06-09T20:14:57.897Z",
  "devdoc": {
    "methods": {}
  },
  "userdoc": {
    "methods": {}
  }
}