{
  "contractName": "RefundableCrowdsaleImpl",
  "abi": [
    {
      "inputs": [
        {
          "internalType": "uint256",
          "name": "openingTime",
          "type": "uint256"
        },
        {
          "internalType": "uint256",
          "name": "closingTime",
          "type": "uint256"
        },
        {
          "internalType": "uint256",
          "name": "rate",
          "type": "uint256"
        },
        {
          "internalType": "address payable",
          "name": "wallet",
          "type": "address"
        },
        {
          "internalType": "contract IERC20",
          "name": "token",
          "type": "address"
        },
        {
          "internalType": "uint256",
          "name": "goal",
          "type": "uint256"
        }
      ],
      "payable": false,
      "stateMutability": "nonpayable",
      "type": "constructor"
    },
    {
      "anonymous": false,
      "inputs": [],
      "name": "CrowdsaleFinalized",
      "type": "event"
    },
    {
      "anonymous": false,
      "inputs": [
        {
          "indexed": false,
          "internalType": "uint256",
          "name": "prevClosingTime",
          "type": "uint256"
        },
        {
          "indexed": false,
          "internalType": "uint256",
          "name": "newClosingTime",
          "type": "uint256"
        }
      ],
      "name": "TimedCrowdsaleExtended",
      "type": "event"
    },
    {
      "anonymous": false,
      "inputs": [
        {
          "indexed": true,
          "internalType": "address",
          "name": "purchaser",
          "type": "address"
        },
        {
          "indexed": true,
          "internalType": "address",
          "name": "beneficiary",
          "type": "address"
        },
        {
          "indexed": false,
          "internalType": "uint256",
          "name": "value",
          "type": "uint256"
        },
        {
          "indexed": false,
          "internalType": "uint256",
          "name": "amount",
          "type": "uint256"
        }
      ],
      "name": "TokensPurchased",
      "type": "event"
    },
    {
      "payable": true,
      "stateMutability": "payable",
      "type": "fallback"
    },
    {
      "constant": false,
      "inputs": [
        {
          "internalType": "address",
          "name": "beneficiary",
          "type": "address"
        }
      ],
      "name": "buyTokens",
      "outputs": [],
      "payable": true,
      "stateMutability": "payable",
      "type": "function"
    },
    {
      "constant": false,
      "inputs": [
        {
          "internalType": "address payable",
          "name": "refundee",
          "type": "address"
        }
      ],
      "name": "claimRefund",
      "outputs": [],
      "payable": false,
      "stateMutability": "nonpayable",
      "type": "function"
    },
    {
      "constant": true,
      "inputs": [],
      "name": "closingTime",
      "outputs": [
        {
          "internalType": "uint256",
          "name": "",
          "type": "uint256"
        }
      ],
      "payable": false,
      "stateMutability": "view",
      "type": "function"
    },
    {
      "constant": false,
      "inputs": [],
      "name": "finalize",
      "outputs": [],
      "payable": false,
      "stateMutability": "nonpayable",
      "type": "function"
    },
    {
      "constant": true,
      "inputs": [],
      "name": "finalized",
      "outputs": [
        {
          "internalType": "bool",
          "name": "",
          "type": "bool"
        }
      ],
      "payable": false,
      "stateMutability": "view",
      "type": "function"
    },
    {
      "constant": true,
      "inputs": [],
      "name": "goal",
      "outputs": [
        {
          "internalType": "uint256",
          "name": "",
          "type": "uint256"
        }
      ],
      "payable": false,
      "stateMutability": "view",
      "type": "function"
    },
    {
      "constant": true,
      "inputs": [],
      "name": "goalReached",
      "outputs": [
        {
          "internalType": "bool",
          "name": "",
          "type": "bool"
        }
      ],
      "payable": false,
      "stateMutability": "view",
      "type": "function"
    },
    {
      "constant": true,
      "inputs": [],
      "name": "hasClosed",
      "outputs": [
        {
          "internalType": "bool",
          "name": "",
          "type": "bool"
        }
      ],
      "payable": false,
      "stateMutability": "view",
      "type": "function"
    },
    {
      "constant": true,
      "inputs": [],
      "name": "isOpen",
      "outputs": [
        {
          "internalType": "bool",
          "name": "",
          "type": "bool"
        }
      ],
      "payable": false,
      "stateMutability": "view",
      "type": "function"
    },
    {
      "constant": true,
      "inputs": [],
      "name": "openingTime",
      "outputs": [
        {
          "internalType": "uint256",
          "name": "",
          "type": "uint256"
        }
      ],
      "payable": false,
      "stateMutability": "view",
      "type": "function"
    },
    {
      "constant": true,
      "inputs": [],
      "name": "rate",
      "outputs": [
        {
          "internalType": "uint256",
          "name": "",
          "type": "uint256"
        }
      ],
      "payable": false,
      "stateMutability": "view",
      "type": "function"
    },
    {
      "constant": true,
      "inputs": [],
      "name": "token",
      "outputs": [
        {
          "internalType": "contract IERC20",
          "name": "",
          "type": "address"
        }
      ],
      "payable": false,
      "stateMutability": "view",
      "type": "function"
    },
    {
      "constant": true,
      "inputs": [],
      "name": "wallet",
      "outputs": [
        {
          "internalType": "address payable",
          "name": "",
          "type": "address"
        }
      ],
      "payable": false,
      "stateMutability": "view",
      "type": "function"
    },
    {
      "constant": true,
      "inputs": [],
      "name": "weiRaised",
      "outputs": [
        {
          "internalType": "uint256",
          "name": "",
          "type": "uint256"
        }
      ],
      "payable": false,
      "stateMutability": "view",
      "type": "function"
    }
  ],
  "bytecode": "0x60806040523480156200001157600080fd5b5060405162002ace38038062002ace833981810160405260c08110156200003757600080fd5b81019080805190602001909291908051906020019092919080519060200190929190805190602001909291908051906020019092919080519060200190929190505050808686868686600160008190555060008311620000ff576040517f08c379a00000000000000000000000000000000000000000000000000000000081526004018080602001828103825260148152602001807f43726f776473616c653a2072617465206973203000000000000000000000000081525060200191505060405180910390fd5b600073ffffffffffffffffffffffffffffffffffffffff168273ffffffffffffffffffffffffffffffffffffffff16141562000187576040517f08c379a000000000000000000000000000000000000000000000000000000000815260040180806020018281038252602581526020018062002aa96025913960400191505060405180910390fd5b600073ffffffffffffffffffffffffffffffffffffffff168173ffffffffffffffffffffffffffffffffffffffff1614156200020f576040517f08c379a000000000000000000000000000000000000000000000000000000000815260040180806020018281038252602481526020018062002a856024913960400191505060405180910390fd5b8260038190555081600260006101000a81548173ffffffffffffffffffffffffffffffffffffffff021916908373ffffffffffffffffffffffffffffffffffffffff16021790555080600160006101000a81548173ffffffffffffffffffffffffffffffffffffffff021916908373ffffffffffffffffffffffffffffffffffffffff16021790555050505042821015620002f6576040517f08c379a000000000000000000000000000000000000000000000000000000000815260040180806020018281038252603381526020018062002a1b6033913960400191505060405180910390fd5b81811162000350576040517f08c379a000000000000000000000000000000000000000000000000000000000815260040180806020018281038252603781526020018062002a4e6037913960400191505060405180910390fd5b816005819055508060068190555050506000600760006101000a81548160ff02191690831515021790555060008111620003f2576040517f08c379a000000000000000000000000000000000000000000000000000000000815260040180806020018281038252601e8152602001807f526566756e6461626c6543726f776473616c653a20676f616c2069732030000081525060200191505060405180910390fd5b62000402620004b860201b60201c565b6040516200041090620004e2565b808273ffffffffffffffffffffffffffffffffffffffff1673ffffffffffffffffffffffffffffffffffffffff168152602001915050604051809103906000f08015801562000463573d6000803e3d6000fd5b50600960006101000a81548173ffffffffffffffffffffffffffffffffffffffff021916908373ffffffffffffffffffffffffffffffffffffffff1602179055508060088190555050505050505050620004f0565b6000600260009054906101000a900473ffffffffffffffffffffffffffffffffffffffff16905090565b6112a9806200177283390190565b61127280620005006000396000f3fe6080604052600436106100dd5760003560e01c8063521eb2731161007f578063b7a8807c11610059578063b7a8807c146102be578063bffa55d5146102e9578063ec8ac4d81461033a578063fc0c546a1461037e576100dd565b8063521eb273146102095780637d3d652214610260578063b3f05b971461028f576100dd565b80634042b66f116100bb5780634042b66f1461016d57806347535d7b146101985780634b6753bc146101c75780634bb278f3146101f2576100dd565b80631515bc2b146100e85780632c4e722e146101175780634019388314610142575b6100e6336103d5565b005b3480156100f457600080fd5b506100fd610532565b604051808215151515815260200191505060405180910390f35b34801561012357600080fd5b5061012c61053e565b6040518082815260200191505060405180910390f35b34801561014e57600080fd5b50610157610548565b6040518082815260200191505060405180910390f35b34801561017957600080fd5b50610182610552565b6040518082815260200191505060405180910390f35b3480156101a457600080fd5b506101ad61055c565b604051808215151515815260200191505060405180910390f35b3480156101d357600080fd5b506101dc610577565b6040518082815260200191505060405180910390f35b3480156101fe57600080fd5b50610207610581565b005b34801561021557600080fd5b5061021e6106b2565b604051808273ffffffffffffffffffffffffffffffffffffffff1673ffffffffffffffffffffffffffffffffffffffff16815260200191505060405180910390f35b34801561026c57600080fd5b506102756106dc565b604051808215151515815260200191505060405180910390f35b34801561029b57600080fd5b506102a46106f0565b604051808215151515815260200191505060405180910390f35b3480156102ca57600080fd5b506102d3610707565b6040518082815260200191505060405180910390f35b3480156102f557600080fd5b506103386004803603602081101561030c57600080fd5b81019080803573ffffffffffffffffffffffffffffffffffffffff169060200190929190505050610711565b005b61037c6004803603602081101561035057600080fd5b81019080803573ffffffffffffffffffffffffffffffffffffffff1690602001909291905050506103d5565b005b34801561038a57600080fd5b50610393610888565b604051808273ffffffffffffffffffffffffffffffffffffffff1673ffffffffffffffffffffffffffffffffffffffff16815260200191505060405180910390f35b6001600080828254019250508190555060008054905060003490506103fa83826108b2565b60006104058261093a565b905061041c8260045461095890919063ffffffff16565b60048190555061042c84826109e0565b8373ffffffffffffffffffffffffffffffffffffffff163373ffffffffffffffffffffffffffffffffffffffff167f6faf93231a456e552dbc9961f58d9713ee4f2e69d15f1975b050ef0911053a7b8484604051808381526020018281526020019250505060405180910390a36104a384836109ee565b6104ab6109f2565b6104b58483610aae565b5050600054811461052e576040517f08c379a000000000000000000000000000000000000000000000000000000000815260040180806020018281038252601f8152602001807f5265656e7472616e637947756172643a207265656e7472616e742063616c6c0081525060200191505060405180910390fd5b5050565b60006006544211905090565b6000600354905090565b6000600854905090565b6000600454905090565b6000600554421015801561057257506006544211155b905090565b6000600654905090565b600760009054906101000a900460ff16156105e7576040517f08c379a00000000000000000000000000000000000000000000000000000000081526004018080602001828103825260278152602001806111806027913960400191505060405180910390fd5b6105ef610532565b610661576040517f08c379a00000000000000000000000000000000000000000000000000000000081526004018080602001828103825260208152602001807f46696e616c697a61626c6543726f776473616c653a206e6f7420636c6f73656481525060200191505060405180910390fd5b6001600760006101000a81548160ff021916908315150217905550610684610ab2565b7f9270cc390c096600a1c17c44345a1ba689fafd99d97487b10cfccf86cf73183660405160405180910390a1565b6000600260009054906101000a900473ffffffffffffffffffffffffffffffffffffffff16905090565b60006008546106e9610552565b1015905090565b6000600760009054906101000a900460ff16905090565b6000600554905090565b6107196106f0565b61076e576040517f08c379a00000000000000000000000000000000000000000000000000000000081526004018080602001828103825260228152602001806111f26022913960400191505060405180910390fd5b6107766106dc565b156107cc576040517f08c379a00000000000000000000000000000000000000000000000000000000081526004018080602001828103825260218152602001806111a76021913960400191505060405180910390fd5b600960009054906101000a900473ffffffffffffffffffffffffffffffffffffffff1673ffffffffffffffffffffffffffffffffffffffff166351cff8d9826040518263ffffffff1660e01b8152600401808273ffffffffffffffffffffffffffffffffffffffff1673ffffffffffffffffffffffffffffffffffffffff168152602001915050600060405180830381600087803b15801561086d57600080fd5b505af1158015610881573d6000803e3d6000fd5b5050505050565b6000600160009054906101000a900473ffffffffffffffffffffffffffffffffffffffff16905090565b6108ba61055c565b61092c576040517f08c379a00000000000000000000000000000000000000000000000000000000081526004018080602001828103825260188152602001807f54696d656443726f776473616c653a206e6f74206f70656e000000000000000081525060200191505060405180910390fd5b6109368282610c55565b5050565b600061095160035483610d5690919063ffffffff16565b9050919050565b6000808284019050838110156109d6576040517f08c379a000000000000000000000000000000000000000000000000000000000815260040180806020018281038252601b8152602001807f536166654d6174683a206164646974696f6e206f766572666c6f77000000000081525060200191505060405180910390fd5b8091505092915050565b6109ea8282610ddc565b5050565b5050565b600960009054906101000a900473ffffffffffffffffffffffffffffffffffffffff1673ffffffffffffffffffffffffffffffffffffffff1663f340fa0134336040518363ffffffff1660e01b8152600401808273ffffffffffffffffffffffffffffffffffffffff1673ffffffffffffffffffffffffffffffffffffffff1681526020019150506000604051808303818588803b158015610a9357600080fd5b505af1158015610aa7573d6000803e3d6000fd5b5050505050565b5050565b610aba6106dc565b15610bc857600960009054906101000a900473ffffffffffffffffffffffffffffffffffffffff1673ffffffffffffffffffffffffffffffffffffffff166343d726d66040518163ffffffff1660e01b8152600401600060405180830381600087803b158015610b2957600080fd5b505af1158015610b3d573d6000803e3d6000fd5b50505050600960009054906101000a900473ffffffffffffffffffffffffffffffffffffffff1673ffffffffffffffffffffffffffffffffffffffff16639af6549a6040518163ffffffff1660e01b8152600401600060405180830381600087803b158015610bab57600080fd5b505af1158015610bbf573d6000803e3d6000fd5b50505050610c4b565b600960009054906101000a900473ffffffffffffffffffffffffffffffffffffffff1673ffffffffffffffffffffffffffffffffffffffff16638c52dc416040518163ffffffff1660e01b8152600401600060405180830381600087803b158015610c3257600080fd5b505af1158015610c46573d6000803e3d6000fd5b505050505b610c53610e2d565b565b600073ffffffffffffffffffffffffffffffffffffffff168273ffffffffffffffffffffffffffffffffffffffff161415610cdb576040517f08c379a000000000000000000000000000000000000000000000000000000000815260040180806020018281038252602a8152602001806111c8602a913960400191505060405180910390fd5b6000811415610d52576040517f08c379a00000000000000000000000000000000000000000000000000000000081526004018080602001828103825260198152602001807f43726f776473616c653a20776569416d6f756e7420697320300000000000000081525060200191505060405180910390fd5b5050565b600080831415610d695760009050610dd6565b6000828402905082848281610d7a57fe5b0414610dd1576040517f08c379a000000000000000000000000000000000000000000000000000000000815260040180806020018281038252602181526020018061115f6021913960400191505060405180910390fd5b809150505b92915050565b610e298282600160009054906101000a900473ffffffffffffffffffffffffffffffffffffffff1673ffffffffffffffffffffffffffffffffffffffff16610e2f9092919063ffffffff16565b5050565b565b610efb838473ffffffffffffffffffffffffffffffffffffffff1663a9059cbb905060e01b8484604051602401808373ffffffffffffffffffffffffffffffffffffffff1673ffffffffffffffffffffffffffffffffffffffff16815260200182815260200192505050604051602081830303815290604052907bffffffffffffffffffffffffffffffffffffffffffffffffffffffff19166020820180517bffffffffffffffffffffffffffffffffffffffffffffffffffffffff8381831617835250505050610f00565b505050565b610f1f8273ffffffffffffffffffffffffffffffffffffffff1661114b565b610f91576040517f08c379a000000000000000000000000000000000000000000000000000000000815260040180806020018281038252601f8152602001807f5361666545524332303a2063616c6c20746f206e6f6e2d636f6e74726163740081525060200191505060405180910390fd5b600060608373ffffffffffffffffffffffffffffffffffffffff16836040518082805190602001908083835b60208310610fe05780518252602082019150602081019050602083039250610fbd565b6001836020036101000a0380198251168184511680821785525050505050509050019150506000604051808303816000865af19150503d8060008114611042576040519150601f19603f3d011682016040523d82523d6000602084013e611047565b606091505b5091509150816110bf576040517f08c379a00000000000000000000000000000000000000000000000000000000081526004018080602001828103825260208152602001807f5361666545524332303a206c6f772d6c6576656c2063616c6c206661696c656481525060200191505060405180910390fd5b600081511115611145578080602001905160208110156110de57600080fd5b8101908080519060200190929190505050611144576040517f08c379a000000000000000000000000000000000000000000000000000000000815260040180806020018281038252602a815260200180611214602a913960400191505060405180910390fd5b5b50505050565b600080823b90506000811191505091905056fe536166654d6174683a206d756c7469706c69636174696f6e206f766572666c6f7746696e616c697a61626c6543726f776473616c653a20616c72656164792066696e616c697a6564526566756e6461626c6543726f776473616c653a20676f616c207265616368656443726f776473616c653a2062656e656669636961727920697320746865207a65726f2061646472657373526566756e6461626c6543726f776473616c653a206e6f742066696e616c697a65645361666545524332303a204552433230206f7065726174696f6e20646964206e6f742073756363656564a265627a7a723158201275545d12e22f18133dd13448565ec52750a18a4ecfe2b95b58f8a64347397264736f6c63430005100032608060405234801561001057600080fd5b506040516112a93803806112a98339818101604052602081101561003357600080fd5b8101908080519060200190929190505050336000806101000a81548173ffffffffffffffffffffffffffffffffffffffff021916908373ffffffffffffffffffffffffffffffffffffffff1602179055507f4101e71e974f68df5e9730cc223280b41654676bbb052cdcc735c3337e64d2d96000809054906101000a900473ffffffffffffffffffffffffffffffffffffffff16604051808273ffffffffffffffffffffffffffffffffffffffff1673ffffffffffffffffffffffffffffffffffffffff16815260200191505060405180910390a1600073ffffffffffffffffffffffffffffffffffffffff168173ffffffffffffffffffffffffffffffffffffffff16141561018e576040517f08c379a000000000000000000000000000000000000000000000000000000000815260040180806020018281038252602d81526020018061127c602d913960400191505060405180910390fd5b80600260016101000a81548173ffffffffffffffffffffffffffffffffffffffff021916908373ffffffffffffffffffffffffffffffffffffffff1602179055506000600260006101000a81548160ff021916908360028111156101ee57fe5b021790555050611079806102036000396000f3fe60806040526004361061009c5760003560e01c80638c52dc41116100645780638c52dc411461021a5780639af6549a14610231578063c19d93fb14610248578063c6dbdf6114610281578063e3a9db1a146102d8578063f340fa011461033d5761009c565b80632348238c146100a157806338af3eed146100f257806343d726d61461014957806351cff8d914610160578063685ca194146101b1575b600080fd5b3480156100ad57600080fd5b506100f0600480360360208110156100c457600080fd5b81019080803573ffffffffffffffffffffffffffffffffffffffff169060200190929190505050610381565b005b3480156100fe57600080fd5b50610107610573565b604051808273ffffffffffffffffffffffffffffffffffffffff1673ffffffffffffffffffffffffffffffffffffffff16815260200191505060405180910390f35b34801561015557600080fd5b5061015e61059d565b005b34801561016c57600080fd5b506101af6004803603602081101561018357600080fd5b81019080803573ffffffffffffffffffffffffffffffffffffffff169060200190929190505050610711565b005b3480156101bd57600080fd5b50610200600480360360208110156101d457600080fd5b81019080803573ffffffffffffffffffffffffffffffffffffffff16906020019092919050505061077b565b604051808215151515815260200191505060405180910390f35b34801561022657600080fd5b5061022f6107ad565b005b34801561023d57600080fd5b50610246610922565b005b34801561025457600080fd5b5061025d610a0a565b6040518082600281111561026d57fe5b60ff16815260200191505060405180910390f35b34801561028d57600080fd5b50610296610a21565b604051808273ffffffffffffffffffffffffffffffffffffffff1673ffffffffffffffffffffffffffffffffffffffff16815260200191505060405180910390f35b3480156102e457600080fd5b50610327600480360360208110156102fb57600080fd5b81019080803573ffffffffffffffffffffffffffffffffffffffff169060200190929190505050610a4a565b6040518082815260200191505060405180910390f35b61037f6004803603602081101561035357600080fd5b81019080803573ffffffffffffffffffffffffffffffffffffffff169060200190929190505050610a93565b005b6000809054906101000a900473ffffffffffffffffffffffffffffffffffffffff1673ffffffffffffffffffffffffffffffffffffffff163373ffffffffffffffffffffffffffffffffffffffff1614610426576040517f08c379a000000000000000000000000000000000000000000000000000000000815260040180806020018281038252602c815260200180610fe7602c913960400191505060405180910390fd5b600073ffffffffffffffffffffffffffffffffffffffff168173ffffffffffffffffffffffffffffffffffffffff1614156104ac576040517f08c379a000000000000000000000000000000000000000000000000000000000815260040180806020018281038252602a815260200180610fbd602a913960400191505060405180910390fd5b806000806101000a81548173ffffffffffffffffffffffffffffffffffffffff021916908373ffffffffffffffffffffffffffffffffffffffff1602179055507f4101e71e974f68df5e9730cc223280b41654676bbb052cdcc735c3337e64d2d96000809054906101000a900473ffffffffffffffffffffffffffffffffffffffff16604051808273ffffffffffffffffffffffffffffffffffffffff1673ffffffffffffffffffffffffffffffffffffffff16815260200191505060405180910390a150565b6000600260019054906101000a900473ffffffffffffffffffffffffffffffffffffffff16905090565b6000809054906101000a900473ffffffffffffffffffffffffffffffffffffffff1673ffffffffffffffffffffffffffffffffffffffff163373ffffffffffffffffffffffffffffffffffffffff1614610642576040517f08c379a000000000000000000000000000000000000000000000000000000000815260040180806020018281038252602c815260200180610fe7602c913960400191505060405180910390fd5b6000600281111561064f57fe5b600260009054906101000a900460ff16600281111561066a57fe5b146106c0576040517f08c379a0000000000000000000000000000000000000000000000000000000008152600401808060200182810382526029815260200180610f946029913960400191505060405180910390fd5b60028060006101000a81548160ff021916908360028111156106de57fe5b02179055507f088672c3a6e342f7cd94a65ba63b79df24a8973927b4d05d803c44bbf787d12f60405160405180910390a1565b61071a8161077b565b61076f576040517f08c379a0000000000000000000000000000000000000000000000000000000008152600401808060200182810382526033815260200180610f616033913960400191505060405180910390fd5b61077881610b1d565b50565b60006001600281111561078a57fe5b600260009054906101000a900460ff1660028111156107a557fe5b149050919050565b6000809054906101000a900473ffffffffffffffffffffffffffffffffffffffff1673ffffffffffffffffffffffffffffffffffffffff163373ffffffffffffffffffffffffffffffffffffffff1614610852576040517f08c379a000000000000000000000000000000000000000000000000000000000815260040180806020018281038252602c815260200180610fe7602c913960400191505060405180910390fd5b6000600281111561085f57fe5b600260009054906101000a900460ff16600281111561087a57fe5b146108d0576040517f08c379a00000000000000000000000000000000000000000000000000000000081526004018080602001828103825260328152602001806110136032913960400191505060405180910390fd5b6001600260006101000a81548160ff021916908360028111156108ef57fe5b02179055507f599d8e5a83cffb867d051598c4d70e805d59802d8081c1c7d6dffc5b6aca2b8960405160405180910390a1565b60028081111561092e57fe5b600260009054906101000a900460ff16600281111561094957fe5b1461099f576040517f08c379a0000000000000000000000000000000000000000000000000000000008152600401808060200182810382526038815260200180610efe6038913960400191505060405180910390fd5b600260019054906101000a900473ffffffffffffffffffffffffffffffffffffffff1673ffffffffffffffffffffffffffffffffffffffff166108fc479081150290604051600060405180830381858888f19350505050158015610a07573d6000803e3d6000fd5b50565b6000600260009054906101000a900460ff16905090565b60008060009054906101000a900473ffffffffffffffffffffffffffffffffffffffff16905090565b6000600160008373ffffffffffffffffffffffffffffffffffffffff1673ffffffffffffffffffffffffffffffffffffffff168152602001908152602001600020549050919050565b60006002811115610aa057fe5b600260009054906101000a900460ff166002811115610abb57fe5b14610b11576040517f08c379a000000000000000000000000000000000000000000000000000000000815260040180806020018281038252602b815260200180610f36602b913960400191505060405180910390fd5b610b1a81610ce4565b50565b6000809054906101000a900473ffffffffffffffffffffffffffffffffffffffff1673ffffffffffffffffffffffffffffffffffffffff163373ffffffffffffffffffffffffffffffffffffffff1614610bc2576040517f08c379a000000000000000000000000000000000000000000000000000000000815260040180806020018281038252602c815260200180610fe7602c913960400191505060405180910390fd5b6000600160008373ffffffffffffffffffffffffffffffffffffffff1673ffffffffffffffffffffffffffffffffffffffff1681526020019081526020016000205490506000600160008473ffffffffffffffffffffffffffffffffffffffff1673ffffffffffffffffffffffffffffffffffffffff168152602001908152602001600020819055508173ffffffffffffffffffffffffffffffffffffffff166108fc829081150290604051600060405180830381858888f19350505050158015610c91573d6000803e3d6000fd5b508173ffffffffffffffffffffffffffffffffffffffff167f7084f5476618d8e60b11ef0d7d3f06914655adb8793e28ff7f018d4c76d505d5826040518082815260200191505060405180910390a25050565b6000809054906101000a900473ffffffffffffffffffffffffffffffffffffffff1673ffffffffffffffffffffffffffffffffffffffff163373ffffffffffffffffffffffffffffffffffffffff1614610d89576040517f08c379a000000000000000000000000000000000000000000000000000000000815260040180806020018281038252602c815260200180610fe7602c913960400191505060405180910390fd5b6000349050610de081600160008573ffffffffffffffffffffffffffffffffffffffff1673ffffffffffffffffffffffffffffffffffffffff16815260200190815260200160002054610e7590919063ffffffff16565b600160008473ffffffffffffffffffffffffffffffffffffffff1673ffffffffffffffffffffffffffffffffffffffff168152602001908152602001600020819055508173ffffffffffffffffffffffffffffffffffffffff167f2da466a7b24304f47e87fa2e1e5a81b9831ce54fec19055ce277ca2f39ba42c4826040518082815260200191505060405180910390a25050565b600080828401905083811015610ef3576040517f08c379a000000000000000000000000000000000000000000000000000000000815260040180806020018281038252601b8152602001807f536166654d6174683a206164646974696f6e206f766572666c6f77000000000081525060200191505060405180910390fd5b809150509291505056fe526566756e64457363726f773a2062656e65666963696172792063616e206f6e6c79207769746864726177207768696c6520636c6f736564526566756e64457363726f773a2063616e206f6e6c79206465706f736974207768696c6520616374697665436f6e646974696f6e616c457363726f773a207061796565206973206e6f7420616c6c6f77656420746f207769746864726177526566756e64457363726f773a2063616e206f6e6c7920636c6f7365207768696c65206163746976655365636f6e646172793a206e6577207072696d61727920697320746865207a65726f20616464726573735365636f6e646172793a2063616c6c6572206973206e6f7420746865207072696d617279206163636f756e74526566756e64457363726f773a2063616e206f6e6c7920656e61626c6520726566756e6473207768696c6520616374697665a265627a7a72315820825feb533dd9422ecc50cacf2acdfa6c278a4a4820a595d8cd831e20c4611af864736f6c63430005100032526566756e64457363726f773a2062656e656669636961727920697320746865207a65726f206164647265737354696d656443726f776473616c653a206f70656e696e672074696d65206973206265666f72652063757272656e742074696d6554696d656443726f776473616c653a206f70656e696e672074696d65206973206e6f74206265666f726520636c6f73696e672074696d6543726f776473616c653a20746f6b656e20697320746865207a65726f206164647265737343726f776473616c653a2077616c6c657420697320746865207a65726f2061646472657373",
  "source": "pragma solidity ^0.5.0;\n\nimport \"../token/ERC20/IERC20.sol\";\nimport \"../crowdsale/distribution/RefundableCrowdsale.sol\";\n\ncontract RefundableCrowdsaleImpl is RefundableCrowdsale {\n    constructor (\n        uint256 openingTime,\n        uint256 closingTime,\n        uint256 rate,\n        address payable wallet,\n        IERC20 token,\n        uint256 goal\n    )\n        public\n        Crowdsale(rate, wallet, token)\n        TimedCrowdsale(openingTime, closingTime)\n        RefundableCrowdsale(goal)\n    {\n        // solhint-disable-previous-line no-empty-blocks\n    }\n}\n",
  "sourcePath": "/home/grifma/Code/vi-fresh/v-alpha-2/smart-contract/contracts/lib/openzeppelin-solidity/contracts/mocks/RefundableCrowdsaleImpl.sol",
  "compiler": {
    "name": "solc",
    "version": "0.5.16+commit.9c3226ce.Emscripten.clang"
  },
  "schemaVersion": "3.0.23",
  "updatedAt": "2020-06-09T20:14:57.902Z",
  "devdoc": {
    "methods": {
      "buyTokens(address)": {
        "details": "low level token purchase ***DO NOT OVERRIDE*** This function has a non-reentrancy guard, so it shouldn't be called by another `nonReentrant` function.",
        "params": {
          "beneficiary": "Recipient of the token purchase"
        }
      },
      "claimRefund(address)": {
        "details": "Investors can claim refunds here if crowdsale is unsuccessful.",
        "params": {
          "refundee": "Whose refund will be claimed."
        }
      },
      "closingTime()": {
        "return": "the crowdsale closing time."
      },
      "finalize()": {
        "details": "Must be called after crowdsale ends, to do some extra finalization work. Calls the contract's finalization function."
      },
      "finalized()": {
        "return": "true if the crowdsale is finalized, false otherwise."
      },
      "goal()": {
        "return": "minimum amount of funds to be raised in wei."
      },
      "goalReached()": {
        "details": "Checks whether funding goal was reached.",
        "return": "Whether funding goal was reached"
      },
      "hasClosed()": {
        "details": "Checks whether the period in which the crowdsale is open has already elapsed.",
        "return": "Whether crowdsale period has elapsed"
      },
      "isOpen()": {
        "return": "true if the crowdsale is open, false otherwise."
      },
      "openingTime()": {
        "return": "the crowdsale opening time."
      },
      "rate()": {
        "return": "the number of token units a buyer gets per wei."
      },
      "token()": {
        "return": "the token being sold."
      },
      "wallet()": {
        "return": "the address where funds are collected."
      },
      "weiRaised()": {
        "return": "the amount of wei raised."
      }
    }
  },
  "userdoc": {
    "methods": {}
  }
}