{
  "contractName": "VICoin",
  "abi": [
    {
      "constant": true,
      "inputs": [],
      "name": "name",
      "outputs": [
        {
          "name": "",
          "type": "string"
        }
      ],
      "payable": false,
      "stateMutability": "view",
      "type": "function"
    },
    {
      "constant": false,
      "inputs": [
        {
          "name": "spender",
          "type": "address"
        },
        {
          "name": "value",
          "type": "uint256"
        }
      ],
      "name": "approve",
      "outputs": [
        {
          "name": "",
          "type": "bool"
        }
      ],
      "payable": false,
      "stateMutability": "nonpayable",
      "type": "function"
    },
    {
      "constant": true,
      "inputs": [],
      "name": "totalSupply",
      "outputs": [
        {
          "name": "",
          "type": "uint256"
        }
      ],
      "payable": false,
      "stateMutability": "view",
      "type": "function"
    },
    {
      "constant": true,
      "inputs": [],
      "name": "initialBalance",
      "outputs": [
        {
          "name": "",
          "type": "uint256"
        }
      ],
      "payable": false,
      "stateMutability": "view",
      "type": "function"
    },
    {
      "constant": true,
      "inputs": [],
      "name": "multiplier",
      "outputs": [
        {
          "name": "",
          "type": "uint256"
        }
      ],
      "payable": false,
      "stateMutability": "view",
      "type": "function"
    },
    {
      "constant": true,
      "inputs": [
        {
          "name": "",
          "type": "address"
        }
      ],
      "name": "lastGenerationBlock",
      "outputs": [
        {
          "name": "",
          "type": "uint256"
        }
      ],
      "payable": false,
      "stateMutability": "view",
      "type": "function"
    },
    {
      "constant": true,
      "inputs": [],
      "name": "contributionFeeDecimals",
      "outputs": [
        {
          "name": "",
          "type": "uint256"
        }
      ],
      "payable": false,
      "stateMutability": "view",
      "type": "function"
    },
    {
      "constant": true,
      "inputs": [],
      "name": "decimals",
      "outputs": [
        {
          "name": "",
          "type": "uint8"
        }
      ],
      "payable": false,
      "stateMutability": "view",
      "type": "function"
    },
    {
      "constant": false,
      "inputs": [
        {
          "name": "spender",
          "type": "address"
        },
        {
          "name": "addedValue",
          "type": "uint256"
        }
      ],
      "name": "increaseAllowance",
      "outputs": [
        {
          "name": "",
          "type": "bool"
        }
      ],
      "payable": false,
      "stateMutability": "nonpayable",
      "type": "function"
    },
    {
      "constant": false,
      "inputs": [
        {
          "name": "_newController",
          "type": "address"
        }
      ],
      "name": "changeController",
      "outputs": [],
      "payable": false,
      "stateMutability": "nonpayable",
      "type": "function"
    },
    {
      "constant": false,
      "inputs": [
        {
          "name": "value",
          "type": "uint256"
        }
      ],
      "name": "burn",
      "outputs": [],
      "payable": false,
      "stateMutability": "nonpayable",
      "type": "function"
    },
    {
      "constant": true,
      "inputs": [
        {
          "name": "",
          "type": "address"
        }
      ],
      "name": "zeroBlock",
      "outputs": [
        {
          "name": "",
          "type": "uint256"
        }
      ],
      "payable": false,
      "stateMutability": "view",
      "type": "function"
    },
    {
      "constant": true,
      "inputs": [],
      "name": "lifetime",
      "outputs": [
        {
          "name": "",
          "type": "uint256"
        }
      ],
      "payable": false,
      "stateMutability": "view",
      "type": "function"
    },
    {
      "constant": true,
      "inputs": [
        {
          "name": "owner",
          "type": "address"
        }
      ],
      "name": "balanceOf",
      "outputs": [
        {
          "name": "",
          "type": "uint256"
        }
      ],
      "payable": false,
      "stateMutability": "view",
      "type": "function"
    },
    {
      "constant": false,
      "inputs": [
        {
          "name": "from",
          "type": "address"
        },
        {
          "name": "value",
          "type": "uint256"
        }
      ],
      "name": "burnFrom",
      "outputs": [],
      "payable": false,
      "stateMutability": "nonpayable",
      "type": "function"
    },
    {
      "constant": true,
      "inputs": [],
      "name": "blocksMined",
      "outputs": [
        {
          "name": "",
          "type": "uint256"
        }
      ],
      "payable": false,
      "stateMutability": "view",
      "type": "function"
    },
    {
      "constant": true,
      "inputs": [],
      "name": "symbol",
      "outputs": [
        {
          "name": "",
          "type": "string"
        }
      ],
      "payable": false,
      "stateMutability": "view",
      "type": "function"
    },
    {
      "constant": false,
      "inputs": [
        {
          "name": "account",
          "type": "address"
        }
      ],
      "name": "addMinter",
      "outputs": [],
      "payable": false,
      "stateMutability": "nonpayable",
      "type": "function"
    },
    {
      "constant": false,
      "inputs": [],
      "name": "renounceMinter",
      "outputs": [],
      "payable": false,
      "stateMutability": "nonpayable",
      "type": "function"
    },
    {
      "constant": true,
      "inputs": [],
      "name": "transactionFee",
      "outputs": [
        {
          "name": "",
          "type": "uint256"
        }
      ],
      "payable": false,
      "stateMutability": "view",
      "type": "function"
    },
    {
      "constant": false,
      "inputs": [
        {
          "name": "spender",
          "type": "address"
        },
        {
          "name": "subtractedValue",
          "type": "uint256"
        }
      ],
      "name": "decreaseAllowance",
      "outputs": [
        {
          "name": "",
          "type": "bool"
        }
      ],
      "payable": false,
      "stateMutability": "nonpayable",
      "type": "function"
    },
    {
      "constant": true,
      "inputs": [
        {
          "name": "",
          "type": "address"
        }
      ],
      "name": "lastTransactionBlock",
      "outputs": [
        {
          "name": "",
          "type": "uint256"
        }
      ],
      "payable": false,
      "stateMutability": "view",
      "type": "function"
    },
    {
      "constant": true,
      "inputs": [
        {
          "name": "account",
          "type": "address"
        }
      ],
      "name": "isMinter",
      "outputs": [
        {
          "name": "",
          "type": "bool"
        }
      ],
      "payable": false,
      "stateMutability": "view",
      "type": "function"
    },
    {
      "constant": true,
      "inputs": [],
      "name": "communityContributionAccount",
      "outputs": [
        {
          "name": "",
          "type": "address"
        }
      ],
      "payable": false,
      "stateMutability": "view",
      "type": "function"
    },
    {
      "constant": true,
      "inputs": [],
      "name": "communityContribution",
      "outputs": [
        {
          "name": "",
          "type": "uint256"
        }
      ],
      "payable": false,
      "stateMutability": "view",
      "type": "function"
    },
    {
      "constant": true,
      "inputs": [
        {
          "name": "owner",
          "type": "address"
        },
        {
          "name": "spender",
          "type": "address"
        }
      ],
      "name": "allowance",
      "outputs": [
        {
          "name": "",
          "type": "uint256"
        }
      ],
      "payable": false,
      "stateMutability": "view",
      "type": "function"
    },
    {
      "constant": true,
      "inputs": [],
      "name": "generationAmount",
      "outputs": [
        {
          "name": "",
          "type": "uint256"
        }
      ],
      "payable": false,
      "stateMutability": "view",
      "type": "function"
    },
    {
      "constant": false,
      "inputs": [
        {
          "name": "_fuseID",
          "type": "uint8"
        },
        {
          "name": "_confirm",
          "type": "bool"
        }
      ],
      "name": "blowFuse",
      "outputs": [],
      "payable": false,
      "stateMutability": "nonpayable",
      "type": "function"
    },
    {
      "constant": false,
      "inputs": [
        {
          "name": "_confirm",
          "type": "bool"
        }
      ],
      "name": "blowAllFuses",
      "outputs": [],
      "payable": false,
      "stateMutability": "nonpayable",
      "type": "function"
    },
    {
      "constant": true,
      "inputs": [],
      "name": "generationPeriod",
      "outputs": [
        {
          "name": "",
          "type": "uint256"
        }
      ],
      "payable": false,
      "stateMutability": "view",
      "type": "function"
    },
    {
      "constant": true,
      "inputs": [
        {
          "name": "",
          "type": "address"
        }
      ],
      "name": "accountApproved",
      "outputs": [
        {
          "name": "",
          "type": "bool"
        }
      ],
      "payable": false,
      "stateMutability": "view",
      "type": "function"
    },
    {
      "constant": true,
      "inputs": [],
      "name": "controller",
      "outputs": [
        {
          "name": "",
          "type": "address"
        }
      ],
      "payable": false,
      "stateMutability": "view",
      "type": "function"
    },
    {
      "inputs": [
        {
          "name": "_name",
          "type": "string"
        },
        {
          "name": "_symbol",
          "type": "string"
        },
        {
          "name": "_decimals",
          "type": "uint8"
        },
        {
          "name": "_lifetime",
          "type": "uint256"
        },
        {
          "name": "_generationAmount",
          "type": "uint256"
        },
        {
          "name": "_generationPeriod",
          "type": "uint256"
        },
        {
          "name": "_communityContribution",
          "type": "uint256"
        },
        {
          "name": "_transactionFee",
          "type": "uint256"
        },
        {
          "name": "_initialBalance",
          "type": "uint256"
        },
        {
          "name": "_communityContributionAccount",
          "type": "address"
        },
        {
          "name": "_controller",
          "type": "address"
        }
      ],
      "payable": false,
      "stateMutability": "nonpayable",
      "type": "constructor"
    },
    {
      "payable": true,
      "stateMutability": "payable",
      "type": "fallback"
    },
    {
      "anonymous": false,
      "inputs": [
        {
          "indexed": true,
          "name": "from",
          "type": "address"
        },
        {
          "indexed": true,
          "name": "to",
          "type": "address"
        },
        {
          "indexed": false,
          "name": "value",
          "type": "uint256"
        },
        {
          "indexed": false,
          "name": "feesBurned",
          "type": "uint256"
        },
        {
          "indexed": false,
          "name": "contribution",
          "type": "uint256"
        },
        {
          "indexed": false,
          "name": "payoutSender",
          "type": "uint256"
        },
        {
          "indexed": false,
          "name": "payoutRecipient",
          "type": "uint256"
        }
      ],
      "name": "TransferSummary",
      "type": "event"
    },
    {
      "anonymous": false,
      "inputs": [
        {
          "indexed": true,
          "name": "_account",
          "type": "address"
        },
        {
          "indexed": false,
          "name": "_income",
          "type": "uint256"
        }
      ],
      "name": "IncomeReceived",
      "type": "event"
    },
    {
      "anonymous": false,
      "inputs": [
        {
          "indexed": true,
          "name": "_account",
          "type": "address"
        },
        {
          "indexed": false,
          "name": "_decay",
          "type": "uint256"
        }
      ],
      "name": "Decay",
      "type": "event"
    },
    {
      "anonymous": false,
      "inputs": [
        {
          "indexed": true,
          "name": "to",
          "type": "address"
        },
        {
          "indexed": false,
          "name": "value",
          "type": "uint256"
        }
      ],
      "name": "Mint",
      "type": "event"
    },
    {
      "anonymous": false,
      "inputs": [
        {
          "indexed": true,
          "name": "_account",
          "type": "address"
        }
      ],
      "name": "VerifyAccount",
      "type": "event"
    },
    {
      "anonymous": false,
      "inputs": [
        {
          "indexed": true,
          "name": "to",
          "type": "address"
        },
        {
          "indexed": false,
          "name": "value",
          "type": "uint256"
        }
      ],
      "name": "Burn",
      "type": "event"
    },
    {
      "anonymous": false,
      "inputs": [
        {
          "indexed": true,
          "name": "_account",
          "type": "address"
        }
      ],
      "name": "ApproveAccount",
      "type": "event"
    },
    {
      "anonymous": false,
      "inputs": [
        {
          "indexed": false,
          "name": "_account",
          "type": "address"
        }
      ],
      "name": "UnapproveAccount",
      "type": "event"
    },
    {
      "anonymous": false,
      "inputs": [
        {
          "indexed": false,
          "name": "_lifetime",
          "type": "uint256"
        }
      ],
      "name": "UpdateLifetime",
      "type": "event"
    },
    {
      "anonymous": false,
      "inputs": [
        {
          "indexed": false,
          "name": "_initialBalance",
          "type": "uint256"
        }
      ],
      "name": "UpdateInitialBalance",
      "type": "event"
    },
    {
      "anonymous": false,
      "inputs": [
        {
          "indexed": false,
          "name": "_generationAmount",
          "type": "uint256"
        }
      ],
      "name": "UpdateGenerationAmount",
      "type": "event"
    },
    {
      "anonymous": false,
      "inputs": [
        {
          "indexed": false,
          "name": "_generationPeriod",
          "type": "uint256"
        }
      ],
      "name": "UpdateGenerationPeriod",
      "type": "event"
    },
    {
      "anonymous": false,
      "inputs": [
        {
          "indexed": false,
          "name": "_newCommunityContributionAccount",
          "type": "address"
        }
      ],
      "name": "UpdateCommunityContributionAccount",
      "type": "event"
    },
    {
      "anonymous": false,
      "inputs": [
        {
          "indexed": false,
          "name": "_transactionFee",
          "type": "uint256"
        }
      ],
      "name": "UpdateTransactionFee",
      "type": "event"
    },
    {
      "anonymous": false,
      "inputs": [
        {
          "indexed": false,
          "name": "_communityContribution",
          "type": "uint256"
        }
      ],
      "name": "UpdateCommunityContribution",
      "type": "event"
    },
    {
      "anonymous": false,
      "inputs": [
        {
          "indexed": false,
          "name": "_block",
          "type": "uint256"
        }
      ],
      "name": "Mined",
      "type": "event"
    },
    {
      "anonymous": false,
      "inputs": [
        {
          "indexed": false,
          "name": "_name",
          "type": "string"
        },
        {
          "indexed": false,
          "name": "_value",
          "type": "uint256"
        }
      ],
      "name": "Log",
      "type": "event"
    },
    {
      "anonymous": false,
      "inputs": [
        {
          "indexed": false,
          "name": "_fuseID",
          "type": "uint8"
        }
      ],
      "name": "BlowFuse",
      "type": "event"
    },
    {
      "anonymous": false,
      "inputs": [],
      "name": "BlowAllFuses",
      "type": "event"
    },
    {
      "anonymous": false,
      "inputs": [
        {
          "indexed": false,
          "name": "_newController",
          "type": "address"
        }
      ],
      "name": "ChangeController",
      "type": "event"
    },
    {
      "anonymous": false,
      "inputs": [
        {
          "indexed": true,
          "name": "account",
          "type": "address"
        }
      ],
      "name": "MinterAdded",
      "type": "event"
    },
    {
      "anonymous": false,
      "inputs": [
        {
          "indexed": true,
          "name": "account",
          "type": "address"
        }
      ],
      "name": "MinterRemoved",
      "type": "event"
    },
    {
      "anonymous": false,
      "inputs": [
        {
          "indexed": true,
          "name": "from",
          "type": "address"
        },
        {
          "indexed": true,
          "name": "to",
          "type": "address"
        },
        {
          "indexed": false,
          "name": "value",
          "type": "uint256"
        }
      ],
      "name": "Transfer",
      "type": "event"
    },
    {
      "anonymous": false,
      "inputs": [
        {
          "indexed": true,
          "name": "owner",
          "type": "address"
        },
        {
          "indexed": true,
          "name": "spender",
          "type": "address"
        },
        {
          "indexed": false,
          "name": "value",
          "type": "uint256"
        }
      ],
      "name": "Approval",
      "type": "event"
    },
    {
      "constant": true,
      "inputs": [
        {
          "name": "_blockNumber",
          "type": "uint256"
        },
        {
          "name": "_lastGenerationBlock",
          "type": "uint256"
        },
        {
          "name": "_generationPeriod",
          "type": "uint256"
        }
      ],
      "name": "calcNumCompletedPeriods",
      "outputs": [
        {
          "name": "",
          "type": "uint256"
        }
      ],
      "payable": false,
      "stateMutability": "pure",
      "type": "function"
    },
    {
      "constant": false,
      "inputs": [
        {
          "name": "_account",
          "type": "address"
        }
      ],
      "name": "triggerOnchainBalanceUpdate",
      "outputs": [
        {
          "name": "",
          "type": "uint256"
        }
      ],
      "payable": false,
      "stateMutability": "nonpayable",
      "type": "function"
    },
    {
      "constant": true,
      "inputs": [
        {
          "name": "_blockNumber",
          "type": "uint256"
        },
        {
          "name": "_lastGenerationBlock",
          "type": "uint256"
        },
        {
          "name": "_lifetime",
          "type": "uint256"
        },
        {
          "name": "_generationAmount",
          "type": "uint256"
        },
        {
          "name": "_generationPeriod",
          "type": "uint256"
        }
      ],
      "name": "calcGeneration",
      "outputs": [
        {
          "name": "",
          "type": "uint256"
        }
      ],
      "payable": false,
      "stateMutability": "pure",
      "type": "function"
    },
    {
      "constant": true,
      "inputs": [
        {
          "name": "_account",
          "type": "address"
        }
      ],
      "name": "liveBalanceOf",
      "outputs": [
        {
          "name": "",
          "type": "uint256"
        }
      ],
      "payable": false,
      "stateMutability": "view",
      "type": "function"
    },
    {
      "constant": true,
      "inputs": [
        {
          "name": "_account",
          "type": "address"
        }
      ],
      "name": "getDecayedBalance",
      "outputs": [
        {
          "name": "",
          "type": "uint256"
        }
      ],
      "payable": false,
      "stateMutability": "view",
      "type": "function"
    },
    {
      "constant": false,
      "inputs": [
        {
          "name": "_to",
          "type": "address"
        },
        {
          "name": "_value",
          "type": "uint256"
        }
      ],
      "name": "transfer",
      "outputs": [
        {
          "name": "",
          "type": "bool"
        }
      ],
      "payable": false,
      "stateMutability": "nonpayable",
      "type": "function"
    },
    {
      "constant": false,
      "inputs": [
        {
          "name": "",
          "type": "address"
        },
        {
          "name": "",
          "type": "address"
        },
        {
          "name": "",
          "type": "uint256"
        }
      ],
      "name": "transferFrom",
      "outputs": [
        {
          "name": "",
          "type": "bool"
        }
      ],
      "payable": false,
      "stateMutability": "nonpayable",
      "type": "function"
    },
    {
      "constant": true,
      "inputs": [
        {
          "name": "_value",
          "type": "uint256"
        },
        {
          "name": "_feeRate",
          "type": "uint256"
        },
        {
          "name": "_contributionRate",
          "type": "uint256"
        }
      ],
      "name": "calcContribution",
      "outputs": [
        {
          "name": "",
          "type": "uint256"
        }
      ],
      "payable": false,
      "stateMutability": "pure",
      "type": "function"
    },
    {
      "constant": true,
      "inputs": [
        {
          "name": "_value",
          "type": "uint256"
        },
        {
          "name": "_feeRate",
          "type": "uint256"
        },
        {
          "name": "_contributionRate",
          "type": "uint256"
        }
      ],
      "name": "calcFeesToBurn",
      "outputs": [
        {
          "name": "",
          "type": "uint256"
        }
      ],
      "payable": false,
      "stateMutability": "pure",
      "type": "function"
    },
    {
      "constant": true,
      "inputs": [
        {
          "name": "_value",
          "type": "uint256"
        },
        {
          "name": "_feeRate",
          "type": "uint256"
        }
      ],
      "name": "calcFeesIncContribution",
      "outputs": [
        {
          "name": "",
          "type": "uint256"
        }
      ],
      "payable": false,
      "stateMutability": "pure",
      "type": "function"
    },
    {
      "constant": true,
      "inputs": [
        {
          "name": "_account",
          "type": "address"
        }
      ],
      "name": "getDetails",
      "outputs": [
        {
          "name": "_lastBlock",
          "type": "uint256"
        },
        {
          "name": "_balance",
          "type": "uint256"
        },
        {
          "name": "_zeroBlock",
          "type": "uint256"
        }
      ],
      "payable": false,
      "stateMutability": "view",
      "type": "function"
    },
    {
      "constant": true,
      "inputs": [
        {
          "name": "_value",
          "type": "uint256"
        },
        {
          "name": "_balance",
          "type": "uint256"
        },
        {
          "name": "_blockNumber",
          "type": "uint256"
        },
        {
          "name": "_lifetime",
          "type": "uint256"
        },
        {
          "name": "_originalZeroBlock",
          "type": "uint256"
        }
      ],
      "name": "calcZeroBlock",
      "outputs": [
        {
          "name": "",
          "type": "uint256"
        }
      ],
      "payable": false,
      "stateMutability": "pure",
      "type": "function"
    },
    {
      "constant": true,
      "inputs": [
        {
          "name": "_lastTransactionBlock",
          "type": "uint256"
        },
        {
          "name": "_balance",
          "type": "uint256"
        },
        {
          "name": "_thisBlock",
          "type": "uint256"
        },
        {
          "name": "_zeroBlock",
          "type": "uint256"
        }
      ],
      "name": "calcDecay",
      "outputs": [
        {
          "name": "",
          "type": "uint256"
        }
      ],
      "payable": false,
      "stateMutability": "pure",
      "type": "function"
    },
    {
      "constant": true,
      "inputs": [],
      "name": "getBlockNumber",
      "outputs": [
        {
          "name": "",
          "type": "uint256"
        }
      ],
      "payable": false,
      "stateMutability": "view",
      "type": "function"
    },
    {
      "constant": false,
      "inputs": [],
      "name": "finishMinting",
      "outputs": [
        {
          "name": "",
          "type": "bool"
        }
      ],
      "payable": false,
      "stateMutability": "nonpayable",
      "type": "function"
    },
    {
      "constant": false,
      "inputs": [],
      "name": "mint",
      "outputs": [
        {
          "name": "",
          "type": "bool"
        }
      ],
      "payable": false,
      "stateMutability": "nonpayable",
      "type": "function"
    },
    {
      "constant": false,
      "inputs": [
        {
          "name": "to",
          "type": "address"
        },
        {
          "name": "value",
          "type": "uint256"
        }
      ],
      "name": "mint",
      "outputs": [
        {
          "name": "",
          "type": "bool"
        }
      ],
      "payable": false,
      "stateMutability": "nonpayable",
      "type": "function"
    },
    {
      "constant": false,
      "inputs": [
        {
          "name": "_account",
          "type": "address"
        }
      ],
      "name": "approveAccount",
      "outputs": [],
      "payable": false,
      "stateMutability": "nonpayable",
      "type": "function"
    },
    {
      "constant": false,
      "inputs": [
        {
          "name": "_account",
          "type": "address"
        }
      ],
      "name": "unapproveAccount",
      "outputs": [],
      "payable": false,
      "stateMutability": "nonpayable",
      "type": "function"
    },
    {
      "constant": false,
      "inputs": [
        {
          "name": "_account",
          "type": "address"
        }
      ],
      "name": "verifyAccount",
      "outputs": [],
      "payable": false,
      "stateMutability": "nonpayable",
      "type": "function"
    },
    {
      "constant": false,
      "inputs": [
        {
          "name": "_lifetime",
          "type": "uint256"
        }
      ],
      "name": "updateLifetime",
      "outputs": [],
      "payable": false,
      "stateMutability": "nonpayable",
      "type": "function"
    },
    {
      "constant": false,
      "inputs": [
        {
          "name": "_initialBalance",
          "type": "uint256"
        }
      ],
      "name": "updateInitialBalance",
      "outputs": [],
      "payable": false,
      "stateMutability": "nonpayable",
      "type": "function"
    },
    {
      "constant": false,
      "inputs": [
        {
          "name": "_generationPeriod",
          "type": "uint256"
        }
      ],
      "name": "updateGenerationPeriod",
      "outputs": [],
      "payable": false,
      "stateMutability": "nonpayable",
      "type": "function"
    },
    {
      "constant": false,
      "inputs": [
        {
          "name": "_generationAmount",
          "type": "uint256"
        }
      ],
      "name": "updateGenerationAmount",
      "outputs": [],
      "payable": false,
      "stateMutability": "nonpayable",
      "type": "function"
    },
    {
      "constant": true,
      "inputs": [],
      "name": "getGenerationAmount",
      "outputs": [
        {
          "name": "",
          "type": "uint256"
        }
      ],
      "payable": false,
      "stateMutability": "view",
      "type": "function"
    },
    {
      "constant": false,
      "inputs": [],
      "name": "mine",
      "outputs": [],
      "payable": false,
      "stateMutability": "nonpayable",
      "type": "function"
    },
    {
      "constant": false,
      "inputs": [
        {
          "name": "_newCommunityContributionAccount",
          "type": "address"
        }
      ],
      "name": "updateCommunityContributionAccount",
      "outputs": [],
      "payable": false,
      "stateMutability": "nonpayable",
      "type": "function"
    },
    {
      "constant": false,
      "inputs": [
        {
          "name": "_communityContribution",
          "type": "uint256"
        }
      ],
      "name": "updateCommunityContribution",
      "outputs": [],
      "payable": false,
      "stateMutability": "nonpayable",
      "type": "function"
    },
    {
      "constant": false,
      "inputs": [
        {
          "name": "_transactionFee",
          "type": "uint256"
        }
      ],
      "name": "updateTransactionFee",
      "outputs": [],
      "payable": false,
      "stateMutability": "nonpayable",
      "type": "function"
    },
    {
      "constant": false,
      "inputs": [
        {
          "name": "_confirm",
          "type": "bool"
        },
        {
          "name": "_recoverFunds",
          "type": "address"
        }
      ],
      "name": "terminateCurrency",
      "outputs": [],
      "payable": false,
      "stateMutability": "nonpayable",
      "type": "function"
    }
  ],
  "bytecode": "0x60806040523480156200001157600080fd5b5060405162003f7c38038062003f7c83398101806040526101608110156200003857600080fd5b8101908080516401000000008111156200005157600080fd5b820160208101848111156200006557600080fd5b81516401000000008111828201871017156200008057600080fd5b505092919060200180516401000000008111156200009d57600080fd5b82016020810184811115620000b157600080fd5b8151640100000000811182820187101715620000cc57600080fd5b505060208083015160408401516060850151608086015160a087015160c088015160e08901516101008a0151610120909a0151989b50959950939792969195909492919081908c908c908c906200012990339062000222811b901c565b82516200013e9060049060208601906200039b565b508151620001549060059060208501906200039b565b506006805460ff191660ff9290921691909117905550506001600160a01b038116620001975760068054610100600160a81b0319163361010002179055620001b8565b60068054610100600160a81b0319166101006001600160a01b038416021790555b506008889055600e879055600d86905560108590556011849055600f839055601280546001600160a01b0319166001600160a01b038481169190911791829055166200021157601280546001600160a01b031916331790555b505050505050505050505062000440565b6200023d8160036200027460201b6200359d1790919060201c565b6040516001600160a01b038216907f6ae172837ea30b801fbfcdd4108aa1d5bf8ff775444fd70256b44e6bf3dfc3f690600090a250565b6200028682826200031860201b60201c565b15620002f357604080517f08c379a000000000000000000000000000000000000000000000000000000000815260206004820152601f60248201527f526f6c65733a206163636f756e7420616c72656164792068617320726f6c6500604482015290519081900360640190fd5b6001600160a01b0316600090815260209190915260409020805460ff19166001179055565b60006001600160a01b0382166200037b576040517f08c379a000000000000000000000000000000000000000000000000000000000815260040180806020018281038252602281526020018062003f5a6022913960400191505060405180910390fd5b506001600160a01b03166000908152602091909152604090205460ff1690565b828054600181600116156101000203166002900490600052602060002090601f016020900481019282601f10620003de57805160ff19168380011785556200040e565b828001600101855582156200040e579182015b828111156200040e578251825591602001919060010190620003f1565b506200041c92915062000420565b5090565b6200043d91905b808211156200041c576000815560010162000427565b90565b613b0a80620004506000396000f3fe6080604052600436106103ad5760003560e01c80638e505f4e116101e7578063d0a966ac1161010d578063ed451dff116100a0578063f77c47911161006f578063f77c479114610e22578063f89f4e7714610e37578063f9128ed514610e6a578063fbda28dc14610e9d576103ad565b8063ed451dff14610d5c578063ed52f18214610d86578063f16dfbe914610db9578063f1b4e94114610dec576103ad565b8063e3321e1f116100dc578063e3321e1f14610cb3578063e49ac4cd14610ce8578063e60e0de614610d14578063ecd7dba614610d47576103ad565b8063d0a966ac14610c12578063d6f8458214610c27578063dd62ed3e14610c63578063df6d57c114610c9e576103ad565b80639ed3edf011610185578063a990ecd411610154578063a990ecd414610b6f578063aa271e1a14610b84578063b9a84a0d14610bb7578063cfe3b78414610be1576103ad565b80639ed3edf014610ab5578063a457c2d714610aca578063a707603814610b03578063a9059cbb14610b36576103ad565b806395d89b41116101c157806395d89b4114610a43578063983b2d5614610a585780639865027514610a8b57806399f4b25114610aa0576103ad565b80638e505f4e146109ae5780638f2553e6146109e957806390e58b9c14610a13576103ad565b806339509351116102d75780635784969f1161026a5780637d64bcb4116102395780637d64bcb4146105655780637ee6b8cf1461092457806388db93a7146109665780638c4afaf614610999576103ad565b80635784969f1461087957806369d24f63146108a357806370a08231146108b857806379cc6790146108eb576103ad565b806342cbb15c116102a657806342cbb15c146107d1578063542a9c83146107e6578063544aeaf61461081c57806354ffa8ef1461084f576103ad565b806339509351146107025780633cebb8231461073b57806340c10f191461076e57806342966c68146107a7576103ad565b806318369a2a1161034f57806320147c6f1161031e57806320147c6f1461060157806323b872dd1461064357806330289c6114610686578063313ce567146106d7576103ad565b806318369a2a1461058f5780631b3ed722146105a45780631d718f04146105b95780631f19216f146105ec576103ad565b8063096d59dd1161038b578063096d59dd146105055780630ee976961461053b5780631249c58b1461056557806318160ddd1461057a576103ad565b806302a69e48146103e957806306fdde031461042e578063095ea7b3146104b8575b604051600160e51b62461bcd0281526004018080602001828103825260218152602001806137bf6021913960400191505060405180910390fd5b005b3480156103f557600080fd5b5061041c6004803603602081101561040c57600080fd5b50356001600160a01b0316610ed0565b60408051918252519081900360200190f35b34801561043a57600080fd5b50610443610fb7565b6040805160208082528351818301528351919283929083019185019080838360005b8381101561047d578181015183820152602001610465565b50505050905090810190601f1680156104aa5780820380516001836020036101000a031916815260200191505b509250505060405180910390f35b3480156104c457600080fd5b506104f1600480360360408110156104db57600080fd5b506001600160a01b03813516906020013561104d565b604080519115158252519081900360200190f35b34801561051157600080fd5b5061041c6004803603606081101561052857600080fd5b5080359060208101359060400135611064565b34801561054757600080fd5b506103e76004803603602081101561055e57600080fd5b50356110a4565b34801561057157600080fd5b506104f16111f1565b34801561058657600080fd5b5061041c61128a565b34801561059b57600080fd5b5061041c611290565b3480156105b057600080fd5b5061041c611296565b3480156105c557600080fd5b5061041c600480360360208110156105dc57600080fd5b50356001600160a01b031661129d565b3480156105f857600080fd5b5061041c6112af565b34801561060d57600080fd5b5061041c600480360360a081101561062457600080fd5b50803590602081013590604081013590606081013590608001356112b4565b34801561064f57600080fd5b506104f16004803603606081101561066657600080fd5b506001600160a01b03813581169160208101359091169060400135611367565b34801561069257600080fd5b506106b9600480360360208110156106a957600080fd5b50356001600160a01b03166113b9565b60408051938452602084019290925282820152519081900360600190f35b3480156106e357600080fd5b506106ec6113ea565b6040805160ff9092168252519081900360200190f35b34801561070e57600080fd5b506104f16004803603604081101561072557600080fd5b506001600160a01b0381351690602001356113f3565b34801561074757600080fd5b506103e76004803603602081101561075e57600080fd5b50356001600160a01b0316611434565b34801561077a57600080fd5b506104f16004803603604081101561079157600080fd5b506001600160a01b0381351690602001356114e5565b3480156107b357600080fd5b506103e7600480360360208110156107ca57600080fd5b5035611538565b3480156107dd57600080fd5b5061041c611545565b3480156107f257600080fd5b5061041c6004803603606081101561080957600080fd5b5080359060208101359060400135611549565b34801561082857600080fd5b5061041c6004803603602081101561083f57600080fd5b50356001600160a01b031661156e565b34801561085b57600080fd5b506103e76004803603602081101561087257600080fd5b5035611580565b34801561088557600080fd5b506103e76004803603602081101561089c57600080fd5b50356116cd565b3480156108af57600080fd5b5061041c61181a565b3480156108c457600080fd5b5061041c600480360360208110156108db57600080fd5b50356001600160a01b0316611820565b3480156108f757600080fd5b506103e76004803603604081101561090e57600080fd5b506001600160a01b03813516906020013561183b565b34801561093057600080fd5b5061041c600480360360a081101561094757600080fd5b5080359060208101359060408101359060608101359060800135611849565b34801561097257600080fd5b5061041c6004803603602081101561098957600080fd5b50356001600160a01b03166118e7565b3480156109a557600080fd5b5061041c611954565b3480156109ba57600080fd5b506103e7600480360360408110156109d157600080fd5b508035151590602001356001600160a01b031661195a565b3480156109f557600080fd5b506103e760048036036020811015610a0c57600080fd5b5035611abb565b348015610a1f57600080fd5b5061041c60048036036040811015610a3657600080fd5b5080359060200135611c06565b348015610a4f57600080fd5b50610443611c27565b348015610a6457600080fd5b506103e760048036036020811015610a7b57600080fd5b50356001600160a01b0316611c88565b348015610a9757600080fd5b506103e7611cd8565b348015610aac57600080fd5b506103e7611ce3565b348015610ac157600080fd5b5061041c611d21565b348015610ad657600080fd5b506104f160048036036040811015610aed57600080fd5b506001600160a01b038135169060200135611d27565b348015610b0f57600080fd5b5061041c60048036036020811015610b2657600080fd5b50356001600160a01b0316611d63565b348015610b4257600080fd5b506104f160048036036040811015610b5957600080fd5b506001600160a01b038135169060200135611d75565b348015610b7b57600080fd5b5061041c6120a9565b348015610b9057600080fd5b506104f160048036036020811015610ba757600080fd5b50356001600160a01b03166120af565b348015610bc357600080fd5b506103e760048036036020811015610bda57600080fd5b50356120c2565b348015610bed57600080fd5b50610bf661220f565b604080516001600160a01b039092168252519081900360200190f35b348015610c1e57600080fd5b5061041c61221e565b348015610c3357600080fd5b5061041c60048036036080811015610c4a57600080fd5b5080359060208101359060408101359060600135612224565b348015610c6f57600080fd5b5061041c60048036036040811015610c8657600080fd5b506001600160a01b03813581169160200135166122f8565b348015610caa57600080fd5b5061041c612323565b348015610cbf57600080fd5b506103e760048036036040811015610cd657600080fd5b5060ff81351690602001351515612329565b348015610cf457600080fd5b506103e760048036036020811015610d0b57600080fd5b50351515612434565b348015610d2057600080fd5b506103e760048036036020811015610d3757600080fd5b50356001600160a01b031661250a565b348015610d5357600080fd5b5061041c612670565b348015610d6857600080fd5b506103e760048036036020811015610d7f57600080fd5b5035612676565b348015610d9257600080fd5b506104f160048036036020811015610da957600080fd5b50356001600160a01b03166127c3565b348015610dc557600080fd5b506103e760048036036020811015610ddc57600080fd5b50356001600160a01b03166127d8565b348015610df857600080fd5b5061041c60048036036060811015610e0f57600080fd5b508035906020810135906040013561294b565b348015610e2e57600080fd5b50610bf6612972565b348015610e4357600080fd5b506103e760048036036020811015610e5a57600080fd5b50356001600160a01b0316612986565b348015610e7657600080fd5b5061041c60048036036020811015610e8d57600080fd5b50356001600160a01b0316612af1565b348015610ea957600080fd5b506103e760048036036020811015610ec057600080fd5b50356001600160a01b0316612d06565b6001600160a01b03811660009081526009602090815260408083205483835281842054600b909352908320548392610f0a92914390612224565b6001600160a01b03841660009081526020819052604081205491925090610f37908363ffffffff612e6e16565b6001600160a01b0385166000908152600a6020526040902054909150610f60579150610fb29050565b6000610f9a43600a6000886001600160a01b03166001600160a01b0316815260200190815260200160002054600854600e54600d54611849565b9050610fac828263ffffffff612ece16565b93505050505b919050565b60048054604080516020601f60026000196101006001881615020190951694909404938401819004810282018101909252828152606093909290918301828280156110435780601f1061101857610100808354040283529160200191611043565b820191906000526020600020905b81548152906001019060200180831161102657829003601f168201915b5050505050905090565b600061105a338484612f2b565b5060015b92915050565b60006305f5e10061109b8161108f85611083898963ffffffff61301d16565b9063ffffffff61301d16565b9063ffffffff61307916565b95945050505050565b60065461010090046001600160a01b031633146110f95760408051600160e51b62461bcd028152602060048201819052602482015260008051602061388a833981519152604482015290519081900360640190fd5b600654600290600160a81b900460ff161561114c5760408051600160e51b62461bcd02815260206004820181905260248201526000805160206138fb833981519152604482015290519081900360640190fd5b60078160ff166020811061115c57fe5b602081049091015460ff601f9092166101000a900416156111b55760408051600160e51b62461bcd02815260206004820181905260248201526000805160206138fb833981519152604482015290519081900360640190fd5b60118290556040805183815290517fb0eafbd7bf0dfd994828ccc4941e26d6153f03fa274641773364c469893ecb4d9181900360200190a15050565b60006111fc336120af565b61123a57604051600160e51b62461bcd0281526004018080602001828103825260308152602001806138aa6030913960400191505060405180910390fd5b60408051600160e51b62461bcd02815260206004820152601160248201527f46756e6374696f6e2064697361626c6564000000000000000000000000000000604482015290519081900360640190fd5b60025490565b600f5481565b620f424081565b600a6020526000908152604090205481565b600281565b60008415806112c1575081155b156112dd576112d6848463ffffffff612ece16565b905061109b565b60006113056112f2878963ffffffff612ece16565b61108f89620f424063ffffffff61301d16565b90506000611330611323620f424061108f888663ffffffff61301d16565b859063ffffffff612ece16565b9050611342868663ffffffff612ece16565b81111561135c57611359868663ffffffff612ece16565b90505b979650505050505050565b60408051600160e51b62461bcd02815260206004820152601560248201527f7472616e7366657246726f6d2064697361626c656400000000000000000000006044820152905160009181900360640190fd5b6001600160a01b031660009081526009602090815260408083205483835281842054600b9093529220549192909190565b60065460ff1690565b3360008181526001602090815260408083206001600160a01b0387168452909152812054909161105a91859061142f908663ffffffff612ece16565b612f2b565b60065461010090046001600160a01b031633146114895760408051600160e51b62461bcd028152602060048201819052602482015260008051602061388a833981519152604482015290519081900360640190fd5b600680546001600160a01b0383166101008102610100600160a81b03199092169190911790915560408051918252517fc0c3fe6333763f87ec50ad1366067ab6f03fd677c62f3c20e50e9446afd32ef69181900360200190a150565b60006114f0336120af565b61152e57604051600160e51b62461bcd0281526004018080602001828103825260308152602001806138aa6030913960400191505060405180910390fd5b61105a83836130e6565b61154233826131c7565b50565b4390565b60008061155c858563ffffffff612e6e16565b905061109b818463ffffffff61307916565b600b6020526000908152604090205481565b60065461010090046001600160a01b031633146115d55760408051600160e51b62461bcd028152602060048201819052602482015260008051602061388a833981519152604482015290519081900360640190fd5b600654600190600160a81b900460ff16156116285760408051600160e51b62461bcd02815260206004820181905260248201526000805160206138fb833981519152604482015290519081900360640190fd5b60078160ff166020811061163857fe5b602081049091015460ff601f9092166101000a900416156116915760408051600160e51b62461bcd02815260206004820181905260248201526000805160206138fb833981519152604482015290519081900360640190fd5b60108290556040805183815290517ffbcfe400d40f66821e607b6730b04c270d0db7c3896db24e37c8faf589b2dce29181900360200190a15050565b60065461010090046001600160a01b031633146117225760408051600160e51b62461bcd028152602060048201819052602482015260008051602061388a833981519152604482015290519081900360640190fd5b600654600590600160a81b900460ff16156117755760408051600160e51b62461bcd02815260206004820181905260248201526000805160206138fb833981519152604482015290519081900360640190fd5b60078160ff166020811061178557fe5b602081049091015460ff601f9092166101000a900416156117de5760408051600160e51b62461bcd02815260206004820181905260248201526000805160206138fb833981519152604482015290519081900360640190fd5b60088290556040805183815290517f8fb16ec2895927adc6e3a99733210699b27690fdccf3ccf84d2be61df915f9239181900360200190a15050565b60085481565b6001600160a01b031660009081526020819052604090205490565b6118458282613291565b5050565b600080611857878785611549565b9050600061186e620f42408763ffffffff61307916565b90506000611882828663ffffffff61301d16565b90506000611899620f42408363ffffffff612e6e16565b90506000805b858110156118d8576118ce896118c2620f424061108f868863ffffffff61301d16565b9063ffffffff612ece16565b915060010161189f565b509a9950505050505050505050565b6001600160a01b03811660009081526009602090815260408083205483835281842054600b90935290832054839261192192914390612224565b6001600160a01b03841660009081526020819052604090205490915061194d908263ffffffff612e6e16565b9392505050565b60135481565b60065461010090046001600160a01b031633146119af5760408051600160e51b62461bcd028152602060048201819052602482015260008051602061388a833981519152604482015290519081900360640190fd5b600654600890600160a81b900460ff1615611a025760408051600160e51b62461bcd02815260206004820181905260248201526000805160206138fb833981519152604482015290519081900360640190fd5b60078160ff1660208110611a1257fe5b602081049091015460ff601f9092166101000a90041615611a6b5760408051600160e51b62461bcd02815260206004820181905260248201526000805160206138fb833981519152604482015290519081900360640190fd5b600183151514611aaf57604051600160e51b62461bcd02815260040180806020018281038252603081526020018061385a6030913960400191505060405180910390fd5b816001600160a01b0316ff5b60065461010090046001600160a01b03163314611b105760408051600160e51b62461bcd028152602060048201819052602482015260008051602061388a833981519152604482015290519081900360640190fd5b600654600490600160a81b900460ff1615611b635760408051600160e51b62461bcd02815260206004820181905260248201526000805160206138fb833981519152604482015290519081900360640190fd5b60078160ff1660208110611b7357fe5b602081049091015460ff601f9092166101000a90041615611bcc5760408051600160e51b62461bcd02815260206004820181905260248201526000805160206138fb833981519152604482015290519081900360640190fd5b604051600160e51b62461bcd02815260040180806020018281038252604081526020018061395c6040913960400191505060405180910390fd5b6000612710611c1f8161108f868663ffffffff61301d16565b949350505050565b60058054604080516020601f60026000196101006001881615020190951694909404938401819004810282018101909252828152606093909290918301828280156110435780601f1061101857610100808354040283529160200191611043565b611c91336120af565b611ccf57604051600160e51b62461bcd0281526004018080602001828103825260308152602001806138aa6030913960400191505060405180910390fd5b611542816132d6565b611ce13361331e565b565b6013805460010190556040805143815290517f4229d50c63dbdc5551dd68e0a9879b01ac250cb31feaeba7588533462e6c7aaa9181900360200190a1565b60115481565b3360008181526001602090815260408083206001600160a01b0387168452909152812054909161105a91859061142f908663ffffffff612e6e16565b60096020526000908152604090205481565b600080600060008051602061393c833981519152611d9233611820565b604080516020810192909252808252601c828201527f53656e6465722062616c616e6365206265666f726520757064617465000000006060830152519081900360800190a16000611de233612af1565b905060008051602061393c833981519152611dfc33611820565b604080516020810192909252808252601b828201527f53656e6465722062616c616e63652061667465722075706461746500000000006060830152519081900360800190a160008051602061393c833981519152611e5987611820565b604080516020810192909252808252601f828201527f526563697069656e742062616c616e6365206265666f726520757064617465006060830152519081900360800190a16000611ea987612af1565b905060008051602061393c833981519152611ec388611820565b604080516020810192909252808252601e828201527f526563697069656e742062616c616e63652061667465722075706461746500006060830152519081900360800190a133600090815260208190526040902054861115611f5957604051600160e51b62461bcd0281526004018080602001828103825260238152602001806139ff6023913960400191505060405180910390fd5b611f6886601154601054613366565b90945092506000611f8f84611f83898863ffffffff612e6e16565b9063ffffffff612e6e16565b6001600160a01b03891660009081526020818152604080832054600854600b909352922054929350611fc59284929143916112b4565b6001600160a01b0389166000908152600b6020908152604080832093909355600990522054431461200c576001600160a01b03881660009081526009602052604090204390555b336000908152600960205260409020544314612035573360009081526009602052604090204390555b61203f888261341e565b506040805182815260208101879052808201869052606081018590526080810184905290516001600160a01b038a169133917fa3c1c81272d3f33b878008270aebb295c7ed4cdf3012646ea120616d132086219181900360a00190a3506001979650505050505050565b600e5490565b600061105e60038363ffffffff61342b16565b60065461010090046001600160a01b031633146121175760408051600160e51b62461bcd028152602060048201819052602482015260008051602061388a833981519152604482015290519081900360640190fd5b600654600390600160a81b900460ff161561216a5760408051600160e51b62461bcd02815260206004820181905260248201526000805160206138fb833981519152604482015290519081900360640190fd5b60078160ff166020811061217a57fe5b602081049091015460ff601f9092166101000a900416156121d35760408051600160e51b62461bcd02815260206004820181905260248201526000805160206138fb833981519152604482015290519081900360640190fd5b600e8290556040805183815290517f430ef2291775088707f0aed2cc1058fee3b7f2f99b10dfa4107d1509b86da3f59181900360200190a15050565b6012546001600160a01b031681565b60105481565b60008483101561226857604051600160e51b62461bcd02815260040180806020018281038252602f81526020018061382b602f913960400191505060405180910390fd5b8161227557506000611c1f565b818310612283575082611c1f565b6000612295848763ffffffff612e6e16565b9050806122a6576000915050611c1f565b60006122b8848863ffffffff612e6e16565b905060006122d38261108f85620f424063ffffffff61301d16565b90506122ec620f424061108f898463ffffffff61301d16565b98975050505050505050565b6001600160a01b03918216600090815260016020908152604080832093909416825291909152205490565b600e5481565b60065461010090046001600160a01b0316331461237e5760408051600160e51b62461bcd028152602060048201819052602482015260008051602061388a833981519152604482015290519081900360640190fd5b6001811515146123c257604051600160e51b62461bcd02815260040180806020018281038252604b8152602001806137e0604b913960600191505060405180910390fd5b600160078360ff16602081106123d457fe5b602091828204019190066101000a81548160ff0219169083151502179055507f0a1c4fbbe900dd991589095fcecc99c37b45915eb6e6574e7398954e874bbebe82604051808260ff1660ff16815260200191505060405180910390a15050565b60065461010090046001600160a01b031633146124895760408051600160e51b62461bcd028152602060048201819052602482015260008051602061388a833981519152604482015290519081900360640190fd5b806124c857604051600160e51b62461bcd02815260040180806020018281038252605f815260200180613a46605f913960600191505060405180910390fd5b60068054600160a81b60ff021916600160a81b1790556040517f3f6efc34971655abc7da08a1bf5e861a7e41e21c617aa42f0a9e1643ed4c199d90600090a150565b60065461010090046001600160a01b0316331461255f5760408051600160e51b62461bcd028152602060048201819052602482015260008051602061388a833981519152604482015290519081900360640190fd5b600654600090600160a81b900460ff16156125b25760408051600160e51b62461bcd02815260206004820181905260248201526000805160206138fb833981519152604482015290519081900360640190fd5b60078160ff16602081106125c257fe5b602081049091015460ff601f9092166101000a9004161561261b5760408051600160e51b62461bcd02815260206004820181905260248201526000805160206138fb833981519152604482015290519081900360640190fd5b601280546001600160a01b0384166001600160a01b0319909116811790915560408051918252517f41ac1fb38d2383f4a7a06cb5a6cc6e099612e9f8835233773dfd98ef487f0bb09181900360200190a15050565b600d5481565b60065461010090046001600160a01b031633146126cb5760408051600160e51b62461bcd028152602060048201819052602482015260008051602061388a833981519152604482015290519081900360640190fd5b600654600890600160a81b900460ff161561271e5760408051600160e51b62461bcd02815260206004820181905260248201526000805160206138fb833981519152604482015290519081900360640190fd5b60078160ff166020811061272e57fe5b602081049091015460ff601f9092166101000a900416156127875760408051600160e51b62461bcd02815260206004820181905260248201526000805160206138fb833981519152604482015290519081900360640190fd5b600f8290556040805183815290517ffe907f1e713307f4d281f5c3f23673f83fb7c0ae005ff34aec76633abc90ab8c9181900360200190a15050565b600c6020526000908152604090205460ff1681565b60065461010090046001600160a01b0316331461282d5760408051600160e51b62461bcd028152602060048201819052602482015260008051602061388a833981519152604482015290519081900360640190fd5b6001600160a01b0381166000908152600c60205260409020805460ff19166001179055600f541580159061287757506001600160a01b038116600090815260096020526040902054155b156128f75761288881600f546130e6565b600f5460408051918252516001600160a01b038316917f0f6798a560793a54c3bcfe86a93cde1e73087d944c0ea20544137d4121396885919081900360200190a26008546128dd90439063ffffffff612ece16565b6001600160a01b0382166000908152600b60205260409020555b6001600160a01b0381166000818152600a602090815260408083204390819055600990925280832091909155517f619bf7388c3d01e96351d15ea181010fb3ae477b7d27b1bf9a40d0f9ac526f659190a250565b600061271061109b61295e868686611064565b611f838361108f898963ffffffff61301d16565b60065461010090046001600160a01b031681565b60065461010090046001600160a01b031633146129db5760408051600160e51b62461bcd028152602060048201819052602482015260008051602061388a833981519152604482015290519081900360640190fd5b600654600790600160a81b900460ff1615612a2e5760408051600160e51b62461bcd02815260206004820181905260248201526000805160206138fb833981519152604482015290519081900360640190fd5b60078160ff1660208110612a3e57fe5b602081049091015460ff601f9092166101000a90041615612a975760408051600160e51b62461bcd02815260206004820181905260248201526000805160206138fb833981519152604482015290519081900360640190fd5b6001600160a01b0382166000818152600c60209081526040808320805460ff19166001179055600a909152808220439055517f0b3bb3963a5b889b711093b9a0d54f9532f011b9f7212e68e205e4d91c1de5c59190a25050565b6001600160a01b03811660009081526009602090815260408083205483835281842054600b909352908320548392612b2b92914390612224565b905060008115612b8557612b3f8483613495565b6040805184815290519192506001600160a01b038616917f6f74b3eca06b903fc0adcd210776d0305bc65bde19c82200f70329eec3f1e5669181900360200190a2612ba0565b506001600160a01b0383166000908152602081905260409020545b6001600160a01b0384166000908152600c602052604081205460ff1615612ccf57612bf943600a6000886001600160a01b03166001600160a01b0316815260200190815260200160002054600854600e54600d54611849565b90508015612ccf57612c0b85826130e6565b6040805182815290516001600160a01b038716917fd5ee6b7d9a8d86ee35109671b287d23a05380d802f4a327dea2a68231378c689919081900360200190a2600d546001600160a01b0386166000908152600a6020526040902054612c77919061108390439083611549565b6001600160a01b0386166000908152600a602090815260408083208054909401909355600854600b90915291902054612cb5918391859143916112b4565b6001600160a01b0386166000908152600b60205260409020555b6000831180612cde5750600081115b15611c1f576001600160a01b0385166000908152600960205260409020439055949350505050565b60065461010090046001600160a01b03163314612d5b5760408051600160e51b62461bcd028152602060048201819052602482015260008051602061388a833981519152604482015290519081900360640190fd5b60068054600160a81b900460ff1615612dac5760408051600160e51b62461bcd02815260206004820181905260248201526000805160206138fb833981519152604482015290519081900360640190fd5b60078160ff1660208110612dbc57fe5b602081049091015460ff601f9092166101000a90041615612e155760408051600160e51b62461bcd02815260206004820181905260248201526000805160206138fb833981519152604482015290519081900360640190fd5b6001600160a01b0382166000818152600c6020908152604091829020805460ff19169055815192835290517ffc15dd3f26943a069c0abb77db936db2118c5826d2c99ce8d90290a5073559bd9281900390910190a15050565b600082821115612ec85760408051600160e51b62461bcd02815260206004820152601e60248201527f536166654d6174683a207375627472616374696f6e206f766572666c6f770000604482015290519081900360640190fd5b50900390565b60008282018381101561194d5760408051600160e51b62461bcd02815260206004820152601b60248201527f536166654d6174683a206164646974696f6e206f766572666c6f770000000000604482015290519081900360640190fd5b6001600160a01b038316612f7357604051600160e51b62461bcd028152600401808060200182810382526024815260200180613a226024913960400191505060405180910390fd5b6001600160a01b038216612fbb57604051600160e51b62461bcd02815260040180806020018281038252602281526020018061379d6022913960400191505060405180910390fd5b6001600160a01b03808416600081815260016020908152604080832094871680845294825291829020859055815185815291517f8c5be1e5ebec7d5bd14f71427d1e84f3dd0314c0f7b2291e5b200ac8c7c3b9259281900390910190a3505050565b60008261302c5750600061105e565b8282028284828161303957fe5b041461194d57604051600160e51b62461bcd02815260040180806020018281038252602181526020018061391b6021913960400191505060405180910390fd5b60008082116130d25760408051600160e51b62461bcd02815260206004820152601a60248201527f536166654d6174683a206469766973696f6e206279207a65726f000000000000604482015290519081900360640190fd5b60008284816130dd57fe5b04949350505050565b6001600160a01b0382166131445760408051600160e51b62461bcd02815260206004820152601f60248201527f45524332303a206d696e7420746f20746865207a65726f206164647265737300604482015290519081900360640190fd5b600254613157908263ffffffff612ece16565b6002556001600160a01b038216600090815260208190526040902054613183908263ffffffff612ece16565b6001600160a01b0383166000818152602081815260408083209490945583518581529351929391926000805160206139be8339815191529281900390910190a35050565b6001600160a01b03821661320f57604051600160e51b62461bcd0281526004018080602001828103825260218152602001806139de6021913960400191505060405180910390fd5b600254613222908263ffffffff612e6e16565b6002556001600160a01b03821660009081526020819052604090205461324e908263ffffffff612e6e16565b6001600160a01b038316600081815260208181526040808320949094558351858152935191936000805160206139be833981519152929081900390910190a35050565b61329b82826131c7565b6001600160a01b03821660009081526001602090815260408083203380855292529091205461184591849161142f908563ffffffff612e6e16565b6132e760038263ffffffff61359d16565b6040516001600160a01b038216907f6ae172837ea30b801fbfcdd4108aa1d5bf8ff775444fd70256b44e6bf3dfc3f690600090a250565b61332f60038263ffffffff61362116565b6040516001600160a01b038216907fe94479a9f7e1952cc78f2d6baab678adc1b772d936c6583def489e524cb6669290600090a250565b60008060006133758686611c06565b90506000613384878787611064565b9050600061339388888861294b565b90506133a5828263ffffffff612ece16565b83146133e557604051600160e51b62461bcd02815260040180806020018281038252603a815260200180613aa5603a913960400191505060405180910390fd5b80156133f4576133f481611538565b811561341257601254613410906001600160a01b03168361341e565b505b97909650945050505050565b600061105a33848461368b565b60006001600160a01b03821661347557604051600160e51b62461bcd02815260040180806020018281038252602281526020018061399c6022913960400191505060405180910390fd5b506001600160a01b03166000908152602091909152604090205460ff1690565b6001600160a01b0382166000908152602081905260408120548211156134ba57600080fd5b6001600160a01b0383166000908152602081905260409020546134e3908363ffffffff612e6e16565b6001600160a01b03841660009081526020819052604090205560025461350f908363ffffffff612e6e16565b6002556040805183815290516001600160a01b038516917fcc16f5dbb4873280815c1ee09dbd06736cffcc184412cf7a71a0fdb75d397ca5919081900360200190a26040805183815290516000916001600160a01b038616916000805160206139be8339815191529181900360200190a350506001600160a01b031660009081526020819052604090205490565b6135a7828261342b565b156135fc5760408051600160e51b62461bcd02815260206004820152601f60248201527f526f6c65733a206163636f756e7420616c72656164792068617320726f6c6500604482015290519081900360640190fd5b6001600160a01b0316600090815260209190915260409020805460ff19166001179055565b61362b828261342b565b61366957604051600160e51b62461bcd0281526004018080602001828103825260218152602001806138da6021913960400191505060405180910390fd5b6001600160a01b0316600090815260209190915260409020805460ff19169055565b6001600160a01b0382166136d357604051600160e51b62461bcd02815260040180806020018281038252602381526020018061377a6023913960400191505060405180910390fd5b6001600160a01b0383166000908152602081905260409020546136fc908263ffffffff612e6e16565b6001600160a01b038085166000908152602081905260408082209390935590841681522054613731908263ffffffff612ece16565b6001600160a01b038084166000818152602081815260409182902094909455805185815290519193928716926000805160206139be83398151915292918290030190a350505056fe45524332303a207472616e7366657220746f20746865207a65726f206164647265737345524332303a20617070726f766520746f20746865207a65726f2061646472657373446f206e6f742073656e64206d6f6e657920746f2074686520636f6e7472616374546869732077696c6c207065726d616e656e746c792064697361626c652066756e6374696f6e2c20706c6561736520736574205f636f6e6669726d3d7472756520746f20636f6e6669726d43757272656e7420626c6f636b206d757374206265203e3d206c617374207472616e73616374696f6e20626c6f636b506c6561736520636f6e6669726d20796f752077616e7420746f2064657374726f79207468697320636f6e7472616374436f6e74726f6c6c6572206163636f756e742f636f6e7472616374206f6e6c794d696e746572526f6c653a2063616c6c657220646f6573206e6f74206861766520746865204d696e74657220726f6c65526f6c65733a206163636f756e7420646f6573206e6f74206861766520726f6c6546756e6374696f6e206675736520686173206265656e20747269676765726564536166654d6174683a206d756c7469706c69636174696f6e206f766572666c6f77dd970dd9b5bfe707922155b058a407655cb18288b807e2216442bca8ad83d6b543757272656e746c79206e6f7420706f737369626c6520746f206368616e67652067656e65726174696f6e20706572696f64206166746572206465706c6f792e526f6c65733a206163636f756e7420697320746865207a65726f2061646472657373ddf252ad1be2c89b69c2b068fc378daa952ba7f163c4a11628f55a4df523b3ef45524332303a206275726e2066726f6d20746865207a65726f20616464726573734e6f7420656e6f7567682062616c616e636520746f206d616b65207472616e7366657245524332303a20617070726f76652066726f6d20746865207a65726f2061646472657373546869732077696c6c207065726d616e656e746c792064697361626c652066756e6374696f6e20616c6c2066757365642066756e6374696f6e732c20706c6561736520736574205f636f6e6669726d3d7472756520746f20636f6e6669726d66656573496e63436f6e747269627574696f6e2073686f756c6420657175616c20636f6e747269627574696f6e202b2066656573546f4275726ea165627a7a723058203c64b9eefa089f5339ebe9a0e526830875da9345dff71371dd4cedcdd07b8cf20029526f6c65733a206163636f756e7420697320746865207a65726f2061646472657373",
  "source": "pragma solidity ^0.5.8;\n\n/**\n    @title An open source smart contract for a UBI token with demurrage that\n        gives control of the currency to the community.\n    @author The Value Instrument Team\n    @notice In the current form, the contract does not use a decentralised\n        approach to identification. It relies on the use of the key associated\n        with the 'community' address as a special account that confirms the\n        validity of a particular person. For example, a community like enkel\n        would confirm that we know who \"Bob Smith\" is, and that he doesn't have\n        an account already. The community handles the processes of verifying\n        participants, and is responsible for any KYC process that may be\n        required now or in the future. We don't know what laws apply to the\n        deployment and use of this smart contract.\n    @dev This contract was developed for solc 0.5.8\n    @dev Contract prioritised readability and testability over performance and\n        minimisation of gas. Performance tweaking can come later.\n*/\n\nimport \"./lib/openzeppelin-solidity/contracts/token/ERC20/ERC20Mintable.sol\";\nimport \"./lib/openzeppelin-solidity/contracts/token/ERC20/ERC20Burnable.sol\";\nimport \"./lib/openzeppelin-solidity/contracts/token/ERC20/ERC20Detailed.sol\";\nimport \"./lib/openzeppelin-solidity/contracts/math/Math.sol\";\nimport \"./FusedController.sol\";\n\n\n/// @notice One contract is deployed for each community\n/// @dev Based on openzeppelin's burnable and mintable ERC20 tokens\ncontract VICoin is\n    ERC20Mintable,\n    ERC20Burnable,\n    ERC20Detailed,\n    FusedController\n{\n    using SafeMath for uint256;\n    using SafeMath for int256;\n\n    // 1. Limited lifetime (decayed tokens)\n\n    uint256 public lifetime;\n    // number of blocks until balance decays to zero\n    mapping(address => uint256) public lastTransactionBlock;\n    // last incoming transaction\n    mapping(address => uint256) public lastGenerationBlock;\n    // last generation received\n    mapping(address => uint256) public zeroBlock;\n    // current 0 balance block\n\n    // 2. Generation (new tokens)\n\n    mapping(address => bool) public accountApproved;\n    // is the account approved to receive generation\n    uint256 public generationPeriod;\n    // blocks between each generation period\n    uint256 public generationAmount;\n    // tokens issued to each account at each generation period\n    uint256 public initialBalance;\n    // starting balance for a new account\n\n    // 3. Fees and contribution\n    uint256 public communityContribution;\n    // contribution % taken from the transaction fee on every transfer\n    uint256 public transactionFee;\n    // transaction fee % taken from every transfer\n    address public communityContributionAccount;\n    // account that receives the contribution payments\n\n    // Constants\n    uint256 public constant multiplier = 10**6;\n    // accuracy for floating point multiplication\n    uint256 public constant contributionFeeDecimals = 2;\n    // number of decimal places for contribution and fee %\n\n    // Testing\n    uint256 public blocksMined;\n    // blocks mined manually (for testing)\n\n    // Events:\n    event TransferSummary(\n        address indexed from,\n        address indexed to,\n        uint256 value,\n        uint256 feesBurned,\n        uint256 contribution,\n        uint256 payoutSender,\n        uint256 payoutRecipient\n    );\n    event IncomeReceived(address indexed _account, uint256 _income);\n    event Decay(address indexed _account, uint256 _decay);\n    event Mint(address indexed to, uint256 value);\n    event VerifyAccount(address indexed _account);\n    event Burn(address indexed to, uint256 value);\n    event ApproveAccount(address indexed _account);\n    event UnapproveAccount(address _account);\n    event UpdateLifetime(uint256 _lifetime);\n    event UpdateInitialBalance(uint256 _initialBalance);\n    event UpdateGenerationAmount(uint256 _generationAmount);\n    event UpdateGenerationPeriod(uint256 _generationPeriod);\n    event UpdateCommunityContributionAccount(\n        address _newCommunityContributionAccount\n    );\n    event UpdateTransactionFee(uint256 _transactionFee);\n    event UpdateCommunityContribution(uint256 _communityContribution);\n    event Mined(uint256 _block);\n    event Log(string _name, uint256 _value);\n\n    constructor(\n        string memory _name,\n        string memory _symbol,\n        uint8 _decimals,\n        uint256 _lifetime,\n        uint256 _generationAmount,\n        uint256 _generationPeriod,\n        uint256 _communityContribution,\n        uint256 _transactionFee,\n        uint256 _initialBalance,\n        address _communityContributionAccount,\n        address _controller\n    )\n        public\n        ERC20Detailed(_name, _symbol, _decimals)\n        FusedController(_controller)\n    {\n        lifetime = _lifetime;\n        generationAmount = _generationAmount;\n        generationPeriod = _generationPeriod;\n        communityContribution = _communityContribution;\n        transactionFee = _transactionFee;\n        initialBalance = _initialBalance;\n        communityContributionAccount = _communityContributionAccount;\n        if (communityContributionAccount == address(0))\n            communityContributionAccount = msg.sender;\n    }\n\n    function() external payable {\n        require(1 == 2, \"Do not send money to the contract\");\n    }\n\n    /** @notice Calculate the number of generation periods since the last\n            generation block\n        @return The number of completed periods since last generation block*/\n    function calcNumCompletedPeriods(\n        uint256 _blockNumber,\n        uint256 _lastGenerationBlock,\n        uint256 _generationPeriod\n    ) public pure returns (uint256) {\n        uint256 blocksSinceLastGeneration = _blockNumber.sub(\n            _lastGenerationBlock\n        );\n        return blocksSinceLastGeneration.div(_generationPeriod);\n    }\n\n    /// @notice Manually trigger an onchain update of the live balance\n    function triggerOnchainBalanceUpdate(address _account) public returns (uint256) {\n        // 1. Decay the balance\n        uint256 decay = calcDecay(\n            lastTransactionBlock[_account],\n            _balances[_account],\n            block.number,\n            zeroBlock[_account]\n        );\n        uint256 decayedBalance;\n        if (decay > 0) {\n            decayedBalance = burnAt(_account, decay);\n            emit Decay(_account, decay);\n        } else {\n            decayedBalance = _balances[_account];\n        }\n\n        // 2. Generate tokens\n        uint256 generationAccrued;\n        if (accountApproved[_account]) {\n            // Calculate the accrued generation, taking into account decay\n            generationAccrued = calcGeneration(\n                block.number,\n                lastGenerationBlock[_account],\n                lifetime,\n                generationAmount,\n                generationPeriod\n            );\n\n            if (generationAccrued > 0) {\n                // Issue the generated tokens\n                _mint(_account, generationAccrued);\n                emit IncomeReceived(_account, generationAccrued);\n\n                // Record the last generation block\n                lastGenerationBlock[_account] += calcNumCompletedPeriods(\n                    block\n                        .number,\n                    lastGenerationBlock[_account],\n                    generationPeriod\n                )\n                    .mul(generationPeriod);\n\n                // Extend the zero block\n                zeroBlock[_account] = calcZeroBlock(\n                    generationAccrued,\n                    decayedBalance,\n                    block.number,\n                    lifetime,\n                    zeroBlock[_account]\n                );\n            }\n        }\n        // Record the last transaction block\n        if (decay > 0 || generationAccrued > 0) {\n            lastTransactionBlock[_account] = block.number;\n        }\n        return generationAccrued;\n    }\n\n    /** @notice Calculate the generation accrued since the last generation\n            period\n        @dev This function contains a for loop, so in theory may fail for\n            accounts that have been inactive for an extremely long time. These\n            accounts will have zero balance anyway. */\n    function calcGeneration(\n        uint256 _blockNumber,\n        uint256 _lastGenerationBlock,\n        uint256 _lifetime,\n        uint256 _generationAmount,\n        uint256 _generationPeriod\n    ) public pure returns (uint256) {\n        uint256 numCompletePeriods = calcNumCompletedPeriods(\n            _blockNumber,\n            _lastGenerationBlock,\n            _generationPeriod\n        );\n\n        uint256 decayPerBlock = multiplier.div(_lifetime);\n        uint256 decayPerGenerationPeriod = decayPerBlock.mul(_generationPeriod);\n        uint256 remainingPerGenerationPeriod = multiplier.sub(\n            decayPerGenerationPeriod\n        );\n\n        uint256 generation;\n        for (uint256 i; i < numCompletePeriods; i++) {\n            generation = generation\n                .mul(remainingPerGenerationPeriod)\n                .div(multiplier)\n                .add(_generationAmount);\n        }\n        return generation;\n    }\n\n    /** @notice Return the real balance of the account, as of this block\n        @return Latest balance */\n    function liveBalanceOf(address _account) public view returns (uint256) {\n        uint256 decay = calcDecay(\n            lastTransactionBlock[_account],\n            _balances[_account],\n            block.number,\n            zeroBlock[_account]\n        );\n        uint256 decayedBalance = _balances[_account].sub(decay);\n        if (lastGenerationBlock[_account] == 0) {\n            return (decayedBalance);\n        }\n        uint256 generationAccrued = calcGeneration(\n            block.number,\n            lastGenerationBlock[_account],\n            lifetime,\n            generationAmount,\n            generationPeriod\n        );\n        return decayedBalance.add(generationAccrued);\n    }\n\n    /** @notice Return the balance including decay up to the current block,\n                but ignoring any accrued generation\n        @return Balance after decay */\n    function getDecayedBalance(address _account) public view returns (uint256) {\n        uint256 decay = calcDecay(\n            lastTransactionBlock[_account],\n            _balances[_account],\n            block.number,\n            zeroBlock[_account]\n        );\n        return _balances[_account].sub(decay);\n    }\n\n    /////////////////\n    // Transfer\n    /////////////////\n\n    /** @notice Transfer the currency from one account to another,\n                updating each account to reflect the time passed, and the\n                effects of the transfer\n        @return Success */\n    function transfer(address _to, uint256 _value) public returns (bool) {\n        uint256 feesBurned;\n        uint256 contribution;\n        // Process generation and decay for sender\n        emit Log(\"Sender balance before update\", balanceOf(msg.sender));\n        uint256 generationAccruedSender = triggerOnchainBalanceUpdate(msg.sender);\n        emit Log(\"Sender balance after update\", balanceOf(msg.sender));\n\n        // Process generation and decay for recipient\n        emit Log(\"Recipient balance before update\", balanceOf(_to));\n        uint256 generationAccruedRecipient = triggerOnchainBalanceUpdate(_to);\n        emit Log(\"Recipient balance after update\", balanceOf(_to));\n\n        require(\n            _balances[msg.sender] >= _value,\n            \"Not enough balance to make transfer\"\n        );\n\n        // Process fees and contribution\n        (feesBurned, contribution) = processFeesAndContribution(\n            _value,\n            transactionFee,\n            communityContribution\n        );\n        // uint feesAndContribution = processFeesAndContribution(\n        //     _value,\n        //     transactionFee,\n        //     communityContribution\n        // );\n        uint256 valueAfterFees = _value.sub(feesBurned).sub(contribution);\n\n        //Extend zero block based on transfer\n        zeroBlock[_to] = calcZeroBlock(\n            valueAfterFees,\n            _balances[_to],\n            block.number,\n            lifetime,\n            zeroBlock[_to]\n        );\n\n        /* If they haven't already been updated (during decay or generation),\n            then update the lastTransactionBlock for both sender and recipient */\n        if (lastTransactionBlock[_to] != block.number) {\n            lastTransactionBlock[_to] = block.number;\n        }\n        if (lastTransactionBlock[msg.sender] != block.number) {\n            lastTransactionBlock[msg.sender] = block.number;\n        }\n\n        super.transfer(_to, valueAfterFees);\n        emit TransferSummary(\n            msg.sender,\n            _to,\n            valueAfterFees,\n            feesBurned,\n            contribution,\n            generationAccruedSender,\n            generationAccruedRecipient\n        );\n        return true;\n    }\n\n    /// @notice transferFrom disabled\n    function transferFrom(\n        address,\n        address,\n        uint256\n    ) public returns (bool) {\n        revert(\"transferFrom disabled\");\n    }\n\n    /////////////////\n    // Contributiones and fees\n    /////////////////\n\n    /** @notice Calculate the contribution due. Contribution is a percentage taken from the fee\n        @dev Percentage to x dp as defined by contributionFeeDecimals e.g.\n            when contributionFeeDecimals is 2, 1200 is 12.00%\n        @return Tokens to pay as contribution */\n    function calcContribution(\n        uint256 _value,\n        uint256 _feeRate,\n        uint256 _contributionRate\n    ) public pure returns (uint256) {\n        uint256 contributionFeeMultiplier = (100 *\n            10**contributionFeeDecimals)**2;\n        return\n            _value.mul(_feeRate).mul(_contributionRate).div(\n                contributionFeeMultiplier\n            );\n    }\n\n    /** @notice Calculate fees to burn. This is the fee % minus the contribution due\n        @dev Percentage to x dp as defined by contributionFeeDecimals e.g.\n            when contributionFeeDecimals is 2, 1200 is 12.00%\n        @return Tokens to burn as fees */\n    function calcFeesToBurn(\n        uint256 _value,\n        uint256 _feeRate,\n        uint256 _contributionRate\n    ) public pure returns (uint256) {\n        uint256 contributionFeeMultiplier = 100 * 10**contributionFeeDecimals;\n        return\n            _value.mul(_feeRate).div(contributionFeeMultiplier).sub(\n                calcContribution(_value, _feeRate, _contributionRate)\n            );\n    }\n\n    /** @notice Calculate the total amount allocated for both fees and contribution\n            Contribution % is not relavent as contributiones are taken from the fee\n        @dev Percentage to x dp as defined by contributionFeeDecimals e.g.\n            when contributionFeeDecimals is 2, 1200 is 12.00%\n        @return Tokens to cover fees, inclusive of contribution */\n    function calcFeesIncContribution(uint256 _value, uint256 _feeRate)\n        public\n        pure\n        returns (uint256)\n    {\n        uint256 contributionFeeMultiplier = 100 * 10**contributionFeeDecimals;\n        return _value.mul(_feeRate).div(contributionFeeMultiplier);\n    }\n\n    /** @notice Calculate the fees and contribution, send contribution to the communtiy account,\n            and burn the fees\n        @dev Percentage to x dp as defined by contributionFeeDecimals e.g.\n            when contributionFeeDecimals is 2, 1200 is 12.00%\n        @return The total amount used for fees and contribution */\n    function processFeesAndContribution(\n        uint256 _value,\n        uint256 _transactionFee,\n        uint256 _communityContribution\n    ) internal returns (uint256, uint256) {\n        uint256 feesIncContribution = calcFeesIncContribution(\n            _value,\n            _transactionFee\n        );\n        uint256 contribution = calcContribution(\n            _value,\n            _transactionFee,\n            _communityContribution\n        );\n        uint256 feesToBurn = calcFeesToBurn(\n            _value,\n            _transactionFee,\n            _communityContribution\n        );\n        require(\n            feesIncContribution == contribution.add(feesToBurn),\n            \"feesIncContribution should equal contribution + feesToBurn\"\n        );\n\n        if (feesToBurn > 0) {\n            burn(feesToBurn);\n        }\n\n        if (contribution > 0) {\n            super.transfer(communityContributionAccount, contribution);\n        }\n\n        return (feesToBurn, contribution);\n    }\n\n    ///////////////////////\n    // Decay\n    ///////////////////////\n\n    /// @notice Used only for debugging\n    function getDetails(address _account)\n        public\n        view\n        returns (\n            uint256 _lastBlock,\n            uint256 _balance,\n            uint256 _zeroBlock\n        )\n    {\n        _lastBlock = lastTransactionBlock[_account];\n        _balance = _balances[_account];\n        _zeroBlock = zeroBlock[_account];\n    }\n\n    /////////////////\n    // Burn / Decay\n    /////////////////\n\n    /** @notice Calculate the block at which the balance for this account will\n            be zero\n        @return Block at which balance is 0 */\n    function calcZeroBlock(\n        uint256 _value,\n        uint256 _balance,\n        uint256 _blockNumber,\n        uint256 _lifetime,\n        uint256 _originalZeroBlock\n    ) public pure returns (uint256) {\n        if (_balance == 0 || _originalZeroBlock == 0) {\n            // No other transaction to consider, so use the full lifetime\n            return _blockNumber.add(_lifetime);\n        }\n\n        /* transactionWeight is the ratio of the transfer value to the total\n            balance after the transfer */\n        uint256 transactionWeight = _value.mul(multiplier).div(\n            _balance.add(_value)\n        );\n\n        /* multiply the full lifetime by this ratio, and add\n            the result to the original zero block */\n        uint256 newZeroBlock = _originalZeroBlock.add(\n            _lifetime.mul(transactionWeight).div(multiplier)\n        );\n\n        if (newZeroBlock > _blockNumber.add(_lifetime)) {\n            newZeroBlock = _blockNumber.add(_lifetime);\n        }\n        return newZeroBlock;\n    }\n\n    /** @notice Burn balance at the specified address\n        @return Balance after the burn */\n    function burnAt(address _recipient, uint256 _value)\n        internal\n        returns (uint256)\n    {\n        require(_value <= _balances[_recipient]);\n        _balances[_recipient] = _balances[_recipient].sub(_value);\n        _totalSupply = _totalSupply.sub(_value);\n        emit Burn(_recipient, _value);\n        emit Transfer(_recipient, address(0), _value);\n        return _balances[_recipient];\n    }\n\n    /** @notice Calculate the number of tokens decayed since the last transaction\n        @return Number of tokens decayed since last transaction */\n    function calcDecay(\n        uint256 _lastTransactionBlock,\n        uint256 _balance,\n        uint256 _thisBlock,\n        uint256 _zeroBlock\n    ) public pure returns (uint256) {\n        require(\n            _thisBlock >= _lastTransactionBlock,\n            \"Current block must be >= last transaction block\"\n        );\n\n        // If zero block has not been set, decay = 0\n        if (_zeroBlock == 0) {\n            return 0;\n        }\n\n        // If zero block passed, decay all\n        if (_thisBlock >= _zeroBlock) {\n            return _balance;\n        }\n\n        // If no blocks passed since last transfer, nothing to decay\n        uint256 blocksSinceLast = _thisBlock.sub(_lastTransactionBlock);\n        if (blocksSinceLast == 0) {\n            return 0;\n        }\n        /* Otherwise linear burn based on 'distance' moved to zeroblock since\n            last transaction */\n        uint256 fullDistance = _zeroBlock.sub(_lastTransactionBlock);\n        uint256 relativeMovementToZero = blocksSinceLast.mul(multiplier).div(\n            fullDistance\n        );\n        return _balance.mul(relativeMovementToZero).div(multiplier);\n    }\n\n    /** @notice Return the current block number\n        @return Current block number */\n    function getBlockNumber() public view returns (uint256) {\n        return block.number;\n    }\n\n    /// @dev Disable ability to finishMinting\n    function finishMinting() public onlyMinter returns (bool) {\n        revert(\"Function disabled\");\n    }\n\n    /// @dev Disable ability to mint manually\n    function mint() public onlyMinter returns (bool) {\n        revert(\"Function disabled\");\n    }\n\n    /////////////////\n    // Approving / unapproving accounts\n    /////////////////\n\n    /// @notice Approve the specified account to receive generation\n    function approveAccount(address _account) external onlyController fused(7) {\n        accountApproved[_account] = true;\n        lastGenerationBlock[_account] = block.number;\n        emit ApproveAccount(_account);\n    }\n\n    /** @notice Unapprove the specified account so that it no longer receives\n        generation */\n    function unapproveAccount(address _account)\n        external\n        onlyController\n        fused(6)\n    {\n        accountApproved[_account] = false;\n        emit UnapproveAccount(_account);\n    }\n\n    /** @notice Create a new account with the specified role\n        @dev New accounts can always be created.\n            This function can't be disabled. */\n    function verifyAccount(address _account) external onlyController {\n        accountApproved[_account] = true;\n        if (initialBalance > 0 && lastTransactionBlock[_account] == 0) {\n            _mint(_account, initialBalance);\n            emit Mint(_account, initialBalance);\n            zeroBlock[_account] = block.number.add(lifetime);\n        }\n        lastGenerationBlock[_account] = block.number;\n        lastTransactionBlock[_account] = block.number;\n        emit VerifyAccount(_account);\n    }\n\n    /////////////////\n    // Lockable constant updates\n    /////////////////\n\n    /// @notice Update the lifetime for this currency.\n    /// (The number of blocks after which a balance decays to zero)\n    function updateLifetime(uint256 _lifetime)\n        external\n        onlyController\n        fused(5)\n    {\n        lifetime = _lifetime;\n        emit UpdateLifetime(_lifetime);\n    }\n\n    /// @notice Update the balance issued to an account on creation\n    function updateInitialBalance(uint256 _initialBalance)\n        external\n        onlyController\n        fused(8)\n    {\n        initialBalance = _initialBalance;\n        emit UpdateInitialBalance(_initialBalance);\n    }\n\n    /// @notice Update the number of blocks between each generation period\n    function updateGenerationPeriod(uint256 _generationPeriod)\n        external\n        onlyController\n        fused(4)\n    {\n        //TODO: delete/update lastGenerationBlock to prevent calculation errors\n        require(1==2, \"Currently not possible to change generation period after deploy.\");\n        generationPeriod = _generationPeriod;\n        emit UpdateGenerationPeriod(_generationPeriod);\n    }\n\n    /** @notice Update the number of tokens issued to each account after each\n            generation period */\n    function updateGenerationAmount(uint256 _generationAmount)\n        external\n        onlyController\n        fused(3)\n    {\n        generationAmount = _generationAmount;\n        emit UpdateGenerationAmount(_generationAmount);\n    }\n\n    /////////////////\n    // Getters\n    /////////////////\n\n    /** @notice Get the number of tokens issued to each account after each\n            generation period\n        @return Number of tokens issued during generation */\n    function getGenerationAmount() public view returns (uint256) {\n        return generationAmount;\n    }\n\n    /////////////////\n    // For test purposes\n    /////////////////\n\n    /** @notice For testing purposes, manually mine a block to simulate the\n        passing of time */\n    function mine() public {\n        blocksMined = blocksMined + 1;\n        emit Mined(block.number);\n    }\n\n    /////////////////\n    // Adjust contributiones\n    /////////////////\n\n    /// @notice Set the address that the contribution will be sent to\n    function updateCommunityContributionAccount(\n        address _newCommunityContributionAccount\n    ) external onlyController fused(0) {\n        communityContributionAccount = _newCommunityContributionAccount;\n        emit UpdateCommunityContributionAccount(\n            _newCommunityContributionAccount\n        );\n    }\n\n    /// @notice Set the contribution percentage, to be taken from the fee %\n    function updateCommunityContribution(uint256 _communityContribution)\n        external\n        onlyController\n        fused(1)\n    {\n        communityContribution = _communityContribution;\n        emit UpdateCommunityContribution(_communityContribution);\n    }\n\n    /// @notice Set the fee %, to be taken from every transaction\n    function updateTransactionFee(uint256 _transactionFee)\n        external\n        onlyController\n        fused(2)\n    {\n        transactionFee = _transactionFee;\n        emit UpdateTransactionFee(_transactionFee);\n    }\n\n    /// @notice Delete the contract. Only use for testing.\n    function terminateCurrency(bool _confirm, address payable _recoverFunds)\n        external\n        onlyController\n        fused(8)\n    {\n        require(\n            _confirm == true,\n            \"Please confirm you want to destroy this contract\"\n        );\n        selfdestruct(_recoverFunds);\n    }\n}\n",
  "sourcePath": "/Users/christianhildebrand/Desktop/PROJECTS/V/Code/v-alpha-2/smart-contract/contracts/VICoin.sol",
  "compiler": {
    "name": "solc",
    "version": "0.5.8+commit.23d335f2.Emscripten.clang"
  },
  "schemaVersion": "3.0.11",
  "updatedAt": "2020-06-13T16:33:01.254Z",
  "devdoc": {
    "details": "Based on openzeppelin's burnable and mintable ERC20 tokens",
    "methods": {
      "allowance(address,address)": {
        "details": "Function to check the amount of tokens that an owner allowed to a spender.",
        "params": {
          "owner": "address The address which owns the funds.",
          "spender": "address The address which will spend the funds."
        },
        "return": "A uint256 specifying the amount of tokens still available for the spender."
      },
      "approve(address,uint256)": {
        "details": "Approve the passed address to spend the specified amount of tokens on behalf of msg.sender. Beware that changing an allowance with this method brings the risk that someone may use both the old and the new allowance by unfortunate transaction ordering. One possible solution to mitigate this race condition is to first reduce the spender's allowance to 0 and set the desired value afterwards: https://github.com/ethereum/EIPs/issues/20#issuecomment-263524729",
        "params": {
          "spender": "The address which will spend the funds.",
          "value": "The amount of tokens to be spent."
        }
      },
      "balanceOf(address)": {
        "details": "Gets the balance of the specified address.",
        "params": {
          "owner": "The address to query the balance of."
        },
        "return": "A uint256 representing the amount owned by the passed address."
      },
      "burn(uint256)": {
        "details": "Burns a specific amount of tokens.",
        "params": {
          "value": "The amount of token to be burned."
        }
      },
      "burnFrom(address,uint256)": {
        "details": "Burns a specific amount of tokens from the target address and decrements allowance.",
        "params": {
          "from": "address The account whose tokens will be burned.",
          "value": "uint256 The amount of token to be burned."
        }
      },
      "calcContribution(uint256,uint256,uint256)": {
        "details": "Percentage to x dp as defined by contributionFeeDecimals e.g. when contributionFeeDecimals is 2, 1200 is 12.00%",
        "return": "Tokens to pay as contribution "
      },
      "calcDecay(uint256,uint256,uint256,uint256)": {
        "return": "Number of tokens decayed since last transaction "
      },
      "calcFeesIncContribution(uint256,uint256)": {
        "details": "Percentage to x dp as defined by contributionFeeDecimals e.g. when contributionFeeDecimals is 2, 1200 is 12.00%",
        "return": "Tokens to cover fees, inclusive of contribution "
      },
      "calcFeesToBurn(uint256,uint256,uint256)": {
        "details": "Percentage to x dp as defined by contributionFeeDecimals e.g. when contributionFeeDecimals is 2, 1200 is 12.00%",
        "return": "Tokens to burn as fees "
      },
      "calcGeneration(uint256,uint256,uint256,uint256,uint256)": {
        "details": "This function contains a for loop, so in theory may fail for accounts that have been inactive for an extremely long time. These accounts will have zero balance anyway. "
      },
      "calcNumCompletedPeriods(uint256,uint256,uint256)": {
        "return": "The number of completed periods since last generation block"
      },
      "calcZeroBlock(uint256,uint256,uint256,uint256,uint256)": {
        "return": "Block at which balance is 0 "
      },
      "decimals()": {
        "return": "the number of decimals of the token."
      },
      "decreaseAllowance(address,uint256)": {
        "details": "Decrease the amount of tokens that an owner allowed to a spender. approve should be called when _allowed[msg.sender][spender] == 0. To decrement allowed value is better to use this function to avoid 2 calls (and wait until the first transaction is mined) From MonolithDAO Token.sol Emits an Approval event.",
        "params": {
          "spender": "The address which will spend the funds.",
          "subtractedValue": "The amount of tokens to decrease the allowance by."
        }
      },
      "finishMinting()": {
        "details": "Disable ability to finishMinting"
      },
      "getBlockNumber()": {
        "return": "Current block number "
      },
      "getDecayedBalance(address)": {
        "return": "Balance after decay "
      },
      "getGenerationAmount()": {
        "return": "Number of tokens issued during generation "
      },
      "increaseAllowance(address,uint256)": {
        "details": "Increase the amount of tokens that an owner allowed to a spender. approve should be called when _allowed[msg.sender][spender] == 0. To increment allowed value is better to use this function to avoid 2 calls (and wait until the first transaction is mined) From MonolithDAO Token.sol Emits an Approval event.",
        "params": {
          "addedValue": "The amount of tokens to increase the allowance by.",
          "spender": "The address which will spend the funds."
        }
      },
      "liveBalanceOf(address)": {
        "return": "Latest balance "
      },
      "mint()": {
        "details": "Disable ability to mint manually"
      },
      "mint(address,uint256)": {
        "details": "Function to mint tokens",
        "params": {
          "to": "The address that will receive the minted tokens.",
          "value": "The amount of tokens to mint."
        },
        "return": "A boolean that indicates if the operation was successful."
      },
      "name()": {
        "return": "the name of the token."
      },
      "symbol()": {
        "return": "the symbol of the token."
      },
      "totalSupply()": {
        "details": "Total number of tokens in existence."
      },
      "transfer(address,uint256)": {
        "return": "Success "
      },
      "verifyAccount(address)": {
        "details": "New accounts can always be created. This function can't be disabled. "
      }
    }
  },
  "userdoc": {
    "methods": {
      "approveAccount(address)": {
        "notice": "//////////////Approve the specified account to receive generation"
      },
      "blowAllFuses(bool)": {
        "notice": "Functions"
      },
      "calcContribution(uint256,uint256,uint256)": {
        "notice": "Calculate the contribution due. Contribution is a percentage taken from the fee"
      },
      "calcDecay(uint256,uint256,uint256,uint256)": {
        "notice": "Calculate the number of tokens decayed since the last transaction"
      },
      "calcFeesIncContribution(uint256,uint256)": {
        "notice": "Calculate the total amount allocated for both fees and contribution Contribution % is not relavent as contributiones are taken from the fee"
      },
      "calcFeesToBurn(uint256,uint256,uint256)": {
        "notice": "Calculate fees to burn. This is the fee % minus the contribution due"
      },
      "calcGeneration(uint256,uint256,uint256,uint256,uint256)": {
        "notice": "Calculate the generation accrued since the last generation period"
      },
      "calcNumCompletedPeriods(uint256,uint256,uint256)": {
        "notice": "Calculate the number of generation periods since the last generation block"
      },
      "calcZeroBlock(uint256,uint256,uint256,uint256,uint256)": {
        "notice": "Calculate the block at which the balance for this account will be zero"
      },
      "getBlockNumber()": {
        "notice": "Return the current block number"
      },
      "getDecayedBalance(address)": {
        "notice": "Return the balance including decay up to the current block, but ignoring any accrued generation"
      },
      "getDetails(address)": {
        "notice": "////////////////////Used only for debugging"
      },
      "getGenerationAmount()": {
        "notice": "Get the number of tokens issued to each account after each generation period"
      },
      "liveBalanceOf(address)": {
        "notice": "Return the real balance of the account, as of this block"
      },
      "mine()": {
        "notice": "For testing purposes, manually mine a block to simulate the passing of time "
      },
      "terminateCurrency(bool,address)": {
        "notice": "Delete the contract. Only use for testing."
      },
      "transfer(address,uint256)": {
        "notice": "Transfer the currency from one account to another, updating each account to reflect the time passed, and the effects of the transfer"
      },
      "transferFrom(address,address,uint256)": {
        "notice": "transferFrom disabled"
      },
      "triggerOnchainBalanceUpdate(address)": {
        "notice": "Manually trigger an onchain update of the live balance"
      },
      "unapproveAccount(address)": {
        "notice": "Unapprove the specified account so that it no longer receives generation "
      },
      "updateCommunityContribution(uint256)": {
        "notice": "Set the contribution percentage, to be taken from the fee %"
      },
      "updateCommunityContributionAccount(address)": {
        "notice": "//////////////Set the address that the contribution will be sent to"
      },
      "updateGenerationAmount(uint256)": {
        "notice": "Update the number of tokens issued to each account after each generation period "
      },
      "updateGenerationPeriod(uint256)": {
        "notice": "Update the number of blocks between each generation period"
      },
      "updateInitialBalance(uint256)": {
        "notice": "Update the balance issued to an account on creation"
      },
      "updateLifetime(uint256)": {
        "notice": "//////////////Update the lifetime for this currency. (The number of blocks after which a balance decays to zero)"
      },
      "updateTransactionFee(uint256)": {
        "notice": "Set the fee %, to be taken from every transaction"
      },
      "verifyAccount(address)": {
        "notice": "Create a new account with the specified role"
      }
    },
    "notice": "One contract is deployed for each community"
  }
}