{
  "contractName": "AccessRestriction",
  "abi": [
    {
      "constant": true,
      "inputs": [],
      "name": "creationTime",
      "outputs": [
        {
          "internalType": "uint256",
          "name": "",
          "type": "uint256"
        }
      ],
      "payable": false,
      "stateMutability": "view",
      "type": "function"
    },
    {
      "constant": true,
      "inputs": [],
      "name": "owner",
      "outputs": [
        {
          "internalType": "address",
          "name": "",
          "type": "address"
        }
      ],
      "payable": false,
      "stateMutability": "view",
      "type": "function"
    },
    {
      "constant": false,
      "inputs": [
        {
          "internalType": "address",
          "name": "_newOwner",
          "type": "address"
        }
      ],
      "name": "changeOwner",
      "outputs": [],
      "payable": false,
      "stateMutability": "nonpayable",
      "type": "function"
    },
    {
      "constant": false,
      "inputs": [],
      "name": "disown",
      "outputs": [],
      "payable": false,
      "stateMutability": "nonpayable",
      "type": "function"
    }
  ],
  "bytecode": "0x6080604052336000806101000a81548173ffffffffffffffffffffffffffffffffffffffff021916908373ffffffffffffffffffffffffffffffffffffffff1602179055504260015534801561005457600080fd5b506103d7806100646000396000f3fe608060405234801561001057600080fd5b506004361061004c5760003560e01c80631e9bf0da146100515780638da5cb5b1461005b578063a6f9dae1146100a5578063d8270dce146100e9575b600080fd5b610059610107565b005b610063610270565b604051808273ffffffffffffffffffffffffffffffffffffffff1673ffffffffffffffffffffffffffffffffffffffff16815260200191505060405180910390f35b6100e7600480360360208110156100bb57600080fd5b81019080803573ffffffffffffffffffffffffffffffffffffffff169060200190929190505050610295565b005b6100f161039c565b6040518082815260200191505060405180910390f35b6000809054906101000a900473ffffffffffffffffffffffffffffffffffffffff168073ffffffffffffffffffffffffffffffffffffffff163373ffffffffffffffffffffffffffffffffffffffff16146101ca576040517f08c379a00000000000000000000000000000000000000000000000000000000081526004018080602001828103825260168152602001807f53656e646572206e6f7420617574686f72697a65642e0000000000000000000081525060200191505060405180910390fd5b62375f006001540180421015610248576040517f08c379a000000000000000000000000000000000000000000000000000000000815260040180806020018281038252601a8152602001807f46756e6374696f6e2063616c6c656420746f6f206561726c792e00000000000081525060200191505060405180910390fd5b6000806101000a81549073ffffffffffffffffffffffffffffffffffffffff02191690555050565b6000809054906101000a900473ffffffffffffffffffffffffffffffffffffffff1681565b6000809054906101000a900473ffffffffffffffffffffffffffffffffffffffff168073ffffffffffffffffffffffffffffffffffffffff163373ffffffffffffffffffffffffffffffffffffffff1614610358576040517f08c379a00000000000000000000000000000000000000000000000000000000081526004018080602001828103825260168152602001807f53656e646572206e6f7420617574686f72697a65642e0000000000000000000081525060200191505060405180910390fd5b816000806101000a81548173ffffffffffffffffffffffffffffffffffffffff021916908373ffffffffffffffffffffffffffffffffffffffff1602179055505050565b6001548156fea265627a7a72315820077875d2b46b40afc921c3e1be00526834e95d3feaa2f11c4ebf8b85e6d487bf64736f6c63430005100032",
  "source": "pragma solidity ^0.5.0;\r\n\r\ncontract AccessRestriction {\r\n    // These will be assigned at the construction\r\n    // phase, where `msg.sender` is the account\r\n    // creating this contract.\r\n    address public owner = msg.sender;\r\n    uint public creationTime = now;\r\n\r\n    // Modifiers can be used to change\r\n    // the body of a function.\r\n    // If this modifier is used, it will\r\n    // prepend a check that only passes\r\n    // if the function is called from\r\n    // a certain address.\r\n    modifier onlyBy(address _account)\r\n    {\r\n        require(\r\n            msg.sender == _account,\r\n            \"Sender not authorized.\"\r\n        );\r\n        _;\r\n    }\r\n    \r\n    modifier onlyByAddresses(address _account1, address _account2)\r\n    {\r\n        require(\r\n            msg.sender == _account1 || msg.sender == _account2,\r\n            \"Sender not authorized.\"\r\n        );\r\n        _;\r\n    }\r\n\r\n    /// Make `_newOwner` the new owner of this\r\n    /// contract.\r\n    function changeOwner(address _newOwner)\r\n        public\r\n        onlyBy(owner)\r\n    {\r\n        owner = _newOwner;\r\n    }\r\n\r\n    modifier onlyAfter(uint _time) {\r\n        require(\r\n            now >= _time,\r\n            \"Function called too early.\"\r\n        );\r\n        _;\r\n    }\r\n\r\n    /// Erase ownership information.\r\n    /// May only be called 6 weeks after\r\n    /// the contract has been created.\r\n    function disown()\r\n        public\r\n        onlyBy(owner)\r\n        onlyAfter(creationTime + 6 weeks)\r\n    {\r\n        delete owner;\r\n    }\r\n\r\n    // This modifier requires a certain\r\n    // fee being associated with a function call.\r\n    // If the caller sent too much, he or she is\r\n    // refunded, but only after the function body.\r\n    // This was dangerous before Solidity version 0.4.0,\r\n    // where it was possible to skip the part after `_;`.\r\n    modifier costs(uint _amount) {\r\n        require(\r\n            msg.value >= _amount,\r\n            \"Not enough Ether provided.\"\r\n        );\r\n        _;\r\n        if (msg.value > _amount)\r\n            msg.sender.transfer(msg.value - _amount);\r\n    }\r\n}\r\n",
  "sourcePath": "/home/grifma/Code/vi-fresh/v-alpha-2/smart-contract/contracts/AccessRestriction.sol",
  "compiler": {
    "name": "solc",
    "version": "0.5.16+commit.9c3226ce.Emscripten.clang"
  },
  "schemaVersion": "3.0.23",
  "updatedAt": "2020-06-09T20:14:57.656Z",
  "devdoc": {
    "methods": {}
  },
  "userdoc": {
    "methods": {
      "changeOwner(address)": {
        "notice": "Make `_newOwner` the new owner of this contract."
      },
      "disown()": {
        "notice": "Erase ownership information. May only be called 6 weeks after the contract has been created."
      }
    }
  }
}