{
  "contractName": "CapperRoleMock",
  "abi": [
    {
      "anonymous": false,
      "inputs": [
        {
          "indexed": true,
          "internalType": "address",
          "name": "account",
          "type": "address"
        }
      ],
      "name": "CapperAdded",
      "type": "event"
    },
    {
      "anonymous": false,
      "inputs": [
        {
          "indexed": true,
          "internalType": "address",
          "name": "account",
          "type": "address"
        }
      ],
      "name": "CapperRemoved",
      "type": "event"
    },
    {
      "constant": false,
      "inputs": [
        {
          "internalType": "address",
          "name": "account",
          "type": "address"
        }
      ],
      "name": "addCapper",
      "outputs": [],
      "payable": false,
      "stateMutability": "nonpayable",
      "type": "function"
    },
    {
      "constant": true,
      "inputs": [
        {
          "internalType": "address",
          "name": "account",
          "type": "address"
        }
      ],
      "name": "isCapper",
      "outputs": [
        {
          "internalType": "bool",
          "name": "",
          "type": "bool"
        }
      ],
      "payable": false,
      "stateMutability": "view",
      "type": "function"
    },
    {
      "constant": false,
      "inputs": [],
      "name": "renounceCapper",
      "outputs": [],
      "payable": false,
      "stateMutability": "nonpayable",
      "type": "function"
    },
    {
      "constant": false,
      "inputs": [
        {
          "internalType": "address",
          "name": "account",
          "type": "address"
        }
      ],
      "name": "removeCapper",
      "outputs": [],
      "payable": false,
      "stateMutability": "nonpayable",
      "type": "function"
    },
    {
      "constant": true,
      "inputs": [],
      "name": "onlyCapperMock",
      "outputs": [],
      "payable": false,
      "stateMutability": "view",
      "type": "function"
    }
  ],
  "bytecode": "0x60806040526100133361001860201b60201c565b610235565b61003081600061007660201b6103f01790919060201c565b8073ffffffffffffffffffffffffffffffffffffffff167fa7555c95b69d4f5cc847881feb4ab2883a1921319e34fa2043747b793d65b36e60405160405180910390a250565b610086828261015760201b60201c565b156100f9576040517f08c379a000000000000000000000000000000000000000000000000000000000815260040180806020018281038252601f8152602001807f526f6c65733a206163636f756e7420616c72656164792068617320726f6c650081525060200191505060405180910390fd5b60018260000160008373ffffffffffffffffffffffffffffffffffffffff1673ffffffffffffffffffffffffffffffffffffffff16815260200190815260200160002060006101000a81548160ff0219169083151502179055505050565b60008073ffffffffffffffffffffffffffffffffffffffff168273ffffffffffffffffffffffffffffffffffffffff1614156101de576040517f08c379a00000000000000000000000000000000000000000000000000000000081526004018080602001828103825260228152602001806108746022913960400191505060405180910390fd5b8260000160008373ffffffffffffffffffffffffffffffffffffffff1673ffffffffffffffffffffffffffffffffffffffff16815260200190815260200160002060009054906101000a900460ff16905092915050565b610630806102446000396000f3fe608060405234801561001057600080fd5b50600436106100575760003560e01c8063395645611461005c5780633f4a6484146100b85780635d5576f8146100fc5780638dfbcf3614610106578063d1e07bcb1461014a575b600080fd5b61009e6004803603602081101561007257600080fd5b81019080803573ffffffffffffffffffffffffffffffffffffffff169060200190929190505050610154565b604051808215151515815260200191505060405180910390f35b6100fa600480360360208110156100ce57600080fd5b81019080803573ffffffffffffffffffffffffffffffffffffffff169060200190929190505050610171565b005b61010461017d565b005b6101486004803603602081101561011c57600080fd5b81019080803573ffffffffffffffffffffffffffffffffffffffff169060200190929190505050610188565b005b6101526101f2565b005b600061016a82600061025290919063ffffffff16565b9050919050565b61017a81610330565b50565b61018633610330565b565b61019133610154565b6101e6576040517f08c379a00000000000000000000000000000000000000000000000000000000081526004018080602001828103825260308152602001806105cc6030913960400191505060405180910390fd5b6101ef8161033c565b50565b6101fb33610154565b610250576040517f08c379a00000000000000000000000000000000000000000000000000000000081526004018080602001828103825260308152602001806105cc6030913960400191505060405180910390fd5b565b60008073ffffffffffffffffffffffffffffffffffffffff168273ffffffffffffffffffffffffffffffffffffffff1614156102d9576040517f08c379a00000000000000000000000000000000000000000000000000000000081526004018080602001828103825260228152602001806105aa6022913960400191505060405180910390fd5b8260000160008373ffffffffffffffffffffffffffffffffffffffff1673ffffffffffffffffffffffffffffffffffffffff16815260200190815260200160002060009054906101000a900460ff16905092915050565b61033981610396565b50565b6103508160006103f090919063ffffffff16565b8073ffffffffffffffffffffffffffffffffffffffff167fa7555c95b69d4f5cc847881feb4ab2883a1921319e34fa2043747b793d65b36e60405160405180910390a250565b6103aa8160006104cb90919063ffffffff16565b8073ffffffffffffffffffffffffffffffffffffffff167f427400d279c506df610224b22ecce89b693fc1865864113f21c8d19c1f0c2a3b60405160405180910390a250565b6103fa8282610252565b1561046d576040517f08c379a000000000000000000000000000000000000000000000000000000000815260040180806020018281038252601f8152602001807f526f6c65733a206163636f756e7420616c72656164792068617320726f6c650081525060200191505060405180910390fd5b60018260000160008373ffffffffffffffffffffffffffffffffffffffff1673ffffffffffffffffffffffffffffffffffffffff16815260200190815260200160002060006101000a81548160ff0219169083151502179055505050565b6104d58282610252565b61052a576040517f08c379a00000000000000000000000000000000000000000000000000000000081526004018080602001828103825260218152602001806105896021913960400191505060405180910390fd5b60008260000160008373ffffffffffffffffffffffffffffffffffffffff1673ffffffffffffffffffffffffffffffffffffffff16815260200190815260200160002060006101000a81548160ff021916908315150217905550505056fe526f6c65733a206163636f756e7420646f6573206e6f74206861766520726f6c65526f6c65733a206163636f756e7420697320746865207a65726f2061646472657373436170706572526f6c653a2063616c6c657220646f6573206e6f742068617665207468652043617070657220726f6c65a265627a7a7231582070cbe6d6e479482057528420f17829be330d2a4ae32beb977110935b590c04e064736f6c63430005100032526f6c65733a206163636f756e7420697320746865207a65726f2061646472657373",
  "source": "pragma solidity ^0.5.0;\n\nimport \"../access/roles/CapperRole.sol\";\n\ncontract CapperRoleMock is CapperRole {\n    function removeCapper(address account) public {\n        _removeCapper(account);\n    }\n\n    function onlyCapperMock() public view onlyCapper {\n        // solhint-disable-previous-line no-empty-blocks\n    }\n\n    // Causes a compilation error if super._removeCapper is not internal\n    function _removeCapper(address account) internal {\n        super._removeCapper(account);\n    }\n}\n",
  "sourcePath": "/home/grifma/Code/vi-fresh/v-alpha-2/smart-contract/contracts/lib/openzeppelin-solidity/contracts/mocks/CapperRoleMock.sol",
  "compiler": {
    "name": "solc",
    "version": "0.5.16+commit.9c3226ce.Emscripten.clang"
  },
  "schemaVersion": "3.0.23",
  "updatedAt": "2020-06-09T20:14:57.837Z",
  "devdoc": {
    "methods": {}
  },
  "userdoc": {
    "methods": {}
  }
}