{
  "contractName": "IncreasingPriceCrowdsaleImpl",
  "abi": [
    {
      "inputs": [
        {
          "internalType": "uint256",
          "name": "openingTime",
          "type": "uint256"
        },
        {
          "internalType": "uint256",
          "name": "closingTime",
          "type": "uint256"
        },
        {
          "internalType": "address payable",
          "name": "wallet",
          "type": "address"
        },
        {
          "internalType": "contract IERC20",
          "name": "token",
          "type": "address"
        },
        {
          "internalType": "uint256",
          "name": "initialRate",
          "type": "uint256"
        },
        {
          "internalType": "uint256",
          "name": "finalRate",
          "type": "uint256"
        }
      ],
      "payable": false,
      "stateMutability": "nonpayable",
      "type": "constructor"
    },
    {
      "anonymous": false,
      "inputs": [
        {
          "indexed": false,
          "internalType": "uint256",
          "name": "prevClosingTime",
          "type": "uint256"
        },
        {
          "indexed": false,
          "internalType": "uint256",
          "name": "newClosingTime",
          "type": "uint256"
        }
      ],
      "name": "TimedCrowdsaleExtended",
      "type": "event"
    },
    {
      "anonymous": false,
      "inputs": [
        {
          "indexed": true,
          "internalType": "address",
          "name": "purchaser",
          "type": "address"
        },
        {
          "indexed": true,
          "internalType": "address",
          "name": "beneficiary",
          "type": "address"
        },
        {
          "indexed": false,
          "internalType": "uint256",
          "name": "value",
          "type": "uint256"
        },
        {
          "indexed": false,
          "internalType": "uint256",
          "name": "amount",
          "type": "uint256"
        }
      ],
      "name": "TokensPurchased",
      "type": "event"
    },
    {
      "payable": true,
      "stateMutability": "payable",
      "type": "fallback"
    },
    {
      "constant": false,
      "inputs": [
        {
          "internalType": "address",
          "name": "beneficiary",
          "type": "address"
        }
      ],
      "name": "buyTokens",
      "outputs": [],
      "payable": true,
      "stateMutability": "payable",
      "type": "function"
    },
    {
      "constant": true,
      "inputs": [],
      "name": "closingTime",
      "outputs": [
        {
          "internalType": "uint256",
          "name": "",
          "type": "uint256"
        }
      ],
      "payable": false,
      "stateMutability": "view",
      "type": "function"
    },
    {
      "constant": true,
      "inputs": [],
      "name": "finalRate",
      "outputs": [
        {
          "internalType": "uint256",
          "name": "",
          "type": "uint256"
        }
      ],
      "payable": false,
      "stateMutability": "view",
      "type": "function"
    },
    {
      "constant": true,
      "inputs": [],
      "name": "getCurrentRate",
      "outputs": [
        {
          "internalType": "uint256",
          "name": "",
          "type": "uint256"
        }
      ],
      "payable": false,
      "stateMutability": "view",
      "type": "function"
    },
    {
      "constant": true,
      "inputs": [],
      "name": "hasClosed",
      "outputs": [
        {
          "internalType": "bool",
          "name": "",
          "type": "bool"
        }
      ],
      "payable": false,
      "stateMutability": "view",
      "type": "function"
    },
    {
      "constant": true,
      "inputs": [],
      "name": "initialRate",
      "outputs": [
        {
          "internalType": "uint256",
          "name": "",
          "type": "uint256"
        }
      ],
      "payable": false,
      "stateMutability": "view",
      "type": "function"
    },
    {
      "constant": true,
      "inputs": [],
      "name": "isOpen",
      "outputs": [
        {
          "internalType": "bool",
          "name": "",
          "type": "bool"
        }
      ],
      "payable": false,
      "stateMutability": "view",
      "type": "function"
    },
    {
      "constant": true,
      "inputs": [],
      "name": "openingTime",
      "outputs": [
        {
          "internalType": "uint256",
          "name": "",
          "type": "uint256"
        }
      ],
      "payable": false,
      "stateMutability": "view",
      "type": "function"
    },
    {
      "constant": true,
      "inputs": [],
      "name": "rate",
      "outputs": [
        {
          "internalType": "uint256",
          "name": "",
          "type": "uint256"
        }
      ],
      "payable": false,
      "stateMutability": "view",
      "type": "function"
    },
    {
      "constant": true,
      "inputs": [],
      "name": "token",
      "outputs": [
        {
          "internalType": "contract IERC20",
          "name": "",
          "type": "address"
        }
      ],
      "payable": false,
      "stateMutability": "view",
      "type": "function"
    },
    {
      "constant": true,
      "inputs": [],
      "name": "wallet",
      "outputs": [
        {
          "internalType": "address payable",
          "name": "",
          "type": "address"
        }
      ],
      "payable": false,
      "stateMutability": "view",
      "type": "function"
    },
    {
      "constant": true,
      "inputs": [],
      "name": "weiRaised",
      "outputs": [
        {
          "internalType": "uint256",
          "name": "",
          "type": "uint256"
        }
      ],
      "payable": false,
      "stateMutability": "view",
      "type": "function"
    }
  ],
  "bytecode": "0x608060405234801561001057600080fd5b50604051611437380380611437833981810160405260c081101561003357600080fd5b81019080805190602001909291908051906020019092919080519060200190929190805190602001909291908051906020019092919080519060200190929190505050818187878588886001600081905550600083116100fb576040517f08c379a00000000000000000000000000000000000000000000000000000000081526004018080602001828103825260148152602001807f43726f776473616c653a2072617465206973203000000000000000000000000081525060200191505060405180910390fd5b600073ffffffffffffffffffffffffffffffffffffffff168273ffffffffffffffffffffffffffffffffffffffff161415610181576040517f08c379a00000000000000000000000000000000000000000000000000000000081526004018080602001828103825260258152602001806114126025913960400191505060405180910390fd5b600073ffffffffffffffffffffffffffffffffffffffff168173ffffffffffffffffffffffffffffffffffffffff161415610207576040517f08c379a00000000000000000000000000000000000000000000000000000000081526004018080602001828103825260248152602001806113ee6024913960400191505060405180910390fd5b8260038190555081600260006101000a81548173ffffffffffffffffffffffffffffffffffffffff021916908373ffffffffffffffffffffffffffffffffffffffff16021790555080600160006101000a81548173ffffffffffffffffffffffffffffffffffffffff021916908373ffffffffffffffffffffffffffffffffffffffff160217905550505050428210156102ec576040517f08c379a00000000000000000000000000000000000000000000000000000000081526004018080602001828103825260338152602001806113166033913960400191505060405180910390fd5b818111610344576040517f08c379a000000000000000000000000000000000000000000000000000000000815260040180806020018281038252603781526020018061138e6037913960400191505060405180910390fd5b81600581905550806006819055505050600081116103ad576040517f08c379a00000000000000000000000000000000000000000000000000000000081526004018080602001828103825260298152602001806113c56029913960400191505060405180910390fd5b808211610405576040517f08c379a00000000000000000000000000000000000000000000000000000000081526004018080602001828103825260458152602001806113496045913960600191505060405180910390fd5b81600781905550806008819055505050505050505050610eec8061042a6000396000f3fe6080604052600436106100a75760003560e01c8063521eb27311610064578063521eb273146101bc5780639e51051f14610213578063b7a8807c1461023e578063ec8ac4d814610269578063f7fb07b0146102ad578063fc0c546a146102d8576100a7565b80631515bc2b146100b257806321106109146100e15780632c4e722e1461010c5780634042b66f1461013757806347535d7b146101625780634b6753bc14610191575b6100b03361032f565b005b3480156100be57600080fd5b506100c761048c565b604051808215151515815260200191505060405180910390f35b3480156100ed57600080fd5b506100f6610498565b6040518082815260200191505060405180910390f35b34801561011857600080fd5b506101216104a2565b6040518082815260200191505060405180910390f35b34801561014357600080fd5b5061014c6104f5565b6040518082815260200191505060405180910390f35b34801561016e57600080fd5b506101776104ff565b604051808215151515815260200191505060405180910390f35b34801561019d57600080fd5b506101a661051a565b6040518082815260200191505060405180910390f35b3480156101c857600080fd5b506101d1610524565b604051808273ffffffffffffffffffffffffffffffffffffffff1673ffffffffffffffffffffffffffffffffffffffff16815260200191505060405180910390f35b34801561021f57600080fd5b5061022861054e565b6040518082815260200191505060405180910390f35b34801561024a57600080fd5b50610253610558565b6040518082815260200191505060405180910390f35b6102ab6004803603602081101561027f57600080fd5b81019080803573ffffffffffffffffffffffffffffffffffffffff16906020019092919050505061032f565b005b3480156102b957600080fd5b506102c2610562565b6040518082815260200191505060405180910390f35b3480156102e457600080fd5b506102ed610619565b604051808273ffffffffffffffffffffffffffffffffffffffff1673ffffffffffffffffffffffffffffffffffffffff16815260200191505060405180910390f35b6001600080828254019250508190555060008054905060003490506103548382610643565b600061035f826106cb565b9050610376826004546106f390919063ffffffff16565b600481905550610386848261077b565b8373ffffffffffffffffffffffffffffffffffffffff163373ffffffffffffffffffffffffffffffffffffffff167f6faf93231a456e552dbc9961f58d9713ee4f2e69d15f1975b050ef0911053a7b8484604051808381526020018281526020019250505060405180910390a36103fd8483610789565b61040561078d565b61040f84836107f8565b50506000548114610488576040517f08c379a000000000000000000000000000000000000000000000000000000000815260040180806020018281038252601f8152602001807f5265656e7472616e637947756172643a207265656e7472616e742063616c6c0081525060200191505060405180910390fd5b5050565b60006006544211905090565b6000600854905090565b60006040517f08c379a0000000000000000000000000000000000000000000000000000000008152600401808060200182810382526027815260200180610e1c6027913960400191505060405180910390fd5b6000600454905090565b6000600554421015801561051557506006544211155b905090565b6000600654905090565b6000600260009054906101000a900473ffffffffffffffffffffffffffffffffffffffff16905090565b6000600754905090565b6000600554905090565b600061056c6104ff565b6105795760009050610616565b6000610595610586610558565b426107fc90919063ffffffff16565b905060006105ba6105a4610558565b6105ac61051a565b6107fc90919063ffffffff16565b905060006105d56008546007546107fc90919063ffffffff16565b90506106106105ff836105f1848761088590919063ffffffff16565b61090b90919063ffffffff16565b6007546107fc90919063ffffffff16565b93505050505b90565b6000600160009054906101000a900473ffffffffffffffffffffffffffffffffffffffff16905090565b61064b6104ff565b6106bd576040517f08c379a00000000000000000000000000000000000000000000000000000000081526004018080602001828103825260188152602001807f54696d656443726f776473616c653a206e6f74206f70656e000000000000000081525060200191505060405180910390fd5b6106c7828261099a565b5050565b6000806106d6610562565b90506106eb838261088590919063ffffffff16565b915050919050565b600080828401905083811015610771576040517f08c379a000000000000000000000000000000000000000000000000000000000815260040180806020018281038252601b8152602001807f536166654d6174683a206164646974696f6e206f766572666c6f77000000000081525060200191505060405180910390fd5b8091505092915050565b6107858282610a9b565b5050565b5050565b600260009054906101000a900473ffffffffffffffffffffffffffffffffffffffff1673ffffffffffffffffffffffffffffffffffffffff166108fc349081150290604051600060405180830381858888f193505050501580156107f5573d6000803e3d6000fd5b50565b5050565b600082821115610874576040517f08c379a000000000000000000000000000000000000000000000000000000000815260040180806020018281038252601e8152602001807f536166654d6174683a207375627472616374696f6e206f766572666c6f77000081525060200191505060405180910390fd5b600082840390508091505092915050565b6000808314156108985760009050610905565b60008284029050828482816108a957fe5b0414610900576040517f08c379a0000000000000000000000000000000000000000000000000000000008152600401808060200182810382526021815260200180610e436021913960400191505060405180910390fd5b809150505b92915050565b6000808211610982576040517f08c379a000000000000000000000000000000000000000000000000000000000815260040180806020018281038252601a8152602001807f536166654d6174683a206469766973696f6e206279207a65726f00000000000081525060200191505060405180910390fd5b600082848161098d57fe5b0490508091505092915050565b600073ffffffffffffffffffffffffffffffffffffffff168273ffffffffffffffffffffffffffffffffffffffff161415610a20576040517f08c379a000000000000000000000000000000000000000000000000000000000815260040180806020018281038252602a815260200180610e64602a913960400191505060405180910390fd5b6000811415610a97576040517f08c379a00000000000000000000000000000000000000000000000000000000081526004018080602001828103825260198152602001807f43726f776473616c653a20776569416d6f756e7420697320300000000000000081525060200191505060405180910390fd5b5050565b610ae88282600160009054906101000a900473ffffffffffffffffffffffffffffffffffffffff1673ffffffffffffffffffffffffffffffffffffffff16610aec9092919063ffffffff16565b5050565b610bb8838473ffffffffffffffffffffffffffffffffffffffff1663a9059cbb905060e01b8484604051602401808373ffffffffffffffffffffffffffffffffffffffff1673ffffffffffffffffffffffffffffffffffffffff16815260200182815260200192505050604051602081830303815290604052907bffffffffffffffffffffffffffffffffffffffffffffffffffffffff19166020820180517bffffffffffffffffffffffffffffffffffffffffffffffffffffffff8381831617835250505050610bbd565b505050565b610bdc8273ffffffffffffffffffffffffffffffffffffffff16610e08565b610c4e576040517f08c379a000000000000000000000000000000000000000000000000000000000815260040180806020018281038252601f8152602001807f5361666545524332303a2063616c6c20746f206e6f6e2d636f6e74726163740081525060200191505060405180910390fd5b600060608373ffffffffffffffffffffffffffffffffffffffff16836040518082805190602001908083835b60208310610c9d5780518252602082019150602081019050602083039250610c7a565b6001836020036101000a0380198251168184511680821785525050505050509050019150506000604051808303816000865af19150503d8060008114610cff576040519150601f19603f3d011682016040523d82523d6000602084013e610d04565b606091505b509150915081610d7c576040517f08c379a00000000000000000000000000000000000000000000000000000000081526004018080602001828103825260208152602001807f5361666545524332303a206c6f772d6c6576656c2063616c6c206661696c656481525060200191505060405180910390fd5b600081511115610e0257808060200190516020811015610d9b57600080fd5b8101908080519060200190929190505050610e01576040517f08c379a000000000000000000000000000000000000000000000000000000000815260040180806020018281038252602a815260200180610e8e602a913960400191505060405180910390fd5b5b50505050565b600080823b90506000811191505091905056fe496e6372656173696e67507269636543726f776473616c653a207261746528292063616c6c6564536166654d6174683a206d756c7469706c69636174696f6e206f766572666c6f7743726f776473616c653a2062656e656669636961727920697320746865207a65726f20616464726573735361666545524332303a204552433230206f7065726174696f6e20646964206e6f742073756363656564a265627a7a723158201c181f5cefc0d02a14e3a95015e9633344ff70cead609aba9f1dd2db5234433864736f6c6343000510003254696d656443726f776473616c653a206f70656e696e672074696d65206973206265666f72652063757272656e742074696d65496e6372656173696e67507269636543726f776473616c653a20696e697469616c2072617465206973206e6f742067726561746572207468616e2066696e616c207261746554696d656443726f776473616c653a206f70656e696e672074696d65206973206e6f74206265666f726520636c6f73696e672074696d65496e6372656173696e67507269636543726f776473616c653a2066696e616c2072617465206973203043726f776473616c653a20746f6b656e20697320746865207a65726f206164647265737343726f776473616c653a2077616c6c657420697320746865207a65726f2061646472657373",
  "source": "pragma solidity ^0.5.0;\n\nimport \"../crowdsale/price/IncreasingPriceCrowdsale.sol\";\nimport \"../math/SafeMath.sol\";\n\ncontract IncreasingPriceCrowdsaleImpl is IncreasingPriceCrowdsale {\n    constructor (\n        uint256 openingTime,\n        uint256 closingTime,\n        address payable wallet,\n        IERC20 token,\n        uint256 initialRate,\n        uint256 finalRate\n    )\n        public\n        Crowdsale(initialRate, wallet, token)\n        TimedCrowdsale(openingTime, closingTime)\n        IncreasingPriceCrowdsale(initialRate, finalRate)\n    {\n        // solhint-disable-previous-line no-empty-blocks\n    }\n}\n",
  "sourcePath": "/home/grifma/Code/vi-fresh/v-alpha-2/smart-contract/contracts/lib/openzeppelin-solidity/contracts/mocks/IncreasingPriceCrowdsaleImpl.sol",
  "compiler": {
    "name": "solc",
    "version": "0.5.16+commit.9c3226ce.Emscripten.clang"
  },
  "schemaVersion": "3.0.23",
  "updatedAt": "2020-06-09T20:14:57.880Z",
  "devdoc": {
    "methods": {
      "buyTokens(address)": {
        "details": "low level token purchase ***DO NOT OVERRIDE*** This function has a non-reentrancy guard, so it shouldn't be called by another `nonReentrant` function.",
        "params": {
          "beneficiary": "Recipient of the token purchase"
        }
      },
      "closingTime()": {
        "return": "the crowdsale closing time."
      },
      "finalRate()": {
        "return": "the final rate of the crowdsale."
      },
      "getCurrentRate()": {
        "details": "Returns the rate of tokens per wei at the present time. Note that, as price _increases_ with time, the rate _decreases_.",
        "return": "The number of tokens a buyer gets per wei at a given time"
      },
      "hasClosed()": {
        "details": "Checks whether the period in which the crowdsale is open has already elapsed.",
        "return": "Whether crowdsale period has elapsed"
      },
      "initialRate()": {
        "return": "the initial rate of the crowdsale."
      },
      "isOpen()": {
        "return": "true if the crowdsale is open, false otherwise."
      },
      "openingTime()": {
        "return": "the crowdsale opening time."
      },
      "token()": {
        "return": "the token being sold."
      },
      "wallet()": {
        "return": "the address where funds are collected."
      },
      "weiRaised()": {
        "return": "the amount of wei raised."
      }
    }
  },
  "userdoc": {
    "methods": {
      "rate()": {
        "notice": "The base rate function is overridden to revert, since this crowdsale doesn't use it, and all calls to it are a mistake."
      }
    }
  }
}