{
  "contractName": "PauserRoleMock",
  "abi": [
    {
      "anonymous": false,
      "inputs": [
        {
          "indexed": true,
          "internalType": "address",
          "name": "account",
          "type": "address"
        }
      ],
      "name": "PauserAdded",
      "type": "event"
    },
    {
      "anonymous": false,
      "inputs": [
        {
          "indexed": true,
          "internalType": "address",
          "name": "account",
          "type": "address"
        }
      ],
      "name": "PauserRemoved",
      "type": "event"
    },
    {
      "constant": false,
      "inputs": [
        {
          "internalType": "address",
          "name": "account",
          "type": "address"
        }
      ],
      "name": "addPauser",
      "outputs": [],
      "payable": false,
      "stateMutability": "nonpayable",
      "type": "function"
    },
    {
      "constant": true,
      "inputs": [
        {
          "internalType": "address",
          "name": "account",
          "type": "address"
        }
      ],
      "name": "isPauser",
      "outputs": [
        {
          "internalType": "bool",
          "name": "",
          "type": "bool"
        }
      ],
      "payable": false,
      "stateMutability": "view",
      "type": "function"
    },
    {
      "constant": false,
      "inputs": [],
      "name": "renouncePauser",
      "outputs": [],
      "payable": false,
      "stateMutability": "nonpayable",
      "type": "function"
    },
    {
      "constant": false,
      "inputs": [
        {
          "internalType": "address",
          "name": "account",
          "type": "address"
        }
      ],
      "name": "removePauser",
      "outputs": [],
      "payable": false,
      "stateMutability": "nonpayable",
      "type": "function"
    },
    {
      "constant": true,
      "inputs": [],
      "name": "onlyPauserMock",
      "outputs": [],
      "payable": false,
      "stateMutability": "view",
      "type": "function"
    }
  ],
  "bytecode": "0x60806040526100133361001860201b60201c565b610235565b61003081600061007660201b6103f01790919060201c565b8073ffffffffffffffffffffffffffffffffffffffff167f6719d08c1888103bea251a4ed56406bd0c3e69723c8a1686e017e7bbe159b6f860405160405180910390a250565b610086828261015760201b60201c565b156100f9576040517f08c379a000000000000000000000000000000000000000000000000000000000815260040180806020018281038252601f8152602001807f526f6c65733a206163636f756e7420616c72656164792068617320726f6c650081525060200191505060405180910390fd5b60018260000160008373ffffffffffffffffffffffffffffffffffffffff1673ffffffffffffffffffffffffffffffffffffffff16815260200190815260200160002060006101000a81548160ff0219169083151502179055505050565b60008073ffffffffffffffffffffffffffffffffffffffff168273ffffffffffffffffffffffffffffffffffffffff1614156101de576040517f08c379a00000000000000000000000000000000000000000000000000000000081526004018080602001828103825260228152602001806108746022913960400191505060405180910390fd5b8260000160008373ffffffffffffffffffffffffffffffffffffffff1673ffffffffffffffffffffffffffffffffffffffff16815260200190815260200160002060009054906101000a900460ff16905092915050565b610630806102446000396000f3fe608060405234801561001057600080fd5b50600436106100575760003560e01c8063329daf901461005c57806346fbf68e146100665780636b2c0f55146100c25780636ef8d66d1461010657806382dc1ec414610110575b600080fd5b610064610154565b005b6100a86004803603602081101561007c57600080fd5b81019080803573ffffffffffffffffffffffffffffffffffffffff1690602001909291905050506101b4565b604051808215151515815260200191505060405180910390f35b610104600480360360208110156100d857600080fd5b81019080803573ffffffffffffffffffffffffffffffffffffffff1690602001909291905050506101d1565b005b61010e6101dd565b005b6101526004803603602081101561012657600080fd5b81019080803573ffffffffffffffffffffffffffffffffffffffff1690602001909291905050506101e8565b005b61015d336101b4565b6101b2576040517f08c379a00000000000000000000000000000000000000000000000000000000081526004018080602001828103825260308152602001806105896030913960400191505060405180910390fd5b565b60006101ca82600061025290919063ffffffff16565b9050919050565b6101da81610330565b50565b6101e633610330565b565b6101f1336101b4565b610246576040517f08c379a00000000000000000000000000000000000000000000000000000000081526004018080602001828103825260308152602001806105896030913960400191505060405180910390fd5b61024f8161033c565b50565b60008073ffffffffffffffffffffffffffffffffffffffff168273ffffffffffffffffffffffffffffffffffffffff1614156102d9576040517f08c379a00000000000000000000000000000000000000000000000000000000081526004018080602001828103825260228152602001806105da6022913960400191505060405180910390fd5b8260000160008373ffffffffffffffffffffffffffffffffffffffff1673ffffffffffffffffffffffffffffffffffffffff16815260200190815260200160002060009054906101000a900460ff16905092915050565b61033981610396565b50565b6103508160006103f090919063ffffffff16565b8073ffffffffffffffffffffffffffffffffffffffff167f6719d08c1888103bea251a4ed56406bd0c3e69723c8a1686e017e7bbe159b6f860405160405180910390a250565b6103aa8160006104cb90919063ffffffff16565b8073ffffffffffffffffffffffffffffffffffffffff167fcd265ebaf09df2871cc7bd4133404a235ba12eff2041bb89d9c714a2621c7c7e60405160405180910390a250565b6103fa8282610252565b1561046d576040517f08c379a000000000000000000000000000000000000000000000000000000000815260040180806020018281038252601f8152602001807f526f6c65733a206163636f756e7420616c72656164792068617320726f6c650081525060200191505060405180910390fd5b60018260000160008373ffffffffffffffffffffffffffffffffffffffff1673ffffffffffffffffffffffffffffffffffffffff16815260200190815260200160002060006101000a81548160ff0219169083151502179055505050565b6104d58282610252565b61052a576040517f08c379a00000000000000000000000000000000000000000000000000000000081526004018080602001828103825260218152602001806105b96021913960400191505060405180910390fd5b60008260000160008373ffffffffffffffffffffffffffffffffffffffff1673ffffffffffffffffffffffffffffffffffffffff16815260200190815260200160002060006101000a81548160ff021916908315150217905550505056fe506175736572526f6c653a2063616c6c657220646f6573206e6f742068617665207468652050617573657220726f6c65526f6c65733a206163636f756e7420646f6573206e6f74206861766520726f6c65526f6c65733a206163636f756e7420697320746865207a65726f2061646472657373a265627a7a72315820cbb5d55357bf1afed236f2a05dff65d0e95cd13c5b8b02bb8ae893b564dbc7d064736f6c63430005100032526f6c65733a206163636f756e7420697320746865207a65726f2061646472657373",
  "source": "pragma solidity ^0.5.0;\n\nimport \"../access/roles/PauserRole.sol\";\n\ncontract PauserRoleMock is PauserRole {\n    function removePauser(address account) public {\n        _removePauser(account);\n    }\n\n    function onlyPauserMock() public view onlyPauser {\n        // solhint-disable-previous-line no-empty-blocks\n    }\n\n    // Causes a compilation error if super._removePauser is not internal\n    function _removePauser(address account) internal {\n        super._removePauser(account);\n    }\n}\n",
  "sourcePath": "/home/grifma/Code/vi-fresh/v-alpha-2/smart-contract/contracts/lib/openzeppelin-solidity/contracts/mocks/PauserRoleMock.sol",
  "compiler": {
    "name": "solc",
    "version": "0.5.16+commit.9c3226ce.Emscripten.clang"
  },
  "schemaVersion": "3.0.23",
  "updatedAt": "2020-06-09T20:14:57.893Z",
  "devdoc": {
    "methods": {}
  },
  "userdoc": {
    "methods": {}
  }
}