{
  "contractName": "AddressImpl",
  "abi": [
    {
      "constant": true,
      "inputs": [
        {
          "internalType": "address",
          "name": "account",
          "type": "address"
        }
      ],
      "name": "isContract",
      "outputs": [
        {
          "internalType": "bool",
          "name": "",
          "type": "bool"
        }
      ],
      "payable": false,
      "stateMutability": "view",
      "type": "function"
    }
  ],
  "bytecode": "0x608060405234801561001057600080fd5b5060de8061001f6000396000f3fe6080604052348015600f57600080fd5b506004361060285760003560e01c80631627905514602d575b600080fd5b606c60048036036020811015604157600080fd5b81019080803573ffffffffffffffffffffffffffffffffffffffff1690602001909291905050506086565b604051808215151515815260200191505060405180910390f35b6000608f826096565b9050919050565b600080823b90506000811191505091905056fea265627a7a72315820536ff572792e309cf6255cfaf348a0aa39d1deeb7199c0f908ad0fbd72f774cd64736f6c63430005100032",
  "source": "pragma solidity ^0.5.0;\n\nimport \"../utils/Address.sol\";\n\ncontract AddressImpl {\n    function isContract(address account) external view returns (bool) {\n        return Address.isContract(account);\n    }\n}\n",
  "sourcePath": "/home/grifma/Code/vi-fresh/v-alpha-2/smart-contract/contracts/lib/openzeppelin-solidity/contracts/mocks/AddressImpl.sol",
  "compiler": {
    "name": "solc",
    "version": "0.5.16+commit.9c3226ce.Emscripten.clang"
  },
  "schemaVersion": "3.0.23",
  "updatedAt": "2020-06-09T20:14:57.833Z",
  "devdoc": {
    "methods": {}
  },
  "userdoc": {
    "methods": {}
  }
}