{
  "contractName": "ReentrancyAttack",
  "abi": [
    {
      "constant": false,
      "inputs": [
        {
          "internalType": "bytes4",
          "name": "data",
          "type": "bytes4"
        }
      ],
      "name": "callSender",
      "outputs": [],
      "payable": false,
      "stateMutability": "nonpayable",
      "type": "function"
    }
  ],
  "bytecode": "0x608060405234801561001057600080fd5b50610244806100206000396000f3fe608060405234801561001057600080fd5b506004361061002b5760003560e01c80630a2df1ed14610030575b600080fd5b61007b6004803603602081101561004657600080fd5b8101908080357bffffffffffffffffffffffffffffffffffffffffffffffffffffffff1916906020019092919050505061007d565b005b60003373ffffffffffffffffffffffffffffffffffffffff1682604051602401604051602081830303815290604052907bffffffffffffffffffffffffffffffffffffffffffffffffffffffff19166020820180517bffffffffffffffffffffffffffffffffffffffffffffffffffffffff83818316178352505050506040518082805190602001908083835b6020831061012d578051825260208201915060208101905060208303925061010a565b6001836020036101000a0380198251168184511680821785525050505050509050019150506000604051808303816000865af19150503d806000811461018f576040519150601f19603f3d011682016040523d82523d6000602084013e610194565b606091505b505090508061020b576040517f08c379a000000000000000000000000000000000000000000000000000000000815260040180806020018281038252601d8152602001807f5265656e7472616e637941747461636b3a206661696c65642063616c6c00000081525060200191505060405180910390fd5b505056fea265627a7a723158209cca9d53d5854952926652f4c2f2c9cedb6c099a96cacdb4666ee44a181e7e0d64736f6c63430005100032",
  "source": "pragma solidity ^0.5.0;\n\ncontract ReentrancyAttack {\n    function callSender(bytes4 data) public {\n        // solhint-disable-next-line avoid-low-level-calls\n        (bool success,) = msg.sender.call(abi.encodeWithSelector(data));\n        require(success, \"ReentrancyAttack: failed call\");\n    }\n}\n",
  "sourcePath": "/home/grifma/Code/vi-fresh/v-alpha-2/smart-contract/contracts/lib/openzeppelin-solidity/contracts/mocks/ReentrancyAttack.sol",
  "compiler": {
    "name": "solc",
    "version": "0.5.16+commit.9c3226ce.Emscripten.clang"
  },
  "schemaVersion": "3.0.23",
  "updatedAt": "2020-06-09T20:14:57.896Z",
  "devdoc": {
    "methods": {}
  },
  "userdoc": {
    "methods": {}
  }
}