{
  "fileName": "Calculations.sol",
  "contractName": "Calculations",
  "source": "pragma solidity ^0.6.6;\n\nimport \"./lib/contracts-ethereum-package/math/SafeMath.sol\";\n\nlibrary Calculations {\n    using SafeMath for uint256;\n\n    uint256 constant contributionFeeDecimals = 2;\n    uint256 constant multiplier = 10**6;\n\n    /////////////////\n    // Contributiones and fees\n    /////////////////\n\n    /** @notice Calculate the contribution due. Contribution is a percentage taken from the fee\n        @dev Percentage to x dp as defined by contributionFeeDecimals e.g.\n            when contributionFeeDecimals is 2, 1200 is 12.00%\n        @return Tokens to pay as contribution */\n    function calcContribution(\n        uint256 _value,\n        uint256 _feeRate,\n        uint256 _contributionRate\n    ) public pure returns (uint256) {\n        uint256 contributionFeeMultiplier = (100 *\n            10**contributionFeeDecimals)**2;\n        return\n            _value.mul(_feeRate).mul(_contributionRate).div(\n                contributionFeeMultiplier\n            );\n    }\n\n    /** @notice Calculate fees to burn. This is the fee % minus the contribution due\n        @dev Percentage to x dp as defined by contributionFeeDecimals e.g.\n            when contributionFeeDecimals is 2, 1200 is 12.00%\n        @return Tokens to burn as fees */\n    function calcFeesToBurn(\n        uint256 _value,\n        uint256 _feeRate,\n        uint256 _contributionRate\n    ) public pure returns (uint256) {\n        uint256 contributionFeeMultiplier = 100 * 10**contributionFeeDecimals;\n        return\n            _value.mul(_feeRate).div(contributionFeeMultiplier).sub(\n                calcContribution(_value, _feeRate, _contributionRate)\n            );\n    }\n\n    /** @notice Calculate the total amount allocated for both fees and contribution\n            Contribution % is not relavent as contributiones are taken from the fee\n        @dev Percentage to x dp as defined by contributionFeeDecimals e.g.\n            when contributionFeeDecimals is 2, 1200 is 12.00%\n        @return Tokens to cover fees, inclusive of contribution */\n    function calcFeesIncContribution(uint256 _value, uint256 _feeRate)\n        public\n        pure\n        returns (uint256)\n    {\n        uint256 contributionFeeMultiplier = 100 * 10**contributionFeeDecimals;\n        return _value.mul(_feeRate).div(contributionFeeMultiplier);\n    }\n\n    /** @notice Calculate the number of generation periods since the last\n            generation block\n        @return The number of completed periods since last generation block*/\n    function calcNumCompletedPeriods(\n        uint256 _blockNumber,\n        uint256 _lastGenerationBlock,\n        uint256 _generationPeriod\n    ) public pure returns (uint256) {\n        uint256 blocksSinceLastGeneration = _blockNumber.sub(\n            _lastGenerationBlock\n        );\n        return blocksSinceLastGeneration.div(_generationPeriod);\n    }\n\n    /** @notice Calculate the number of tokens decayed since the last transaction\n        @return Number of tokens decayed since last transaction */\n    function calcDecay(\n        uint256 _lastTransactionBlock,\n        uint256 _balance,\n        uint256 _thisBlock,\n        uint256 _zeroBlock\n    ) public pure returns (uint256) {\n        require(\n            _thisBlock >= _lastTransactionBlock,\n            \"Current block must be >= last transaction block\"\n        );\n\n        // If zero block has not been set, decay = 0\n        if (_zeroBlock == 0) {\n            return 0;\n        }\n\n        // If zero block passed, decay all\n        if (_thisBlock >= _zeroBlock) {\n            return _balance;\n        }\n\n        // If no blocks passed since last transfer, nothing to decay\n        uint256 blocksSinceLast = _thisBlock.sub(_lastTransactionBlock);\n        if (blocksSinceLast == 0) {\n            return 0;\n        }\n        /* Otherwise linear burn based on 'distance' moved to zeroblock since\n            last transaction */\n        uint256 fullDistance = _zeroBlock.sub(_lastTransactionBlock);\n        uint256 relativeMovementToZero = blocksSinceLast.mul(multiplier).div(\n            fullDistance\n        );\n        return _balance.mul(relativeMovementToZero).div(multiplier);\n    }\n\n    /** @notice Calculate the block at which the balance for this account will\n            be zero\n        @return Block at which balance is 0 */\n    function calcZeroBlock(\n        uint256 _value,\n        uint256 _balance,\n        uint256 _blockNumber,\n        uint256 _lifetime,\n        uint256 _originalZeroBlock\n    ) public pure returns (uint256) {\n        if (_balance == 0 || _originalZeroBlock == 0) {\n            // No other transaction to consider, so use the full settings.lifetime\n            return _blockNumber.add(_lifetime);\n        }\n\n        /* transactionWeight is the ratio of the transfer value to the total\n            balance after the transfer */\n        uint256 transactionWeight = _value.mul(multiplier).div(\n            _balance.add(_value)\n        );\n\n        /* multiply the full settings.lifetime by this ratio, and add\n            the result to the original zero block */\n        uint256 newZeroBlock = _originalZeroBlock.add(\n            _lifetime.mul(transactionWeight).div(multiplier)\n        );\n\n        if (newZeroBlock > _blockNumber.add(_lifetime)) {\n            newZeroBlock = _blockNumber.add(_lifetime);\n        }\n        return newZeroBlock;\n    }\n\n    /** @notice Calculate the generation accrued since the last generation\n            period\n        @dev This function contains a for loop, so in theory may fail for\n            accounts that have been inactive for an extremely long time. These\n            accounts will have zero balance anyway. */\n    function calcGeneration(\n        uint256 _blockNumber,\n        uint256 _lastGenerationBlock,\n        uint256 _lifetime,\n        uint256 _generationAmount,\n        uint256 _generationPeriod\n    ) public pure returns (uint256) {\n        uint256 numCompletePeriods = calcNumCompletedPeriods(\n            _blockNumber,\n            _lastGenerationBlock,\n            _generationPeriod\n        );\n\n        uint256 decayPerBlock = multiplier.div(_lifetime);\n        uint256 decayPerGenerationPeriod = decayPerBlock.mul(_generationPeriod);\n        uint256 remainingPerGenerationPeriod = multiplier.sub(\n            decayPerGenerationPeriod\n        );\n\n        uint256 generation;\n        for (uint256 i; i < numCompletePeriods; i++) {\n            generation = generation\n                .mul(remainingPerGenerationPeriod)\n                .div(multiplier)\n                .add(_generationAmount);\n        }\n        return generation;\n    }\n}\n",
  "sourcePath": "contracts/Calculations.sol",
  "abi": [
    {
      "inputs": [
        {
          "internalType": "uint256",
          "name": "_value",
          "type": "uint256"
        },
        {
          "internalType": "uint256",
          "name": "_feeRate",
          "type": "uint256"
        },
        {
          "internalType": "uint256",
          "name": "_contributionRate",
          "type": "uint256"
        }
      ],
      "name": "calcContribution",
      "outputs": [
        {
          "internalType": "uint256",
          "name": "",
          "type": "uint256"
        }
      ],
      "stateMutability": "pure",
      "type": "function"
    },
    {
      "inputs": [
        {
          "internalType": "uint256",
          "name": "_lastTransactionBlock",
          "type": "uint256"
        },
        {
          "internalType": "uint256",
          "name": "_balance",
          "type": "uint256"
        },
        {
          "internalType": "uint256",
          "name": "_thisBlock",
          "type": "uint256"
        },
        {
          "internalType": "uint256",
          "name": "_zeroBlock",
          "type": "uint256"
        }
      ],
      "name": "calcDecay",
      "outputs": [
        {
          "internalType": "uint256",
          "name": "",
          "type": "uint256"
        }
      ],
      "stateMutability": "pure",
      "type": "function"
    },
    {
      "inputs": [
        {
          "internalType": "uint256",
          "name": "_value",
          "type": "uint256"
        },
        {
          "internalType": "uint256",
          "name": "_feeRate",
          "type": "uint256"
        }
      ],
      "name": "calcFeesIncContribution",
      "outputs": [
        {
          "internalType": "uint256",
          "name": "",
          "type": "uint256"
        }
      ],
      "stateMutability": "pure",
      "type": "function"
    },
    {
      "inputs": [
        {
          "internalType": "uint256",
          "name": "_value",
          "type": "uint256"
        },
        {
          "internalType": "uint256",
          "name": "_feeRate",
          "type": "uint256"
        },
        {
          "internalType": "uint256",
          "name": "_contributionRate",
          "type": "uint256"
        }
      ],
      "name": "calcFeesToBurn",
      "outputs": [
        {
          "internalType": "uint256",
          "name": "",
          "type": "uint256"
        }
      ],
      "stateMutability": "pure",
      "type": "function"
    },
    {
      "inputs": [
        {
          "internalType": "uint256",
          "name": "_blockNumber",
          "type": "uint256"
        },
        {
          "internalType": "uint256",
          "name": "_lastGenerationBlock",
          "type": "uint256"
        },
        {
          "internalType": "uint256",
          "name": "_lifetime",
          "type": "uint256"
        },
        {
          "internalType": "uint256",
          "name": "_generationAmount",
          "type": "uint256"
        },
        {
          "internalType": "uint256",
          "name": "_generationPeriod",
          "type": "uint256"
        }
      ],
      "name": "calcGeneration",
      "outputs": [
        {
          "internalType": "uint256",
          "name": "",
          "type": "uint256"
        }
      ],
      "stateMutability": "pure",
      "type": "function"
    },
    {
      "inputs": [
        {
          "internalType": "uint256",
          "name": "_blockNumber",
          "type": "uint256"
        },
        {
          "internalType": "uint256",
          "name": "_lastGenerationBlock",
          "type": "uint256"
        },
        {
          "internalType": "uint256",
          "name": "_generationPeriod",
          "type": "uint256"
        }
      ],
      "name": "calcNumCompletedPeriods",
      "outputs": [
        {
          "internalType": "uint256",
          "name": "",
          "type": "uint256"
        }
      ],
      "stateMutability": "pure",
      "type": "function"
    },
    {
      "inputs": [
        {
          "internalType": "uint256",
          "name": "_value",
          "type": "uint256"
        },
        {
          "internalType": "uint256",
          "name": "_balance",
          "type": "uint256"
        },
        {
          "internalType": "uint256",
          "name": "_blockNumber",
          "type": "uint256"
        },
        {
          "internalType": "uint256",
          "name": "_lifetime",
          "type": "uint256"
        },
        {
          "internalType": "uint256",
          "name": "_originalZeroBlock",
          "type": "uint256"
        }
      ],
      "name": "calcZeroBlock",
      "outputs": [
        {
          "internalType": "uint256",
          "name": "",
          "type": "uint256"
        }
      ],
      "stateMutability": "pure",
      "type": "function"
    }
  ],
  "bytecode": "0x610774610026600b82828239805160001a60731461001957fe5b30600052607381538281f3fe73000000000000000000000000000000000000000030146080604052600436106100875760003560e01c80637ee6b8cf116100655780637ee6b8cf1461012557806390e58b9c1461015a578063d6f845821461017d578063f1b4e941146101ac57610087565b8063096d59dd1461008c57806320147c6f146100c7578063542a9c83146100fc575b600080fd5b6100b5600480360360608110156100a257600080fd5b50803590602081013590604001356101d5565b60408051918252519081900360200190f35b6100b5600480360360a08110156100dd57600080fd5b5080359060208101359060408101359060608101359060800135610215565b6100b56004803603606081101561011257600080fd5b50803590602081013590604001356102c8565b6100b5600480360360a081101561013b57600080fd5b50803590602081013590604081013590606081013590608001356102ed565b6100b56004803603604081101561017057600080fd5b508035906020013561038b565b6100b56004803603608081101561019357600080fd5b50803590602081013590604081013590606001356103ae565b6100b5600480360360608110156101c257600080fd5b5080359060208101359060400135610481565b60006305f5e10061020c81610200856101f4898963ffffffff6104b416565b9063ffffffff6104b416565b9063ffffffff61051416565b95945050505050565b6000841580610222575081155b1561023e57610237848463ffffffff61055616565b905061020c565b6000610266610253878963ffffffff61055616565b61020089620f424063ffffffff6104b416565b90506000610291610284620f4240610200888663ffffffff6104b416565b859063ffffffff61055616565b90506102a3868663ffffffff61055616565b8111156102bd576102ba868663ffffffff61055616565b90505b979650505050505050565b6000806102db858563ffffffff6105b016565b905061020c818463ffffffff61051416565b6000806102fb8787856102c8565b90506000610312620f42408763ffffffff61051416565b90506000610326828663ffffffff6104b416565b9050600061033d620f42408363ffffffff6105b016565b90506000805b8581101561037c5761037289610366620f4240610200868863ffffffff6104b416565b9063ffffffff61055616565b9150600101610343565b509a9950505050505050505050565b60006127106103a481610200868663ffffffff6104b416565b9150505b92915050565b6000848310156103ef5760405162461bcd60e51b815260040180806020018281038252602f8152602001806106ef602f913960400191505060405180910390fd5b816103fc57506000610479565b81831061040a575082610479565b600061041c848763ffffffff6105b016565b90508061042d576000915050610479565b600061043f848863ffffffff6105b016565b9050600061045a8261020085620f424063ffffffff6104b416565b9050610473620f4240610200898463ffffffff6104b416565b93505050505b949350505050565b600061271061020c6104948686866101d5565b6104a883610200898963ffffffff6104b416565b9063ffffffff6105b016565b6000826104c3575060006103a8565b828202828482816104d057fe5b041461050d5760405162461bcd60e51b815260040180806020018281038252602181526020018061071e6021913960400191505060405180910390fd5b9392505050565b600061050d83836040518060400160405280601a81526020017f536166654d6174683a206469766973696f6e206279207a65726f0000000000008152506105f2565b60008282018381101561050d576040805162461bcd60e51b815260206004820152601b60248201527f536166654d6174683a206164646974696f6e206f766572666c6f770000000000604482015290519081900360640190fd5b600061050d83836040518060400160405280601e81526020017f536166654d6174683a207375627472616374696f6e206f766572666c6f770000815250610694565b6000818361067e5760405162461bcd60e51b81526004018080602001828103825283818151815260200191508051906020019080838360005b8381101561064357818101518382015260200161062b565b50505050905090810190601f1680156106705780820380516001836020036101000a031916815260200191505b509250505060405180910390fd5b50600083858161068a57fe5b0495945050505050565b600081848411156106e65760405162461bcd60e51b815260206004820181815283516024840152835190928392604490910191908501908083836000831561064357818101518382015260200161062b565b50505090039056fe43757272656e7420626c6f636b206d757374206265203e3d206c617374207472616e73616374696f6e20626c6f636b536166654d6174683a206d756c7469706c69636174696f6e206f766572666c6f77a2646970667358221220a97cc300b23ed8389adfc18056afd38e2a0965d9a85317cd59283ed3fafbb48264736f6c63430006060033",
  "compiler": {
    "name": "solc",
    "version": "0.6.6+commit.6c089d02.Emscripten.clang",
    "optimizer": {
      "enabled": true,
      "runs": 200
    },
    "evmVersion": "petersburg"
  }
}