{
  "fileName": "FusedController.sol",
  "contractName": "FusedController",
  "source": "pragma solidity ^0.6.6;\n\nimport \"./lib/contracts-ethereum-package/Initializable.sol\";\n\n/**\n    @title A controllable contract that can incrementally transition to an\n        immutable contract\n    @author Marc Griffiths, Value Instrument, the enkel collective\n    @notice Provides special permisions to a controller account or contract,\n        while allowing those special permissions to be discarded at any time */\n\ncontract FusedController is Initializable {\n    address public controller;\n    // address with priviledges to adjust settings, add accounts etc\n\n    bool allFusesBlown;\n    // set this to true to blow all fuses\n\n    bool[32] fuseBlown;\n    /* allows a seperate fuse for distinct functions, so that those functions\n    can be disabled */\n\n    event BlowFuse(uint8 _fuseID);\n    event BlowAllFuses();\n    event ChangeController(address _newController);\n\n    function initialize(address _controller) public initializer {\n        if (_controller == address(0)) {\n            controller = msg.sender;\n        } else {\n            controller = _controller;\n        }\n    }\n\n    /// Modifiers\n\n    modifier fused(uint8 _fuseID) {\n        require(allFusesBlown == false, \"Function fuse has been triggered\");\n        require(\n            fuseBlown[_fuseID] == false,\n            \"Function fuse has been triggered\"\n        );\n        _;\n    }\n    modifier onlyController() {\n        require(msg.sender == controller, \"Controller account/contract only\");\n        _;\n    }\n\n    function blowAllFuses(bool _confirm) external onlyController {\n        require(\n            _confirm,\n            \"This will permanently disable function all fused functions, please set _confirm=true to confirm\"\n        );\n        allFusesBlown = true;\n        emit BlowAllFuses();\n    }\n\n    function blowFuse(uint8 _fuseID, bool _confirm) external onlyController {\n        require(\n            _confirm == true,\n            \"This will permanently disable function, please set _confirm=true to confirm\"\n        );\n        fuseBlown[_fuseID] = true;\n        emit BlowFuse(_fuseID);\n    }\n\n    function changeController(address _newController) external onlyController {\n        controller = _newController;\n        emit ChangeController(_newController);\n    }\n}\n",
  "sourcePath": "contracts/FusedController.sol",
  "abi": [
    {
      "anonymous": false,
      "inputs": [],
      "name": "BlowAllFuses",
      "type": "event"
    },
    {
      "anonymous": false,
      "inputs": [
        {
          "indexed": false,
          "internalType": "uint8",
          "name": "_fuseID",
          "type": "uint8"
        }
      ],
      "name": "BlowFuse",
      "type": "event"
    },
    {
      "anonymous": false,
      "inputs": [
        {
          "indexed": false,
          "internalType": "address",
          "name": "_newController",
          "type": "address"
        }
      ],
      "name": "ChangeController",
      "type": "event"
    },
    {
      "inputs": [
        {
          "internalType": "bool",
          "name": "_confirm",
          "type": "bool"
        }
      ],
      "name": "blowAllFuses",
      "outputs": [],
      "stateMutability": "nonpayable",
      "type": "function"
    },
    {
      "inputs": [
        {
          "internalType": "uint8",
          "name": "_fuseID",
          "type": "uint8"
        },
        {
          "internalType": "bool",
          "name": "_confirm",
          "type": "bool"
        }
      ],
      "name": "blowFuse",
      "outputs": [],
      "stateMutability": "nonpayable",
      "type": "function"
    },
    {
      "inputs": [
        {
          "internalType": "address",
          "name": "_newController",
          "type": "address"
        }
      ],
      "name": "changeController",
      "outputs": [],
      "stateMutability": "nonpayable",
      "type": "function"
    },
    {
      "inputs": [],
      "name": "controller",
      "outputs": [
        {
          "internalType": "address",
          "name": "",
          "type": "address"
        }
      ],
      "stateMutability": "view",
      "type": "function"
    },
    {
      "inputs": [
        {
          "internalType": "address",
          "name": "_controller",
          "type": "address"
        }
      ],
      "name": "initialize",
      "outputs": [],
      "stateMutability": "nonpayable",
      "type": "function"
    }
  ],
  "bytecode": "0x608060405234801561001057600080fd5b506105bb806100206000396000f3fe608060405234801561001057600080fd5b50600436106100575760003560e01c80633cebb8231461005c578063c4d66de814610084578063e3321e1f146100aa578063e49ac4cd146100d2578063f77c4791146100f1575b600080fd5b6100826004803603602081101561007257600080fd5b50356001600160a01b0316610115565b005b6100826004803603602081101561009a57600080fd5b50356001600160a01b03166101c8565b610082600480360360408110156100c057600080fd5b5060ff813516906020013515156102ac565b610082600480360360208110156100e857600080fd5b503515156103be565b6100f9610498565b604080516001600160a01b039092168252519081900360200190f35b6033546001600160a01b03163314610174576040805162461bcd60e51b815260206004820181905260248201527f436f6e74726f6c6c6572206163636f756e742f636f6e7472616374206f6e6c79604482015290519081900360640190fd5b603380546001600160a01b0383166001600160a01b0319909116811790915560408051918252517fc0c3fe6333763f87ec50ad1366067ab6f03fd677c62f3c20e50e9446afd32ef69181900360200190a150565b600054610100900460ff16806101e157506101e16104a7565b806101ef575060005460ff16155b61022a5760405162461bcd60e51b815260040180806020018281038252602e8152602001806104f9602e913960400191505060405180910390fd5b600054610100900460ff16158015610255576000805460ff1961ff0019909116610100171660011790555b6001600160a01b03821661027a57603380546001600160a01b03191633179055610296565b603380546001600160a01b0319166001600160a01b0384161790555b80156102a8576000805461ff00191690555b5050565b6033546001600160a01b0316331461030b576040805162461bcd60e51b815260206004820181905260248201527f436f6e74726f6c6c6572206163636f756e742f636f6e7472616374206f6e6c79604482015290519081900360640190fd5b60018115151461034c5760405162461bcd60e51b815260040180806020018281038252604b8152602001806104ae604b913960600191505060405180910390fd5b600160348360ff166020811061035e57fe5b602091828204019190066101000a81548160ff0219169083151502179055507f0a1c4fbbe900dd991589095fcecc99c37b45915eb6e6574e7398954e874bbebe82604051808260ff1660ff16815260200191505060405180910390a15050565b6033546001600160a01b0316331461041d576040805162461bcd60e51b815260206004820181905260248201527f436f6e74726f6c6c6572206163636f756e742f636f6e7472616374206f6e6c79604482015290519081900360640190fd5b806104595760405162461bcd60e51b815260040180806020018281038252605f815260200180610527605f913960600191505060405180910390fd5b6033805460ff60a01b1916600160a01b1790556040517f3f6efc34971655abc7da08a1bf5e861a7e41e21c617aa42f0a9e1643ed4c199d90600090a150565b6033546001600160a01b031681565b303b159056fe546869732077696c6c207065726d616e656e746c792064697361626c652066756e6374696f6e2c20706c6561736520736574205f636f6e6669726d3d7472756520746f20636f6e6669726d436f6e747261637420696e7374616e63652068617320616c7265616479206265656e20696e697469616c697a6564546869732077696c6c207065726d616e656e746c792064697361626c652066756e6374696f6e20616c6c2066757365642066756e6374696f6e732c20706c6561736520736574205f636f6e6669726d3d7472756520746f20636f6e6669726da26469706673582212200aaa0de88649da2d2fd66b16e9ef944887746ee51d36659661a0f8ae96abbc0064736f6c63430006060033",
  "compiler": {
    "name": "solc",
    "version": "0.6.6+commit.6c089d02.Emscripten.clang",
    "optimizer": {
      "enabled": true,
      "runs": 200
    },
    "evmVersion": "petersburg"
  }
}