{
  "fileName": "VICoin.sol",
  "contractName": "VICoin",
  "source": "pragma solidity ^0.6.6;\n\n/**\n    @title An open source smart contract for a UBI token with demurrage that\n        gives control of the currency to the community, with adjustable\n        parameters.\n    @author The Value Instrument Team\n    @notice \n    @dev This contract was developed for solc 0.6.6\n*/\n\nimport \"./lib/contracts-ethereum-package/token/ERC20/ERC20Burnable.sol\";\nimport \"./lib/contracts-ethereum-package/math/SafeMath.sol\";\nimport \"./FusedController.sol\";\nimport \"./lib/contracts-ethereum-package/Initializable.sol\";\nimport \"./Calculations.sol\";\n\nstruct Settings {\n  // number of blocks until balance decays to zero\n  uint256 lifetime;\n  // blocks between each generation period\n  uint256 generationPeriod;\n  // tokens issued to each account at each generation period\n  uint256 generationAmount;\n  // starting balance for a new account\n  uint256 initialBalance;\n  // contribution % taken from the transaction fee on every transfer\n  uint256 communityContribution;\n  // transaction fee % taken from every transfer\n  uint256 transactionFee;\n  // account that receives the contribution payments\n  address communityContributionAccount;\n}\n\n/// @notice One contract is deployed for each community\n/// @dev Based on openzeppelin's burnable and mintable ERC20 tokens\ncontract VICoin is Initializable, ERC20BurnableUpgradeSafe, FusedController {\n  using SafeMath for uint256;\n  using SafeMath for int256;\n\n  Settings settings;\n  mapping(address => uint256) public lastTransactionBlock;\n  mapping(address => uint256) public lastGenerationBlock;\n  mapping(address => uint256) public zeroBlock;\n  mapping(address => bool) public accountApproved;\n  uint256 public numAccounts;\n\n  event TransferSummary(\n    address indexed from,\n    address indexed to,\n    uint256 value,\n    uint256 feesBurned,\n    uint256 contribution,\n    uint256 payoutSender,\n    uint256 payoutRecipient\n  );\n  event VerifyAccount(address indexed account);\n  event UnapproveAccount(address account);\n  event Log(string name, uint256 value);\n\n  function initialize(\n    string memory _name,\n    string memory _symbol,\n    uint256 _lifetime,\n    uint256 _generationAmount,\n    uint256 _generationPeriod,\n    uint256 _communityContribution,\n    uint256 _transactionFee,\n    uint256 _initialBalance,\n    address _communityContributionAccount,\n    address _controller\n  ) public initializer {\n    FusedController.initialize(_controller);\n    __ERC20_init(_name, _symbol);\n\n    address communityContributionAccount = _communityContributionAccount;\n    if (_communityContributionAccount == address(0)) {\n      communityContributionAccount = msg.sender;\n    }\n\n    settings.lifetime = _lifetime;\n    settings.generationAmount = _generationAmount;\n    settings.generationPeriod = _generationPeriod;\n    settings.communityContribution = _communityContribution;\n    settings.transactionFee = _transactionFee;\n    settings.initialBalance = _initialBalance;\n    settings.communityContributionAccount = communityContributionAccount;\n\n    numAccounts = 0;\n  }\n\n  receive() external payable {\n    revert(\"Do not send money to the contract\");\n  }\n\n  /** @notice Manually trigger an onchain update of the live balance\n        @return Generation accrued since last balance update */\n  function triggerOnchainBalanceUpdate(address _account)\n    public\n    returns (uint256)\n  {\n    // 1. Decay the balance\n    uint256 decay = Calculations.calcDecay(\n      lastTransactionBlock[_account],\n      balanceOf(_account),\n      block.number,\n      zeroBlock[_account]\n    );\n    uint256 decayedBalance;\n    if (decay > 0) {\n      // decayedBalance = burnAt(_account, decay);\n      _burn(_account, decay);\n      decayedBalance = balanceOf(_account);\n    } else {\n      decayedBalance = balanceOf(_account);\n    }\n\n    // 2. Generate tokens\n    uint256 generationAccrued;\n    if (accountApproved[_account]) {\n      // Calculate the accrued generation, taking into account decay\n      generationAccrued = Calculations.calcGeneration(\n        block.number,\n        lastGenerationBlock[_account],\n        settings.lifetime,\n        settings.generationAmount,\n        settings.generationPeriod\n      );\n\n      if (generationAccrued > 0) {\n        // Issue the generated tokens\n        _mint(_account, generationAccrued);\n\n        // Record the last generation block\n        lastGenerationBlock[_account] += Calculations\n          .calcNumCompletedPeriods(\n          block\n            .number,\n          lastGenerationBlock[_account],\n          settings\n            .generationPeriod\n        )\n          .mul(settings.generationPeriod);\n\n        // Extend the zero block\n        zeroBlock[_account] = Calculations.calcZeroBlock(\n          generationAccrued,\n          decayedBalance,\n          block.number,\n          settings.lifetime,\n          zeroBlock[_account]\n        );\n      }\n    }\n    // Record the last transaction block\n    if (decay > 0 || generationAccrued > 0) {\n      lastTransactionBlock[_account] = block.number;\n    }\n    return generationAccrued;\n  }\n\n  /** @notice Return the real balance of the account, as of this block\n        @return Latest balance */\n  function liveBalanceOf(address _account) public view returns (uint256) {\n    uint256 decay = Calculations.calcDecay(\n      lastTransactionBlock[_account],\n      balanceOf(_account),\n      block.number,\n      zeroBlock[_account]\n    );\n    uint256 decayedBalance = balanceOf(_account).sub(decay);\n    if (lastGenerationBlock[_account] == 0) {\n      return (decayedBalance);\n    }\n    uint256 generationAccrued = 0;\n    if (accountApproved[_account]) {\n      generationAccrued = Calculations.calcGeneration(\n        block.number,\n        lastGenerationBlock[_account],\n        settings.lifetime,\n        settings.generationAmount,\n        settings.generationPeriod\n      );\n    }\n    return decayedBalance.add(generationAccrued);\n  }\n\n  /** @notice Transfer the currency from one account to another,\n                updating each account to reflect the time passed, and the\n                effects of the transfer\n        @return Success */\n  function transfer(address _to, uint256 _value)\n    public\n    override\n    returns (bool)\n  {\n    uint256 feesBurned;\n    uint256 contribution;\n    // Process generation and decay for sender\n    emit Log(\"Sender balance before update\", balanceOf(msg.sender));\n    uint256 generationAccruedSender = triggerOnchainBalanceUpdate(msg.sender);\n    emit Log(\"Sender balance after update\", balanceOf(msg.sender));\n\n    // Process generation and decay for recipient\n    emit Log(\"Recipient balance before update\", balanceOf(_to));\n    uint256 generationAccruedRecipient = triggerOnchainBalanceUpdate(_to);\n    emit Log(\"Recipient balance after update\", balanceOf(_to));\n\n    require(\n      balanceOf(msg.sender) >= _value,\n      \"Not enough balance to make transfer\"\n    );\n\n    // Process fees and contribution\n    (feesBurned, contribution) = processFeesAndContribution(\n      _value,\n      settings.transactionFee,\n      settings.communityContribution\n    );\n    uint256 valueAfterFees = _value.sub(feesBurned).sub(contribution);\n\n    //Extend zero block based on transfer\n    zeroBlock[_to] = Calculations.calcZeroBlock(\n      valueAfterFees,\n      balanceOf(_to),\n      block.number,\n      settings.lifetime,\n      zeroBlock[_to]\n    );\n\n    /* If they haven't already been updated (during decay or generation),\n            then update the lastTransactionBlock for both sender and recipient */\n    if (lastTransactionBlock[_to] != block.number) {\n      lastTransactionBlock[_to] = block.number;\n    }\n    if (lastTransactionBlock[msg.sender] != block.number) {\n      lastTransactionBlock[msg.sender] = block.number;\n    }\n\n    super.transfer(_to, valueAfterFees);\n    emit TransferSummary(\n      msg.sender,\n      _to,\n      valueAfterFees,\n      feesBurned,\n      contribution,\n      generationAccruedSender,\n      generationAccruedRecipient\n    );\n    return true;\n  }\n\n  /// @notice transferFrom disabled\n  function transferFrom(\n    address,\n    address,\n    uint256\n  ) public override returns (bool) {\n    revert(\"transferFrom disabled\");\n  }\n\n  /** @notice Calculate the fees and contribution, send contribution to the communtiy account,\n            and burn the fees\n        @dev Percentage to x dp as defined by contributionFeeDecimals e.g.\n            when contributionFeeDecimals is 2, 1200 is 12.00%\n        @return The total amount used for fees and contribution */\n  function processFeesAndContribution(\n    uint256 _value,\n    uint256 _transactionFee,\n    uint256 _communityContribution\n  ) internal returns (uint256, uint256) {\n    uint256 feesIncContribution = Calculations.calcFeesIncContribution(\n      _value,\n      _transactionFee\n    );\n    uint256 contribution = Calculations.calcContribution(\n      _value,\n      _transactionFee,\n      _communityContribution\n    );\n    uint256 feesToBurn = Calculations.calcFeesToBurn(\n      _value,\n      _transactionFee,\n      _communityContribution\n    );\n    require(\n      feesIncContribution == contribution.add(feesToBurn),\n      \"feesIncContribution should equal contribution + feesToBurn\"\n    );\n\n    if (feesToBurn > 0) {\n      super.burn(feesToBurn);\n    }\n\n    if (contribution > 0) {\n      super.transfer(settings.communityContributionAccount, contribution);\n    }\n\n    return (feesToBurn, contribution);\n  }\n\n  /** @notice Unapprove the specified account so that it no longer receives\n        generation */\n  function unapproveAccount(address _account) external onlyController fused(6) {\n    accountApproved[_account] = false;\n    emit UnapproveAccount(_account);\n  }\n\n  /** @notice Create a new account with the specified role\n        @dev New accounts can always be created.\n            This function can't be disabled. */\n  function verifyAccount(address _account) external onlyController {\n    accountApproved[_account] = true;\n    if (settings.initialBalance > 0 && lastTransactionBlock[_account] == 0) {\n      // This is a new account !\n      numAccounts++;\n      _mint(_account, settings.initialBalance);\n      zeroBlock[_account] = block.number.add(settings.lifetime);\n      lastTransactionBlock[_account] = block.number;\n    }\n    lastGenerationBlock[_account] = block.number;\n    emit VerifyAccount(_account);\n    emit TransferSummary(\n      address(this),\n      _account,\n      settings.initialBalance,\n      0,\n      0,\n      0,\n      0\n    );\n  }\n\n  /** @notice Get the number of tokens issued to each account after each\n            generation period\n        @return Number of tokens issued at each generation period */\n  function getGenerationAmount() public view returns (uint256) {\n    return settings.generationAmount;\n  }\n\n  /// @notice Get essential details for the account\n  function getDetails(address _account)\n    public\n    view\n    returns (\n      uint256 _lastBlock,\n      uint256 _balance,\n      uint256 _zeroBlock\n    )\n  {\n    _lastBlock = lastTransactionBlock[_account];\n    _balance = balanceOf(_account);\n    _zeroBlock = zeroBlock[_account];\n  }\n\n  /** @notice Return the current block number\n        @return Current block number */\n  function getBlockNumber() public view returns (uint256) {\n    return block.number;\n  }\n\n  /** @notice Return lifetime\n        @return Number of blocks until balance decays to zero\n     */\n  function getLifetime() external view returns (uint256) {\n    return settings.lifetime;\n  }\n\n  /** @notice Return generation period\n        @return Number of blocks between each generation period\n    */\n  function getGenerationPeriod() external view returns (uint256) {\n    return settings.generationPeriod;\n  }\n\n  /** @notice Return initial balance\n        @return Number of tokens issued when an account is first verified */\n  function getInitialBalance() external view returns (uint256) {\n    return settings.initialBalance;\n  }\n\n  /** @notice Return community contribution, to 2 decimal places\n        @return The percentage that will be taken from the transaction fee \n                as a community contribution (2 d.p) */\n  function getCommunityContribution() external view returns (uint256) {\n    return settings.communityContribution;\n  }\n\n  /** @notice Return transaction fee, to 2 decimal places\n        @return The percentage that will be taken from each transaction as a fee (2 d.p) */\n  function getTransactionFee() external view returns (uint256) {\n    return settings.transactionFee;\n  }\n\n  /** @notice Return the community contribution account\n        @return The address that the community contribution is sent to */\n  function getCommunityContributionAccount() external view returns (address) {\n    return settings.communityContributionAccount;\n  }\n}\n",
  "sourcePath": "contracts/VICoin.sol",
  "abi": [
    {
      "anonymous": false,
      "inputs": [
        {
          "indexed": true,
          "internalType": "address",
          "name": "owner",
          "type": "address"
        },
        {
          "indexed": true,
          "internalType": "address",
          "name": "spender",
          "type": "address"
        },
        {
          "indexed": false,
          "internalType": "uint256",
          "name": "value",
          "type": "uint256"
        }
      ],
      "name": "Approval",
      "type": "event"
    },
    {
      "anonymous": false,
      "inputs": [],
      "name": "BlowAllFuses",
      "type": "event"
    },
    {
      "anonymous": false,
      "inputs": [
        {
          "indexed": false,
          "internalType": "uint8",
          "name": "_fuseID",
          "type": "uint8"
        }
      ],
      "name": "BlowFuse",
      "type": "event"
    },
    {
      "anonymous": false,
      "inputs": [
        {
          "indexed": false,
          "internalType": "address",
          "name": "_newController",
          "type": "address"
        }
      ],
      "name": "ChangeController",
      "type": "event"
    },
    {
      "anonymous": false,
      "inputs": [
        {
          "indexed": false,
          "internalType": "string",
          "name": "name",
          "type": "string"
        },
        {
          "indexed": false,
          "internalType": "uint256",
          "name": "value",
          "type": "uint256"
        }
      ],
      "name": "Log",
      "type": "event"
    },
    {
      "anonymous": false,
      "inputs": [
        {
          "indexed": true,
          "internalType": "address",
          "name": "from",
          "type": "address"
        },
        {
          "indexed": true,
          "internalType": "address",
          "name": "to",
          "type": "address"
        },
        {
          "indexed": false,
          "internalType": "uint256",
          "name": "value",
          "type": "uint256"
        }
      ],
      "name": "Transfer",
      "type": "event"
    },
    {
      "anonymous": false,
      "inputs": [
        {
          "indexed": true,
          "internalType": "address",
          "name": "from",
          "type": "address"
        },
        {
          "indexed": true,
          "internalType": "address",
          "name": "to",
          "type": "address"
        },
        {
          "indexed": false,
          "internalType": "uint256",
          "name": "value",
          "type": "uint256"
        },
        {
          "indexed": false,
          "internalType": "uint256",
          "name": "feesBurned",
          "type": "uint256"
        },
        {
          "indexed": false,
          "internalType": "uint256",
          "name": "contribution",
          "type": "uint256"
        },
        {
          "indexed": false,
          "internalType": "uint256",
          "name": "payoutSender",
          "type": "uint256"
        },
        {
          "indexed": false,
          "internalType": "uint256",
          "name": "payoutRecipient",
          "type": "uint256"
        }
      ],
      "name": "TransferSummary",
      "type": "event"
    },
    {
      "anonymous": false,
      "inputs": [
        {
          "indexed": false,
          "internalType": "address",
          "name": "account",
          "type": "address"
        }
      ],
      "name": "UnapproveAccount",
      "type": "event"
    },
    {
      "anonymous": false,
      "inputs": [
        {
          "indexed": true,
          "internalType": "address",
          "name": "account",
          "type": "address"
        }
      ],
      "name": "VerifyAccount",
      "type": "event"
    },
    {
      "inputs": [
        {
          "internalType": "address",
          "name": "",
          "type": "address"
        }
      ],
      "name": "accountApproved",
      "outputs": [
        {
          "internalType": "bool",
          "name": "",
          "type": "bool"
        }
      ],
      "stateMutability": "view",
      "type": "function"
    },
    {
      "inputs": [
        {
          "internalType": "address",
          "name": "owner",
          "type": "address"
        },
        {
          "internalType": "address",
          "name": "spender",
          "type": "address"
        }
      ],
      "name": "allowance",
      "outputs": [
        {
          "internalType": "uint256",
          "name": "",
          "type": "uint256"
        }
      ],
      "stateMutability": "view",
      "type": "function"
    },
    {
      "inputs": [
        {
          "internalType": "address",
          "name": "spender",
          "type": "address"
        },
        {
          "internalType": "uint256",
          "name": "amount",
          "type": "uint256"
        }
      ],
      "name": "approve",
      "outputs": [
        {
          "internalType": "bool",
          "name": "",
          "type": "bool"
        }
      ],
      "stateMutability": "nonpayable",
      "type": "function"
    },
    {
      "inputs": [
        {
          "internalType": "address",
          "name": "account",
          "type": "address"
        }
      ],
      "name": "balanceOf",
      "outputs": [
        {
          "internalType": "uint256",
          "name": "",
          "type": "uint256"
        }
      ],
      "stateMutability": "view",
      "type": "function"
    },
    {
      "inputs": [
        {
          "internalType": "bool",
          "name": "_confirm",
          "type": "bool"
        }
      ],
      "name": "blowAllFuses",
      "outputs": [],
      "stateMutability": "nonpayable",
      "type": "function"
    },
    {
      "inputs": [
        {
          "internalType": "uint8",
          "name": "_fuseID",
          "type": "uint8"
        },
        {
          "internalType": "bool",
          "name": "_confirm",
          "type": "bool"
        }
      ],
      "name": "blowFuse",
      "outputs": [],
      "stateMutability": "nonpayable",
      "type": "function"
    },
    {
      "inputs": [
        {
          "internalType": "uint256",
          "name": "amount",
          "type": "uint256"
        }
      ],
      "name": "burn",
      "outputs": [],
      "stateMutability": "nonpayable",
      "type": "function"
    },
    {
      "inputs": [
        {
          "internalType": "address",
          "name": "account",
          "type": "address"
        },
        {
          "internalType": "uint256",
          "name": "amount",
          "type": "uint256"
        }
      ],
      "name": "burnAt",
      "outputs": [],
      "stateMutability": "nonpayable",
      "type": "function"
    },
    {
      "inputs": [
        {
          "internalType": "address",
          "name": "account",
          "type": "address"
        },
        {
          "internalType": "uint256",
          "name": "amount",
          "type": "uint256"
        }
      ],
      "name": "burnFrom",
      "outputs": [],
      "stateMutability": "nonpayable",
      "type": "function"
    },
    {
      "inputs": [
        {
          "internalType": "address",
          "name": "_newController",
          "type": "address"
        }
      ],
      "name": "changeController",
      "outputs": [],
      "stateMutability": "nonpayable",
      "type": "function"
    },
    {
      "inputs": [],
      "name": "controller",
      "outputs": [
        {
          "internalType": "address",
          "name": "",
          "type": "address"
        }
      ],
      "stateMutability": "view",
      "type": "function"
    },
    {
      "inputs": [],
      "name": "decimals",
      "outputs": [
        {
          "internalType": "uint8",
          "name": "",
          "type": "uint8"
        }
      ],
      "stateMutability": "view",
      "type": "function"
    },
    {
      "inputs": [
        {
          "internalType": "address",
          "name": "spender",
          "type": "address"
        },
        {
          "internalType": "uint256",
          "name": "subtractedValue",
          "type": "uint256"
        }
      ],
      "name": "decreaseAllowance",
      "outputs": [
        {
          "internalType": "bool",
          "name": "",
          "type": "bool"
        }
      ],
      "stateMutability": "nonpayable",
      "type": "function"
    },
    {
      "inputs": [],
      "name": "getBlockNumber",
      "outputs": [
        {
          "internalType": "uint256",
          "name": "",
          "type": "uint256"
        }
      ],
      "stateMutability": "view",
      "type": "function"
    },
    {
      "inputs": [],
      "name": "getCommunityContribution",
      "outputs": [
        {
          "internalType": "uint256",
          "name": "",
          "type": "uint256"
        }
      ],
      "stateMutability": "view",
      "type": "function"
    },
    {
      "inputs": [],
      "name": "getCommunityContributionAccount",
      "outputs": [
        {
          "internalType": "address",
          "name": "",
          "type": "address"
        }
      ],
      "stateMutability": "view",
      "type": "function"
    },
    {
      "inputs": [
        {
          "internalType": "address",
          "name": "_account",
          "type": "address"
        }
      ],
      "name": "getDetails",
      "outputs": [
        {
          "internalType": "uint256",
          "name": "_lastBlock",
          "type": "uint256"
        },
        {
          "internalType": "uint256",
          "name": "_balance",
          "type": "uint256"
        },
        {
          "internalType": "uint256",
          "name": "_zeroBlock",
          "type": "uint256"
        }
      ],
      "stateMutability": "view",
      "type": "function"
    },
    {
      "inputs": [],
      "name": "getGenerationAmount",
      "outputs": [
        {
          "internalType": "uint256",
          "name": "",
          "type": "uint256"
        }
      ],
      "stateMutability": "view",
      "type": "function"
    },
    {
      "inputs": [],
      "name": "getGenerationPeriod",
      "outputs": [
        {
          "internalType": "uint256",
          "name": "",
          "type": "uint256"
        }
      ],
      "stateMutability": "view",
      "type": "function"
    },
    {
      "inputs": [],
      "name": "getInitialBalance",
      "outputs": [
        {
          "internalType": "uint256",
          "name": "",
          "type": "uint256"
        }
      ],
      "stateMutability": "view",
      "type": "function"
    },
    {
      "inputs": [],
      "name": "getLifetime",
      "outputs": [
        {
          "internalType": "uint256",
          "name": "",
          "type": "uint256"
        }
      ],
      "stateMutability": "view",
      "type": "function"
    },
    {
      "inputs": [],
      "name": "getTransactionFee",
      "outputs": [
        {
          "internalType": "uint256",
          "name": "",
          "type": "uint256"
        }
      ],
      "stateMutability": "view",
      "type": "function"
    },
    {
      "inputs": [
        {
          "internalType": "address",
          "name": "spender",
          "type": "address"
        },
        {
          "internalType": "uint256",
          "name": "addedValue",
          "type": "uint256"
        }
      ],
      "name": "increaseAllowance",
      "outputs": [
        {
          "internalType": "bool",
          "name": "",
          "type": "bool"
        }
      ],
      "stateMutability": "nonpayable",
      "type": "function"
    },
    {
      "inputs": [
        {
          "internalType": "string",
          "name": "_name",
          "type": "string"
        },
        {
          "internalType": "string",
          "name": "_symbol",
          "type": "string"
        },
        {
          "internalType": "uint256",
          "name": "_lifetime",
          "type": "uint256"
        },
        {
          "internalType": "uint256",
          "name": "_generationAmount",
          "type": "uint256"
        },
        {
          "internalType": "uint256",
          "name": "_generationPeriod",
          "type": "uint256"
        },
        {
          "internalType": "uint256",
          "name": "_communityContribution",
          "type": "uint256"
        },
        {
          "internalType": "uint256",
          "name": "_transactionFee",
          "type": "uint256"
        },
        {
          "internalType": "uint256",
          "name": "_initialBalance",
          "type": "uint256"
        },
        {
          "internalType": "address",
          "name": "_communityContributionAccount",
          "type": "address"
        },
        {
          "internalType": "address",
          "name": "_controller",
          "type": "address"
        }
      ],
      "name": "initialize",
      "outputs": [],
      "stateMutability": "nonpayable",
      "type": "function"
    },
    {
      "inputs": [
        {
          "internalType": "address",
          "name": "_controller",
          "type": "address"
        }
      ],
      "name": "initialize",
      "outputs": [],
      "stateMutability": "nonpayable",
      "type": "function"
    },
    {
      "inputs": [
        {
          "internalType": "address",
          "name": "",
          "type": "address"
        }
      ],
      "name": "lastGenerationBlock",
      "outputs": [
        {
          "internalType": "uint256",
          "name": "",
          "type": "uint256"
        }
      ],
      "stateMutability": "view",
      "type": "function"
    },
    {
      "inputs": [
        {
          "internalType": "address",
          "name": "",
          "type": "address"
        }
      ],
      "name": "lastTransactionBlock",
      "outputs": [
        {
          "internalType": "uint256",
          "name": "",
          "type": "uint256"
        }
      ],
      "stateMutability": "view",
      "type": "function"
    },
    {
      "inputs": [
        {
          "internalType": "address",
          "name": "_account",
          "type": "address"
        }
      ],
      "name": "liveBalanceOf",
      "outputs": [
        {
          "internalType": "uint256",
          "name": "",
          "type": "uint256"
        }
      ],
      "stateMutability": "view",
      "type": "function"
    },
    {
      "inputs": [],
      "name": "name",
      "outputs": [
        {
          "internalType": "string",
          "name": "",
          "type": "string"
        }
      ],
      "stateMutability": "view",
      "type": "function"
    },
    {
      "inputs": [],
      "name": "numAccounts",
      "outputs": [
        {
          "internalType": "uint256",
          "name": "",
          "type": "uint256"
        }
      ],
      "stateMutability": "view",
      "type": "function"
    },
    {
      "inputs": [],
      "name": "symbol",
      "outputs": [
        {
          "internalType": "string",
          "name": "",
          "type": "string"
        }
      ],
      "stateMutability": "view",
      "type": "function"
    },
    {
      "inputs": [],
      "name": "totalSupply",
      "outputs": [
        {
          "internalType": "uint256",
          "name": "",
          "type": "uint256"
        }
      ],
      "stateMutability": "view",
      "type": "function"
    },
    {
      "inputs": [
        {
          "internalType": "address",
          "name": "_to",
          "type": "address"
        },
        {
          "internalType": "uint256",
          "name": "_value",
          "type": "uint256"
        }
      ],
      "name": "transfer",
      "outputs": [
        {
          "internalType": "bool",
          "name": "",
          "type": "bool"
        }
      ],
      "stateMutability": "nonpayable",
      "type": "function"
    },
    {
      "inputs": [
        {
          "internalType": "address",
          "name": "",
          "type": "address"
        },
        {
          "internalType": "address",
          "name": "",
          "type": "address"
        },
        {
          "internalType": "uint256",
          "name": "",
          "type": "uint256"
        }
      ],
      "name": "transferFrom",
      "outputs": [
        {
          "internalType": "bool",
          "name": "",
          "type": "bool"
        }
      ],
      "stateMutability": "nonpayable",
      "type": "function"
    },
    {
      "inputs": [
        {
          "internalType": "address",
          "name": "_account",
          "type": "address"
        }
      ],
      "name": "triggerOnchainBalanceUpdate",
      "outputs": [
        {
          "internalType": "uint256",
          "name": "",
          "type": "uint256"
        }
      ],
      "stateMutability": "nonpayable",
      "type": "function"
    },
    {
      "inputs": [
        {
          "internalType": "address",
          "name": "_account",
          "type": "address"
        }
      ],
      "name": "unapproveAccount",
      "outputs": [],
      "stateMutability": "nonpayable",
      "type": "function"
    },
    {
      "inputs": [
        {
          "internalType": "address",
          "name": "_account",
          "type": "address"
        }
      ],
      "name": "verifyAccount",
      "outputs": [],
      "stateMutability": "nonpayable",
      "type": "function"
    },
    {
      "inputs": [
        {
          "internalType": "address",
          "name": "",
          "type": "address"
        }
      ],
      "name": "zeroBlock",
      "outputs": [
        {
          "internalType": "uint256",
          "name": "",
          "type": "uint256"
        }
      ],
      "stateMutability": "view",
      "type": "function"
    },
    {
      "stateMutability": "payable",
      "type": "receive"
    }
  ],
  "bytecode": "0x608060405234801561001057600080fd5b50612dbb806100206000396000f3fe6080604052600436106102295760003560e01c806381e6e08311610123578063a990ecd4116100ab578063ed52f1821161006f578063ed52f182146109ce578063f16dfbe914610a01578063f77c479114610a34578063f9128ed514610a49578063fbda28dc14610a7c57610265565b8063a990ecd4146108ea578063c4d66de8146108ff578063dd62ed3e14610932578063e3321e1f1461096d578063e49ac4cd146109a257610265565b80639803f216116100f25780639803f216146107f75780639a40e4a114610830578063a457c2d714610845578063a70760381461087e578063a9059cbb146108b157610265565b806381e6e083146107a357806385d79102146107b85780638ce25a93146107cd57806395d89b41146107e257610265565b8063313ce567116101b1578063544aeaf611610175578063544aeaf6146106be5780636f22c0b5146106f15780636fb17cc51461072257806370a082311461073757806379cc67901461076a57610265565b8063313ce567146105e857806339509351146106135780633cebb8231461064c57806342966c681461067f57806342cbb15c146106a957610265565b806318160ddd116101f857806318160ddd1461039b578063194462da146103b05780631d718f041461052157806323b872dd1461055457806330289c611461059757610265565b806302a69e481461026a57806306fdde03146102af578063095ea7b3146103395780630db146e61461038657610265565b366102655760405162461bcd60e51b8152600401808060200182810382526021815260200180612af66021913960400191505060405180910390fd5b600080fd5b34801561027657600080fd5b5061029d6004803603602081101561028d57600080fd5b50356001600160a01b0316610aaf565b60408051918252519081900360200190f35b3480156102bb57600080fd5b506102c4610cc8565b6040805160208082528351818301528351919283929083019185019080838360005b838110156102fe5781810151838201526020016102e6565b50505050905090810190601f16801561032b5780820380516001836020036101000a031916815260200191505b509250505060405180910390f35b34801561034557600080fd5b506103726004803603604081101561035c57600080fd5b506001600160a01b038135169060200135610d5f565b604080519115158252519081900360200190f35b34801561039257600080fd5b5061029d610d7d565b3480156103a757600080fd5b5061029d610d83565b3480156103bc57600080fd5b5061051f60048036036101408110156103d457600080fd5b8101906020810181356401000000008111156103ef57600080fd5b82018360208201111561040157600080fd5b8035906020019184600183028401116401000000008311171561042357600080fd5b91908080601f016020809104026020016040519081016040528093929190818152602001838380828437600092019190915250929594936020810193503591505064010000000081111561047657600080fd5b82018360208201111561048857600080fd5b803590602001918460018302840111640100000000831117156104aa57600080fd5b91908080601f0160208091040260200160405190810160405280939291908181526020018383808284376000920191909152509295505082359350505060208101359060408101359060608101359060808101359060a0810135906001600160a01b0360c082013581169160e0013516610d89565b005b34801561052d57600080fd5b5061029d6004803603602081101561054457600080fd5b50356001600160a01b0316610e9d565b34801561056057600080fd5b506103726004803603606081101561057757600080fd5b506001600160a01b03813581169160208101359091169060400135610eaf565b3480156105a357600080fd5b506105ca600480360360208110156105ba57600080fd5b50356001600160a01b0316610ef6565b60408051938452602084019290925282820152519081900360600190f35b3480156105f457600080fd5b506105fd610f3b565b6040805160ff9092168252519081900360200190f35b34801561061f57600080fd5b506103726004803603604081101561063657600080fd5b506001600160a01b038135169060200135610f44565b34801561065857600080fd5b5061051f6004803603602081101561066f57600080fd5b50356001600160a01b0316610f9d565b34801561068b57600080fd5b5061051f600480360360208110156106a257600080fd5b503561103e565b3480156106b557600080fd5b5061029d611052565b3480156106ca57600080fd5b5061029d600480360360208110156106e157600080fd5b50356001600160a01b0316611056565b3480156106fd57600080fd5b50610706611068565b604080516001600160a01b039092168252519081900360200190f35b34801561072e57600080fd5b5061029d611077565b34801561074357600080fd5b5061029d6004803603602081101561075a57600080fd5b50356001600160a01b031661107d565b34801561077657600080fd5b5061051f6004803603604081101561078d57600080fd5b506001600160a01b038135169060200135611098565b3480156107af57600080fd5b5061029d6110f8565b3480156107c457600080fd5b5061029d6110fe565b3480156107d957600080fd5b5061029d611104565b3480156107ee57600080fd5b506102c461110a565b34801561080357600080fd5b5061051f6004803603604081101561081a57600080fd5b506001600160a01b03813516906020013561116b565b34801561083c57600080fd5b5061029d611179565b34801561085157600080fd5b506103726004803603604081101561086857600080fd5b506001600160a01b03813516906020013561117f565b34801561088a57600080fd5b5061029d600480360360208110156108a157600080fd5b50356001600160a01b03166111ed565b3480156108bd57600080fd5b50610372600480360360408110156108d457600080fd5b506001600160a01b0381351690602001356111ff565b3480156108f657600080fd5b5061029d6115b8565b34801561090b57600080fd5b5061051f6004803603602081101561092257600080fd5b50356001600160a01b03166115be565b34801561093e57600080fd5b5061029d6004803603604081101561095557600080fd5b506001600160a01b03813581169160200135166116a1565b34801561097957600080fd5b5061051f6004803603604081101561099057600080fd5b5060ff813516906020013515156116cc565b3480156109ae57600080fd5b5061051f600480360360208110156109c557600080fd5b503515156117cc565b3480156109da57600080fd5b50610372600480360360208110156109f157600080fd5b50356001600160a01b0316611894565b348015610a0d57600080fd5b5061051f60048036036020811015610a2457600080fd5b50356001600160a01b03166118a9565b348015610a4057600080fd5b50610706611a39565b348015610a5557600080fd5b5061029d60048036036020811015610a6c57600080fd5b50356001600160a01b0316611a48565b348015610a8857600080fd5b5061051f60048036036020811015610a9f57600080fd5b50356001600160a01b0316611e08565b6001600160a01b038116600090815260d26020526040812054819073__Calculations__________________________9063d6f8458290610aef8661107d565b4360d46000896001600160a01b03166001600160a01b03168152602001908152602001600020546040518563ffffffff1660e01b81526004018085815260200184815260200183815260200182815260200194505050505060206040518083038186803b158015610b5f57600080fd5b505af4158015610b73573d6000803e3d6000fd5b505050506040513d6020811015610b8957600080fd5b505190506000610ba882610b9c8661107d565b9063ffffffff611f8816565b6001600160a01b038516600090815260d36020526040902054909150610bd1579150610cc39050565b6001600160a01b038416600090815260d5602052604081205460ff1615610cad576001600160a01b038516600090815260d360209081526040918290205460cb5460cd5460cc548551637ee6b8cf60e01b81524360048201526024810194909452604484019290925260648301526084820152915173__Calculations__________________________92637ee6b8cf9260a4808301939192829003018186803b158015610c7e57600080fd5b505af4158015610c92573d6000803e3d6000fd5b505050506040513d6020811015610ca857600080fd5b505190505b610cbd828263ffffffff611fd116565b93505050505b919050565b60688054604080516020601f6002600019610100600188161502019095169490940493840181900481028201810190925282815260609390929091830182828015610d545780601f10610d2957610100808354040283529160200191610d54565b820191906000526020600020905b815481529060010190602001808311610d3757829003601f168201915b505050505090505b90565b6000610d73610d6c61202b565b848461202f565b5060015b92915050565b60ce5490565b60675490565b600054610100900460ff1680610da25750610da261211b565b80610db0575060005460ff16155b610deb5760405162461bcd60e51b815260040180806020018281038252602e815260200180612be9602e913960400191505060405180910390fd5b600054610100900460ff16158015610e16576000805460ff1961ff0019909116610100171660011790555b610e1f826115be565b610e298b8b612121565b826001600160a01b038116610e3b5750335b60cb8a905560cd89905560cc88905560cf87905560d086905560ce85905560d180546001600160a01b0319166001600160a01b0392909216919091179055600060d6558015610e90576000805461ff00191690555b5050505050505050505050565b60d36020526000908152604090205481565b6040805162461bcd60e51b81526020600482015260156024820152741d1c985b9cd9995c919c9bdb48191a5cd8589b1959605a1b6044820152905160009181900360640190fd5b6001600160a01b038116600090815260d260205260408120549080610f1a8461107d565b6001600160a01b03909416600090815260d460205260409020549294915050565b606a5460ff1690565b6000610d73610f5161202b565b84610f988560666000610f6261202b565b6001600160a01b03908116825260208083019390935260409182016000908120918c16815292529020549063ffffffff611fd116565b61202f565b60c9546001600160a01b03163314610fea576040805162461bcd60e51b81526020600482018190526024820152600080516020612b88833981519152604482015290519081900360640190fd5b60c980546001600160a01b0383166001600160a01b0319909116811790915560408051918252517fc0c3fe6333763f87ec50ad1366067ab6f03fd677c62f3c20e50e9446afd32ef69181900360200190a150565b61104f61104961202b565b826121d6565b50565b4390565b60d46020526000908152604090205481565b60d1546001600160a01b031690565b60cc5490565b6001600160a01b031660009081526065602052604090205490565b60006110d582604051806060016040528060248152602001612c17602491396110c8866110c361202b565b6116a1565b919063ffffffff6122de16565b90506110e9836110e361202b565b8361202f565b6110f383836121d6565b505050565b60cb5490565b60d05490565b60d65481565b60698054604080516020601f6002600019610100600188161502019095169490940493840181900481028201810190925282815260609390929091830182828015610d545780601f10610d2957610100808354040283529160200191610d54565b61117582826121d6565b5050565b60cf5490565b6000610d7361118c61202b565b84610f9885604051806060016040528060258152602001612d2760259139606660006111b661202b565b6001600160a01b03908116825260208083019390935260409182016000908120918d1681529252902054919063ffffffff6122de16565b60d26020526000908152604090205481565b6000806000600080516020612bc983398151915261121c3361107d565b604080516020810192909252808252601c828201527f53656e6465722062616c616e6365206265666f726520757064617465000000006060830152519081900360800190a1600061126c33611a48565b9050600080516020612bc98339815191526112863361107d565b604080516020810192909252808252601b828201527f53656e6465722062616c616e63652061667465722075706461746500000000006060830152519081900360800190a1600080516020612bc98339815191526112e38761107d565b604080516020810192909252808252601f828201527f526563697069656e742062616c616e6365206265666f726520757064617465006060830152519081900360800190a1600061133387611a48565b9050600080516020612bc983398151915261134d8861107d565b604080516020810192909252808252601e828201527f526563697069656e742062616c616e63652061667465722075706461746500006060830152519081900360800190a18561139c3361107d565b10156113d95760405162461bcd60e51b8152600401808060200182810382526023815260200180612c816023913960400191505060405180910390fd5b60d05460cf546113ea918891612375565b9094509250600061140584610b9c898863ffffffff611f8816565b905073__Calculations__________________________6320147c6f8261142b8b61107d565b4360cb6000015460d460008f6001600160a01b03166001600160a01b03168152602001908152602001600020546040518663ffffffff1660e01b8152600401808681526020018581526020018481526020018381526020018281526020019550505050505060206040518083038186803b1580156114a857600080fd5b505af41580156114bc573d6000803e3d6000fd5b505050506040513d60208110156114d257600080fd5b50516001600160a01b038916600090815260d4602090815260408083209390935560d290522054431461151b576001600160a01b038816600090815260d2602052604090204390555b33600090815260d2602052604090205443146115445733600090815260d2602052604090204390555b61154e88826125a9565b506040805182815260208101879052808201869052606081018590526080810184905290516001600160a01b038a169133917fa3c1c81272d3f33b878008270aebb295c7ed4cdf3012646ea120616d132086219181900360a00190a3506001979650505050505050565b60cd5490565b600054610100900460ff16806115d757506115d761211b565b806115e5575060005460ff16155b6116205760405162461bcd60e51b815260040180806020018281038252602e815260200180612be9602e913960400191505060405180910390fd5b600054610100900460ff1615801561164b576000805460ff1961ff0019909116610100171660011790555b6001600160a01b0382166116705760c980546001600160a01b0319163317905561168c565b60c980546001600160a01b0319166001600160a01b0384161790555b8015611175576000805461ff00191690555050565b6001600160a01b03918216600090815260666020908152604080832093909416825291909152205490565b60c9546001600160a01b03163314611719576040805162461bcd60e51b81526020600482018190526024820152600080516020612b88833981519152604482015290519081900360640190fd5b60018115151461175a5760405162461bcd60e51b815260040180806020018281038252604b815260200180612b17604b913960600191505060405180910390fd5b600160ca8360ff166020811061176c57fe5b602091828204019190066101000a81548160ff0219169083151502179055507f0a1c4fbbe900dd991589095fcecc99c37b45915eb6e6574e7398954e874bbebe82604051808260ff1660ff16815260200191505060405180910390a15050565b60c9546001600160a01b03163314611819576040805162461bcd60e51b81526020600482018190526024820152600080516020612b88833981519152604482015290519081900360640190fd5b806118555760405162461bcd60e51b815260040180806020018281038252605f815260200180612cc8605f913960600191505060405180910390fd5b60c9805460ff60a01b1916600160a01b1790556040517f3f6efc34971655abc7da08a1bf5e861a7e41e21c617aa42f0a9e1643ed4c199d90600090a150565b60d56020526000908152604090205460ff1681565b60c9546001600160a01b031633146118f6576040805162461bcd60e51b81526020600482018190526024820152600080516020612b88833981519152604482015290519081900360640190fd5b6001600160a01b038116600090815260d560205260409020805460ff1916600117905560ce541580159061194057506001600160a01b038116600090815260d26020526040902054155b156119985760d68054600101905560ce5461195c9082906125bd565b60cb5461197090439063ffffffff611fd116565b6001600160a01b038216600090815260d4602090815260408083209390935560d29052204390555b6001600160a01b038116600081815260d36020526040808220439055517f619bf7388c3d01e96351d15ea181010fb3ae477b7d27b1bf9a40d0f9ac526f659190a260ce5460408051918252600060208301819052828201819052606083018190526080830152516001600160a01b0383169130917fa3c1c81272d3f33b878008270aebb295c7ed4cdf3012646ea120616d132086219181900360a00190a350565b60c9546001600160a01b031681565b6001600160a01b038116600090815260d26020526040812054819073__Calculations__________________________9063d6f8458290611a888661107d565b4360d46000896001600160a01b03166001600160a01b03168152602001908152602001600020546040518563ffffffff1660e01b81526004018085815260200184815260200183815260200182815260200194505050505060206040518083038186803b158015611af857600080fd5b505af4158015611b0c573d6000803e3d6000fd5b505050506040513d6020811015611b2257600080fd5b5051905060008115611b4857611b3884836121d6565b611b418461107d565b9050611b54565b611b518461107d565b90505b6001600160a01b038416600090815260d5602052604081205460ff1615611dd0576001600160a01b038516600090815260d360209081526040918290205460cb5460cd5460cc548551637ee6b8cf60e01b81524360048201526024810194909452604484019290925260648301526084820152915173__Calculations__________________________92637ee6b8cf9260a4808301939192829003018186803b158015611c0157600080fd5b505af4158015611c15573d6000803e3d6000fd5b505050506040513d6020811015611c2b57600080fd5b505190508015611dd057611c3f85826125bd565b60cc546001600160a01b038616600090815260d3602090815260409182902054825163542a9c8360e01b81524360048201526024810191909152604481018490529151611cf5939273__Calculations__________________________9263542a9c8392606480840193829003018186803b158015611cbd57600080fd5b505af4158015611cd1573d6000803e3d6000fd5b505050506040513d6020811015611ce757600080fd5b50519063ffffffff6126bb16565b6001600160a01b038616600090815260d360209081526040808320805490940190935560cb5460d48252918390205483516320147c6f60e01b8152600481018690526024810187905243604482015260648101939093526084830152915173__Calculations__________________________926320147c6f9260a48082019391829003018186803b158015611d8a57600080fd5b505af4158015611d9e573d6000803e3d6000fd5b505050506040513d6020811015611db457600080fd5b50516001600160a01b038616600090815260d460205260409020555b6000831180611ddf5750600081115b15611e00576001600160a01b038516600090815260d2602052604090204390555b949350505050565b60c9546001600160a01b03163314611e55576040805162461bcd60e51b81526020600482018190526024820152600080516020612b88833981519152604482015290519081900360640190fd5b60c954600690600160a01b900460ff1615611eb7576040805162461bcd60e51b815260206004820181905260248201527f46756e6374696f6e206675736520686173206265656e20747269676765726564604482015290519081900360640190fd5b60ca8160ff1660208110611ec757fe5b602081049091015460ff601f9092166101000a90041615611f2f576040805162461bcd60e51b815260206004820181905260248201527f46756e6374696f6e206675736520686173206265656e20747269676765726564604482015290519081900360640190fd5b6001600160a01b038216600081815260d56020908152604091829020805460ff19169055815192835290517ffc15dd3f26943a069c0abb77db936db2118c5826d2c99ce8d90290a5073559bd9281900390910190a15050565b6000611fca83836040518060400160405280601e81526020017f536166654d6174683a207375627472616374696f6e206f766572666c6f7700008152506122de565b9392505050565b600082820183811015611fca576040805162461bcd60e51b815260206004820152601b60248201527f536166654d6174683a206164646974696f6e206f766572666c6f770000000000604482015290519081900360640190fd5b3390565b6001600160a01b0383166120745760405162461bcd60e51b8152600401808060200182810382526024815260200180612ca46024913960400191505060405180910390fd5b6001600160a01b0382166120b95760405162461bcd60e51b8152600401808060200182810382526022815260200180612ad46022913960400191505060405180910390fd5b6001600160a01b03808416600081815260666020908152604080832094871680845294825291829020859055815185815291517f8c5be1e5ebec7d5bd14f71427d1e84f3dd0314c0f7b2291e5b200ac8c7c3b9259281900390910190a3505050565b303b1590565b600054610100900460ff168061213a575061213a61211b565b80612148575060005460ff16155b6121835760405162461bcd60e51b815260040180806020018281038252602e815260200180612be9602e913960400191505060405180910390fd5b600054610100900460ff161580156121ae576000805460ff1961ff0019909116610100171660011790555b6121b6612714565b6121c083836127b5565b80156110f3576000805461ff0019169055505050565b6001600160a01b03821661221b5760405162461bcd60e51b8152600401808060200182810382526021815260200180612c3b6021913960400191505060405180910390fd5b612227826000836110f3565b61226a81604051806060016040528060228152602001612ab2602291396001600160a01b038516600090815260656020526040902054919063ffffffff6122de16565b6001600160a01b038316600090815260656020526040902055606754612296908263ffffffff611f8816565b6067556040805182815290516000916001600160a01b038516917fddf252ad1be2c89b69c2b068fc378daa952ba7f163c4a11628f55a4df523b3ef9181900360200190a35050565b6000818484111561236d5760405162461bcd60e51b81526004018080602001828103825283818151815260200191508051906020019080838360005b8381101561233257818101518382015260200161231a565b50505050905090810190601f16801561235f5780820380516001836020036101000a031916815260200191505b509250505060405180910390fd5b505050900390565b600080600073__Calculations__________________________6390e58b9c87876040518363ffffffff1660e01b8152600401808381526020018281526020019250505060206040518083038186803b1580156123d157600080fd5b505af41580156123e5573d6000803e3d6000fd5b505050506040513d60208110156123fb57600080fd5b50516040805163096d59dd60e01b8152600481018990526024810188905260448101879052905191925060009173__Calculations__________________________9163096d59dd916064808301926020929190829003018186803b15801561246357600080fd5b505af4158015612477573d6000803e3d6000fd5b505050506040513d602081101561248d57600080fd5b50516040805163f1b4e94160e01b8152600481018a90526024810189905260448101889052905191925060009173__Calculations__________________________9163f1b4e941916064808301926020929190829003018186803b1580156124f557600080fd5b505af4158015612509573d6000803e3d6000fd5b505050506040513d602081101561251f57600080fd5b50519050612533828263ffffffff611fd116565b83146125705760405162461bcd60e51b815260040180806020018281038252603a815260200180612d4c603a913960400191505060405180910390fd5b801561257f5761257f8161103e565b811561259d5760d15461259b906001600160a01b0316836125a9565b505b97909650945050505050565b6000610d736125b661202b565b848461288d565b6001600160a01b038216612618576040805162461bcd60e51b815260206004820152601f60248201527f45524332303a206d696e7420746f20746865207a65726f206164647265737300604482015290519081900360640190fd5b612624600083836110f3565b606754612637908263ffffffff611fd116565b6067556001600160a01b038216600090815260656020526040902054612663908263ffffffff611fd116565b6001600160a01b03831660008181526065602090815260408083209490945583518581529351929391927fddf252ad1be2c89b69c2b068fc378daa952ba7f163c4a11628f55a4df523b3ef9281900390910190a35050565b6000826126ca57506000610d77565b828202828482816126d757fe5b0414611fca5760405162461bcd60e51b8152600401808060200182810382526021815260200180612ba86021913960400191505060405180910390fd5b600054610100900460ff168061272d575061272d61211b565b8061273b575060005460ff16155b6127765760405162461bcd60e51b815260040180806020018281038252602e815260200180612be9602e913960400191505060405180910390fd5b600054610100900460ff161580156127a1576000805460ff1961ff0019909116610100171660011790555b801561104f576000805461ff001916905550565b600054610100900460ff16806127ce57506127ce61211b565b806127dc575060005460ff16155b6128175760405162461bcd60e51b815260040180806020018281038252602e815260200180612be9602e913960400191505060405180910390fd5b600054610100900460ff16158015612842576000805460ff1961ff0019909116610100171660011790555b82516128559060689060208601906129f6565b5081516128699060699060208501906129f6565b50606a805460ff1916601217905580156110f3576000805461ff0019169055505050565b6001600160a01b0383166128d25760405162461bcd60e51b8152600401808060200182810382526025815260200180612c5c6025913960400191505060405180910390fd5b6001600160a01b0382166129175760405162461bcd60e51b8152600401808060200182810382526023815260200180612a8f6023913960400191505060405180910390fd5b6129228383836110f3565b61296581604051806060016040528060268152602001612b62602691396001600160a01b038616600090815260656020526040902054919063ffffffff6122de16565b6001600160a01b03808516600090815260656020526040808220939093559084168152205461299a908263ffffffff611fd116565b6001600160a01b0380841660008181526065602090815260409182902094909455805185815290519193928716927fddf252ad1be2c89b69c2b068fc378daa952ba7f163c4a11628f55a4df523b3ef92918290030190a3505050565b828054600181600116156101000203166002900490600052602060002090601f016020900481019282601f10612a3757805160ff1916838001178555612a64565b82800160010185558215612a64579182015b82811115612a64578251825591602001919060010190612a49565b50612a70929150612a74565b5090565b610d5c91905b80821115612a705760008155600101612a7a56fe45524332303a207472616e7366657220746f20746865207a65726f206164647265737345524332303a206275726e20616d6f756e7420657863656564732062616c616e636545524332303a20617070726f766520746f20746865207a65726f2061646472657373446f206e6f742073656e64206d6f6e657920746f2074686520636f6e7472616374546869732077696c6c207065726d616e656e746c792064697361626c652066756e6374696f6e2c20706c6561736520736574205f636f6e6669726d3d7472756520746f20636f6e6669726d45524332303a207472616e7366657220616d6f756e7420657863656564732062616c616e6365436f6e74726f6c6c6572206163636f756e742f636f6e7472616374206f6e6c79536166654d6174683a206d756c7469706c69636174696f6e206f766572666c6f77dd970dd9b5bfe707922155b058a407655cb18288b807e2216442bca8ad83d6b5436f6e747261637420696e7374616e63652068617320616c7265616479206265656e20696e697469616c697a656445524332303a206275726e20616d6f756e74206578636565647320616c6c6f77616e636545524332303a206275726e2066726f6d20746865207a65726f206164647265737345524332303a207472616e736665722066726f6d20746865207a65726f20616464726573734e6f7420656e6f7567682062616c616e636520746f206d616b65207472616e7366657245524332303a20617070726f76652066726f6d20746865207a65726f2061646472657373546869732077696c6c207065726d616e656e746c792064697361626c652066756e6374696f6e20616c6c2066757365642066756e6374696f6e732c20706c6561736520736574205f636f6e6669726d3d7472756520746f20636f6e6669726d45524332303a2064656372656173656420616c6c6f77616e63652062656c6f77207a65726f66656573496e63436f6e747269627574696f6e2073686f756c6420657175616c20636f6e747269627574696f6e202b2066656573546f4275726ea26469706673582212201c84d21cfffa706e8f5feff9b94d31c960c4b7c868916578be1643c08a3a9a2164736f6c63430006060033",
  "compiler": {
    "name": "solc",
    "version": "0.6.6+commit.6c089d02.Emscripten.clang",
    "optimizer": {
      "enabled": true,
      "runs": 200
    },
    "evmVersion": "petersburg"
  }
}