{
  "fileName": "VICoinAdjustable.sol",
  "contractName": "VICoinAdjustable",
  "source": "pragma solidity ^0.6.6;\n\n/**\n    @title An open source smart contract for a UBI token with demurrage that\n        gives control of the currency to the community, with adjustable\n        parameters.\n    @author The Value Instrument Team\n    @notice \n*/\n\nimport \"./VICoin.sol\";\n\ncontract VICoinAdjustable is VICoin {\n  event UpdateLifetime(uint256 lifetime);\n  event UpdateInitialBalance(uint256 initialBalance);\n  event UpdateGenerationAmount(uint256 generationAmount);\n  event UpdateGenerationPeriod(uint256 generationPeriod);\n  event UpdateCommunityContributionAccount(\n    address newCommunityContributionAccount\n  );\n  event UpdateTransactionFee(uint256 transactionFee);\n  event UpdateCommunityContribution(uint256 communityContribution);\n\n  /// @notice Set the address that the contribution will be sent to\n  function updateCommunityContributionAccount(\n    address _newCommunityContributionAccount\n  ) external onlyController fused(0) {\n    settings.communityContributionAccount = _newCommunityContributionAccount;\n    emit UpdateCommunityContributionAccount(_newCommunityContributionAccount);\n  }\n\n  /// @notice Set the contribution percentage, to be taken from the fee %\n  function updateCommunityContribution(uint256 _communityContribution)\n    external\n    onlyController\n    fused(1)\n  {\n    settings.communityContribution = _communityContribution;\n    emit UpdateCommunityContribution(_communityContribution);\n  }\n\n  /// @notice Set the fee %, to be taken from every transaction\n  function updateTransactionFee(uint256 _transactionFee)\n    external\n    onlyController\n    fused(2)\n  {\n    settings.transactionFee = _transactionFee;\n    emit UpdateTransactionFee(_transactionFee);\n  }\n\n  /// @notice Update the settings.lifetime for this currency.\n  /// (The number of blocks after which a balance decays to zero)\n  function updateLifetime(uint256 _lifetime) external onlyController fused(5) {\n    settings.lifetime = _lifetime;\n    emit UpdateLifetime(_lifetime);\n  }\n\n  /// @notice Update the balance issued to an account on creation\n  function updateInitialBalance(uint256 _initialBalance)\n    external\n    onlyController\n    fused(8)\n  {\n    settings.initialBalance = _initialBalance;\n    emit UpdateInitialBalance(_initialBalance);\n  }\n\n  /// @notice Update the number of blocks between each generation period\n  function updateGenerationPeriod(uint256 _generationPeriod)\n    external\n    onlyController\n    fused(4)\n  {\n    require(\n      numAccounts == 0,\n      \"Generation period cannot be changed once contract is in active use\"\n    );\n    settings.generationPeriod = _generationPeriod;\n    emit UpdateGenerationPeriod(_generationPeriod);\n  }\n\n  /** @notice Update the number of tokens issued to each account after each\n            generation period */\n  function updateGenerationAmount(uint256 _generationAmount)\n    external\n    onlyController\n    fused(3)\n  {\n    settings.generationAmount = _generationAmount;\n    emit UpdateGenerationAmount(_generationAmount);\n  }\n}\n",
  "sourcePath": "contracts/VICoinAdjustable.sol",
  "abi": [
    {
      "anonymous": false,
      "inputs": [
        {
          "indexed": true,
          "internalType": "address",
          "name": "owner",
          "type": "address"
        },
        {
          "indexed": true,
          "internalType": "address",
          "name": "spender",
          "type": "address"
        },
        {
          "indexed": false,
          "internalType": "uint256",
          "name": "value",
          "type": "uint256"
        }
      ],
      "name": "Approval",
      "type": "event"
    },
    {
      "anonymous": false,
      "inputs": [],
      "name": "BlowAllFuses",
      "type": "event"
    },
    {
      "anonymous": false,
      "inputs": [
        {
          "indexed": false,
          "internalType": "uint8",
          "name": "_fuseID",
          "type": "uint8"
        }
      ],
      "name": "BlowFuse",
      "type": "event"
    },
    {
      "anonymous": false,
      "inputs": [
        {
          "indexed": false,
          "internalType": "address",
          "name": "_newController",
          "type": "address"
        }
      ],
      "name": "ChangeController",
      "type": "event"
    },
    {
      "anonymous": false,
      "inputs": [
        {
          "indexed": false,
          "internalType": "string",
          "name": "name",
          "type": "string"
        },
        {
          "indexed": false,
          "internalType": "uint256",
          "name": "value",
          "type": "uint256"
        }
      ],
      "name": "Log",
      "type": "event"
    },
    {
      "anonymous": false,
      "inputs": [
        {
          "indexed": true,
          "internalType": "address",
          "name": "from",
          "type": "address"
        },
        {
          "indexed": true,
          "internalType": "address",
          "name": "to",
          "type": "address"
        },
        {
          "indexed": false,
          "internalType": "uint256",
          "name": "value",
          "type": "uint256"
        }
      ],
      "name": "Transfer",
      "type": "event"
    },
    {
      "anonymous": false,
      "inputs": [
        {
          "indexed": true,
          "internalType": "address",
          "name": "from",
          "type": "address"
        },
        {
          "indexed": true,
          "internalType": "address",
          "name": "to",
          "type": "address"
        },
        {
          "indexed": false,
          "internalType": "uint256",
          "name": "value",
          "type": "uint256"
        },
        {
          "indexed": false,
          "internalType": "uint256",
          "name": "feesBurned",
          "type": "uint256"
        },
        {
          "indexed": false,
          "internalType": "uint256",
          "name": "contribution",
          "type": "uint256"
        },
        {
          "indexed": false,
          "internalType": "uint256",
          "name": "payoutSender",
          "type": "uint256"
        },
        {
          "indexed": false,
          "internalType": "uint256",
          "name": "payoutRecipient",
          "type": "uint256"
        }
      ],
      "name": "TransferSummary",
      "type": "event"
    },
    {
      "anonymous": false,
      "inputs": [
        {
          "indexed": false,
          "internalType": "address",
          "name": "account",
          "type": "address"
        }
      ],
      "name": "UnapproveAccount",
      "type": "event"
    },
    {
      "anonymous": false,
      "inputs": [
        {
          "indexed": false,
          "internalType": "uint256",
          "name": "communityContribution",
          "type": "uint256"
        }
      ],
      "name": "UpdateCommunityContribution",
      "type": "event"
    },
    {
      "anonymous": false,
      "inputs": [
        {
          "indexed": false,
          "internalType": "address",
          "name": "newCommunityContributionAccount",
          "type": "address"
        }
      ],
      "name": "UpdateCommunityContributionAccount",
      "type": "event"
    },
    {
      "anonymous": false,
      "inputs": [
        {
          "indexed": false,
          "internalType": "uint256",
          "name": "generationAmount",
          "type": "uint256"
        }
      ],
      "name": "UpdateGenerationAmount",
      "type": "event"
    },
    {
      "anonymous": false,
      "inputs": [
        {
          "indexed": false,
          "internalType": "uint256",
          "name": "generationPeriod",
          "type": "uint256"
        }
      ],
      "name": "UpdateGenerationPeriod",
      "type": "event"
    },
    {
      "anonymous": false,
      "inputs": [
        {
          "indexed": false,
          "internalType": "uint256",
          "name": "initialBalance",
          "type": "uint256"
        }
      ],
      "name": "UpdateInitialBalance",
      "type": "event"
    },
    {
      "anonymous": false,
      "inputs": [
        {
          "indexed": false,
          "internalType": "uint256",
          "name": "lifetime",
          "type": "uint256"
        }
      ],
      "name": "UpdateLifetime",
      "type": "event"
    },
    {
      "anonymous": false,
      "inputs": [
        {
          "indexed": false,
          "internalType": "uint256",
          "name": "transactionFee",
          "type": "uint256"
        }
      ],
      "name": "UpdateTransactionFee",
      "type": "event"
    },
    {
      "anonymous": false,
      "inputs": [
        {
          "indexed": true,
          "internalType": "address",
          "name": "account",
          "type": "address"
        }
      ],
      "name": "VerifyAccount",
      "type": "event"
    },
    {
      "inputs": [
        {
          "internalType": "address",
          "name": "",
          "type": "address"
        }
      ],
      "name": "accountApproved",
      "outputs": [
        {
          "internalType": "bool",
          "name": "",
          "type": "bool"
        }
      ],
      "stateMutability": "view",
      "type": "function"
    },
    {
      "inputs": [
        {
          "internalType": "address",
          "name": "owner",
          "type": "address"
        },
        {
          "internalType": "address",
          "name": "spender",
          "type": "address"
        }
      ],
      "name": "allowance",
      "outputs": [
        {
          "internalType": "uint256",
          "name": "",
          "type": "uint256"
        }
      ],
      "stateMutability": "view",
      "type": "function"
    },
    {
      "inputs": [
        {
          "internalType": "address",
          "name": "spender",
          "type": "address"
        },
        {
          "internalType": "uint256",
          "name": "amount",
          "type": "uint256"
        }
      ],
      "name": "approve",
      "outputs": [
        {
          "internalType": "bool",
          "name": "",
          "type": "bool"
        }
      ],
      "stateMutability": "nonpayable",
      "type": "function"
    },
    {
      "inputs": [
        {
          "internalType": "address",
          "name": "account",
          "type": "address"
        }
      ],
      "name": "balanceOf",
      "outputs": [
        {
          "internalType": "uint256",
          "name": "",
          "type": "uint256"
        }
      ],
      "stateMutability": "view",
      "type": "function"
    },
    {
      "inputs": [
        {
          "internalType": "bool",
          "name": "_confirm",
          "type": "bool"
        }
      ],
      "name": "blowAllFuses",
      "outputs": [],
      "stateMutability": "nonpayable",
      "type": "function"
    },
    {
      "inputs": [
        {
          "internalType": "uint8",
          "name": "_fuseID",
          "type": "uint8"
        },
        {
          "internalType": "bool",
          "name": "_confirm",
          "type": "bool"
        }
      ],
      "name": "blowFuse",
      "outputs": [],
      "stateMutability": "nonpayable",
      "type": "function"
    },
    {
      "inputs": [
        {
          "internalType": "uint256",
          "name": "amount",
          "type": "uint256"
        }
      ],
      "name": "burn",
      "outputs": [],
      "stateMutability": "nonpayable",
      "type": "function"
    },
    {
      "inputs": [
        {
          "internalType": "address",
          "name": "account",
          "type": "address"
        },
        {
          "internalType": "uint256",
          "name": "amount",
          "type": "uint256"
        }
      ],
      "name": "burnAt",
      "outputs": [],
      "stateMutability": "nonpayable",
      "type": "function"
    },
    {
      "inputs": [
        {
          "internalType": "address",
          "name": "account",
          "type": "address"
        },
        {
          "internalType": "uint256",
          "name": "amount",
          "type": "uint256"
        }
      ],
      "name": "burnFrom",
      "outputs": [],
      "stateMutability": "nonpayable",
      "type": "function"
    },
    {
      "inputs": [
        {
          "internalType": "address",
          "name": "_newController",
          "type": "address"
        }
      ],
      "name": "changeController",
      "outputs": [],
      "stateMutability": "nonpayable",
      "type": "function"
    },
    {
      "inputs": [],
      "name": "controller",
      "outputs": [
        {
          "internalType": "address",
          "name": "",
          "type": "address"
        }
      ],
      "stateMutability": "view",
      "type": "function"
    },
    {
      "inputs": [],
      "name": "decimals",
      "outputs": [
        {
          "internalType": "uint8",
          "name": "",
          "type": "uint8"
        }
      ],
      "stateMutability": "view",
      "type": "function"
    },
    {
      "inputs": [
        {
          "internalType": "address",
          "name": "spender",
          "type": "address"
        },
        {
          "internalType": "uint256",
          "name": "subtractedValue",
          "type": "uint256"
        }
      ],
      "name": "decreaseAllowance",
      "outputs": [
        {
          "internalType": "bool",
          "name": "",
          "type": "bool"
        }
      ],
      "stateMutability": "nonpayable",
      "type": "function"
    },
    {
      "inputs": [],
      "name": "getBlockNumber",
      "outputs": [
        {
          "internalType": "uint256",
          "name": "",
          "type": "uint256"
        }
      ],
      "stateMutability": "view",
      "type": "function"
    },
    {
      "inputs": [],
      "name": "getCommunityContribution",
      "outputs": [
        {
          "internalType": "uint256",
          "name": "",
          "type": "uint256"
        }
      ],
      "stateMutability": "view",
      "type": "function"
    },
    {
      "inputs": [],
      "name": "getCommunityContributionAccount",
      "outputs": [
        {
          "internalType": "address",
          "name": "",
          "type": "address"
        }
      ],
      "stateMutability": "view",
      "type": "function"
    },
    {
      "inputs": [
        {
          "internalType": "address",
          "name": "_account",
          "type": "address"
        }
      ],
      "name": "getDetails",
      "outputs": [
        {
          "internalType": "uint256",
          "name": "_lastBlock",
          "type": "uint256"
        },
        {
          "internalType": "uint256",
          "name": "_balance",
          "type": "uint256"
        },
        {
          "internalType": "uint256",
          "name": "_zeroBlock",
          "type": "uint256"
        }
      ],
      "stateMutability": "view",
      "type": "function"
    },
    {
      "inputs": [],
      "name": "getGenerationAmount",
      "outputs": [
        {
          "internalType": "uint256",
          "name": "",
          "type": "uint256"
        }
      ],
      "stateMutability": "view",
      "type": "function"
    },
    {
      "inputs": [],
      "name": "getGenerationPeriod",
      "outputs": [
        {
          "internalType": "uint256",
          "name": "",
          "type": "uint256"
        }
      ],
      "stateMutability": "view",
      "type": "function"
    },
    {
      "inputs": [],
      "name": "getInitialBalance",
      "outputs": [
        {
          "internalType": "uint256",
          "name": "",
          "type": "uint256"
        }
      ],
      "stateMutability": "view",
      "type": "function"
    },
    {
      "inputs": [],
      "name": "getLifetime",
      "outputs": [
        {
          "internalType": "uint256",
          "name": "",
          "type": "uint256"
        }
      ],
      "stateMutability": "view",
      "type": "function"
    },
    {
      "inputs": [],
      "name": "getTransactionFee",
      "outputs": [
        {
          "internalType": "uint256",
          "name": "",
          "type": "uint256"
        }
      ],
      "stateMutability": "view",
      "type": "function"
    },
    {
      "inputs": [
        {
          "internalType": "address",
          "name": "spender",
          "type": "address"
        },
        {
          "internalType": "uint256",
          "name": "addedValue",
          "type": "uint256"
        }
      ],
      "name": "increaseAllowance",
      "outputs": [
        {
          "internalType": "bool",
          "name": "",
          "type": "bool"
        }
      ],
      "stateMutability": "nonpayable",
      "type": "function"
    },
    {
      "inputs": [
        {
          "internalType": "string",
          "name": "_name",
          "type": "string"
        },
        {
          "internalType": "string",
          "name": "_symbol",
          "type": "string"
        },
        {
          "internalType": "uint256",
          "name": "_lifetime",
          "type": "uint256"
        },
        {
          "internalType": "uint256",
          "name": "_generationAmount",
          "type": "uint256"
        },
        {
          "internalType": "uint256",
          "name": "_generationPeriod",
          "type": "uint256"
        },
        {
          "internalType": "uint256",
          "name": "_communityContribution",
          "type": "uint256"
        },
        {
          "internalType": "uint256",
          "name": "_transactionFee",
          "type": "uint256"
        },
        {
          "internalType": "uint256",
          "name": "_initialBalance",
          "type": "uint256"
        },
        {
          "internalType": "address",
          "name": "_communityContributionAccount",
          "type": "address"
        },
        {
          "internalType": "address",
          "name": "_controller",
          "type": "address"
        }
      ],
      "name": "initialize",
      "outputs": [],
      "stateMutability": "nonpayable",
      "type": "function"
    },
    {
      "inputs": [
        {
          "internalType": "address",
          "name": "_controller",
          "type": "address"
        }
      ],
      "name": "initialize",
      "outputs": [],
      "stateMutability": "nonpayable",
      "type": "function"
    },
    {
      "inputs": [
        {
          "internalType": "address",
          "name": "",
          "type": "address"
        }
      ],
      "name": "lastGenerationBlock",
      "outputs": [
        {
          "internalType": "uint256",
          "name": "",
          "type": "uint256"
        }
      ],
      "stateMutability": "view",
      "type": "function"
    },
    {
      "inputs": [
        {
          "internalType": "address",
          "name": "",
          "type": "address"
        }
      ],
      "name": "lastTransactionBlock",
      "outputs": [
        {
          "internalType": "uint256",
          "name": "",
          "type": "uint256"
        }
      ],
      "stateMutability": "view",
      "type": "function"
    },
    {
      "inputs": [
        {
          "internalType": "address",
          "name": "_account",
          "type": "address"
        }
      ],
      "name": "liveBalanceOf",
      "outputs": [
        {
          "internalType": "uint256",
          "name": "",
          "type": "uint256"
        }
      ],
      "stateMutability": "view",
      "type": "function"
    },
    {
      "inputs": [],
      "name": "name",
      "outputs": [
        {
          "internalType": "string",
          "name": "",
          "type": "string"
        }
      ],
      "stateMutability": "view",
      "type": "function"
    },
    {
      "inputs": [],
      "name": "numAccounts",
      "outputs": [
        {
          "internalType": "uint256",
          "name": "",
          "type": "uint256"
        }
      ],
      "stateMutability": "view",
      "type": "function"
    },
    {
      "inputs": [],
      "name": "symbol",
      "outputs": [
        {
          "internalType": "string",
          "name": "",
          "type": "string"
        }
      ],
      "stateMutability": "view",
      "type": "function"
    },
    {
      "inputs": [],
      "name": "totalSupply",
      "outputs": [
        {
          "internalType": "uint256",
          "name": "",
          "type": "uint256"
        }
      ],
      "stateMutability": "view",
      "type": "function"
    },
    {
      "inputs": [
        {
          "internalType": "address",
          "name": "_to",
          "type": "address"
        },
        {
          "internalType": "uint256",
          "name": "_value",
          "type": "uint256"
        }
      ],
      "name": "transfer",
      "outputs": [
        {
          "internalType": "bool",
          "name": "",
          "type": "bool"
        }
      ],
      "stateMutability": "nonpayable",
      "type": "function"
    },
    {
      "inputs": [
        {
          "internalType": "address",
          "name": "",
          "type": "address"
        },
        {
          "internalType": "address",
          "name": "",
          "type": "address"
        },
        {
          "internalType": "uint256",
          "name": "",
          "type": "uint256"
        }
      ],
      "name": "transferFrom",
      "outputs": [
        {
          "internalType": "bool",
          "name": "",
          "type": "bool"
        }
      ],
      "stateMutability": "nonpayable",
      "type": "function"
    },
    {
      "inputs": [
        {
          "internalType": "address",
          "name": "_account",
          "type": "address"
        }
      ],
      "name": "triggerOnchainBalanceUpdate",
      "outputs": [
        {
          "internalType": "uint256",
          "name": "",
          "type": "uint256"
        }
      ],
      "stateMutability": "nonpayable",
      "type": "function"
    },
    {
      "inputs": [
        {
          "internalType": "address",
          "name": "_account",
          "type": "address"
        }
      ],
      "name": "unapproveAccount",
      "outputs": [],
      "stateMutability": "nonpayable",
      "type": "function"
    },
    {
      "inputs": [
        {
          "internalType": "uint256",
          "name": "_communityContribution",
          "type": "uint256"
        }
      ],
      "name": "updateCommunityContribution",
      "outputs": [],
      "stateMutability": "nonpayable",
      "type": "function"
    },
    {
      "inputs": [
        {
          "internalType": "address",
          "name": "_newCommunityContributionAccount",
          "type": "address"
        }
      ],
      "name": "updateCommunityContributionAccount",
      "outputs": [],
      "stateMutability": "nonpayable",
      "type": "function"
    },
    {
      "inputs": [
        {
          "internalType": "uint256",
          "name": "_generationAmount",
          "type": "uint256"
        }
      ],
      "name": "updateGenerationAmount",
      "outputs": [],
      "stateMutability": "nonpayable",
      "type": "function"
    },
    {
      "inputs": [
        {
          "internalType": "uint256",
          "name": "_generationPeriod",
          "type": "uint256"
        }
      ],
      "name": "updateGenerationPeriod",
      "outputs": [],
      "stateMutability": "nonpayable",
      "type": "function"
    },
    {
      "inputs": [
        {
          "internalType": "uint256",
          "name": "_initialBalance",
          "type": "uint256"
        }
      ],
      "name": "updateInitialBalance",
      "outputs": [],
      "stateMutability": "nonpayable",
      "type": "function"
    },
    {
      "inputs": [
        {
          "internalType": "uint256",
          "name": "_lifetime",
          "type": "uint256"
        }
      ],
      "name": "updateLifetime",
      "outputs": [],
      "stateMutability": "nonpayable",
      "type": "function"
    },
    {
      "inputs": [
        {
          "internalType": "uint256",
          "name": "_transactionFee",
          "type": "uint256"
        }
      ],
      "name": "updateTransactionFee",
      "outputs": [],
      "stateMutability": "nonpayable",
      "type": "function"
    },
    {
      "inputs": [
        {
          "internalType": "address",
          "name": "_account",
          "type": "address"
        }
      ],
      "name": "verifyAccount",
      "outputs": [],
      "stateMutability": "nonpayable",
      "type": "function"
    },
    {
      "inputs": [
        {
          "internalType": "address",
          "name": "",
          "type": "address"
        }
      ],
      "name": "zeroBlock",
      "outputs": [
        {
          "internalType": "uint256",
          "name": "",
          "type": "uint256"
        }
      ],
      "stateMutability": "view",
      "type": "function"
    },
    {
      "stateMutability": "payable",
      "type": "receive"
    }
  ],
  "bytecode": "0x608060405234801561001057600080fd5b50613886806100206000396000f3fe6080604052600436106102765760003560e01c806381e6e0831161014f578063b9a84a0d116100c1578063ed451dff1161007a578063ed451dff14610b20578063ed52f18214610b4a578063f16dfbe914610b7d578063f77c479114610bb0578063f9128ed514610bc5578063fbda28dc14610bf8576102b2565b8063b9a84a0d146109f4578063c4d66de814610a1e578063dd62ed3e14610a51578063e3321e1f14610a8c578063e49ac4cd14610ac1578063e60e0de614610aed576102b2565b80639803f216116101135780639803f216146108ec5780639a40e4a114610925578063a457c2d71461093a578063a707603814610973578063a9059cbb146109a6578063a990ecd4146109df576102b2565b806381e6e0831461086e57806385d79102146108835780638ce25a93146108985780638f2553e6146108ad57806395d89b41146108d7576102b2565b806339509351116101e857806354ffa8ef116101ac57806354ffa8ef146107685780635784969f146107925780636f22c0b5146107bc5780636fb17cc5146107ed57806370a082311461080257806379cc679014610835576102b2565b8063395093511461068a5780633cebb823146106c357806342966c68146106f657806342cbb15c14610720578063544aeaf614610735576102b2565b806318160ddd1161023a57806318160ddd14610414578063194462da146104295780631d718f041461059857806323b872dd146105cb57806330289c611461060e578063313ce5671461065f576102b2565b806302a69e48146102b757806306fdde03146102fc578063095ea7b3146103865780630db146e6146103d35780630ee97696146103e8576102b2565b366102b25760405162461bcd60e51b815260040180806020018281038252602181526020018061355f6021913960400191505060405180910390fd5b600080fd5b3480156102c357600080fd5b506102ea600480360360208110156102da57600080fd5b50356001600160a01b0316610c2b565b60408051918252519081900360200190f35b34801561030857600080fd5b50610311610e44565b6040805160208082528351818301528351919283929083019185019080838360005b8381101561034b578181015183820152602001610333565b50505050905090810190601f1680156103785780820380516001836020036101000a031916815260200191505b509250505060405180910390f35b34801561039257600080fd5b506103bf600480360360408110156103a957600080fd5b506001600160a01b038135169060200135610edb565b604080519115158252519081900360200190f35b3480156103df57600080fd5b506102ea610ef9565b3480156103f457600080fd5b506104126004803603602081101561040b57600080fd5b5035610eff565b005b34801561042057600080fd5b506102ea61103e565b34801561043557600080fd5b50610412600480360361014081101561044d57600080fd5b81019060208101813564010000000081111561046857600080fd5b82018360208201111561047a57600080fd5b8035906020019184600183028401116401000000008311171561049c57600080fd5b91908080601f01602080910402602001604051908101604052809392919081815260200183838082843760009201919091525092959493602081019350359150506401000000008111156104ef57600080fd5b82018360208201111561050157600080fd5b8035906020019184600183028401116401000000008311171561052357600080fd5b91908080601f0160208091040260200160405190810160405280939291908181526020018383808284376000920191909152509295505082359350505060208101359060408101359060608101359060808101359060a0810135906001600160a01b0360c082013581169160e0013516611044565b3480156105a457600080fd5b506102ea600480360360208110156105bb57600080fd5b50356001600160a01b0316611158565b3480156105d757600080fd5b506103bf600480360360608110156105ee57600080fd5b506001600160a01b0381358116916020810135909116906040013561116a565b34801561061a57600080fd5b506106416004803603602081101561063157600080fd5b50356001600160a01b03166111b1565b60408051938452602084019290925282820152519081900360600190f35b34801561066b57600080fd5b506106746111f6565b6040805160ff9092168252519081900360200190f35b34801561069657600080fd5b506103bf600480360360408110156106ad57600080fd5b506001600160a01b0381351690602001356111ff565b3480156106cf57600080fd5b50610412600480360360208110156106e657600080fd5b50356001600160a01b0316611258565b34801561070257600080fd5b506104126004803603602081101561071957600080fd5b50356112f9565b34801561072c57600080fd5b506102ea61130d565b34801561074157600080fd5b506102ea6004803603602081101561075857600080fd5b50356001600160a01b0316611311565b34801561077457600080fd5b506104126004803603602081101561078b57600080fd5b5035611323565b34801561079e57600080fd5b50610412600480360360208110156107b557600080fd5b5035611462565b3480156107c857600080fd5b506107d16115a1565b604080516001600160a01b039092168252519081900360200190f35b3480156107f957600080fd5b506102ea6115b0565b34801561080e57600080fd5b506102ea6004803603602081101561082557600080fd5b50356001600160a01b03166115b6565b34801561084157600080fd5b506104126004803603604081101561085857600080fd5b506001600160a01b0381351690602001356115d1565b34801561087a57600080fd5b506102ea611631565b34801561088f57600080fd5b506102ea611637565b3480156108a457600080fd5b506102ea61163d565b3480156108b957600080fd5b50610412600480360360208110156108d057600080fd5b5035611643565b3480156108e357600080fd5b506103116117c1565b3480156108f857600080fd5b506104126004803603604081101561090f57600080fd5b506001600160a01b038135169060200135611822565b34801561093157600080fd5b506102ea611830565b34801561094657600080fd5b506103bf6004803603604081101561095d57600080fd5b506001600160a01b038135169060200135611836565b34801561097f57600080fd5b506102ea6004803603602081101561099657600080fd5b50356001600160a01b03166118a4565b3480156109b257600080fd5b506103bf600480360360408110156109c957600080fd5b506001600160a01b0381351690602001356118b6565b3480156109eb57600080fd5b506102ea611c6f565b348015610a0057600080fd5b5061041260048036036020811015610a1757600080fd5b5035611c75565b348015610a2a57600080fd5b5061041260048036036020811015610a4157600080fd5b50356001600160a01b0316611db4565b348015610a5d57600080fd5b506102ea60048036036040811015610a7457600080fd5b506001600160a01b0381358116916020013516611e97565b348015610a9857600080fd5b5061041260048036036040811015610aaf57600080fd5b5060ff81351690602001351515611ec2565b348015610acd57600080fd5b5061041260048036036020811015610ae457600080fd5b50351515611fc2565b348015610af957600080fd5b5061041260048036036020811015610b1057600080fd5b50356001600160a01b031661208a565b348015610b2c57600080fd5b5061041260048036036020811015610b4357600080fd5b50356121e2565b348015610b5657600080fd5b506103bf60048036036020811015610b6d57600080fd5b50356001600160a01b0316612321565b348015610b8957600080fd5b5061041260048036036020811015610ba057600080fd5b50356001600160a01b0316612336565b348015610bbc57600080fd5b506107d16124c6565b348015610bd157600080fd5b506102ea60048036036020811015610be857600080fd5b50356001600160a01b03166124d5565b348015610c0457600080fd5b5061041260048036036020811015610c1b57600080fd5b50356001600160a01b0316612895565b6001600160a01b038116600090815260d26020526040812054819073__Calculations__________________________9063d6f8458290610c6b866115b6565b4360d46000896001600160a01b03166001600160a01b03168152602001908152602001600020546040518563ffffffff1660e01b81526004018085815260200184815260200183815260200182815260200194505050505060206040518083038186803b158015610cdb57600080fd5b505af4158015610cef573d6000803e3d6000fd5b505050506040513d6020811015610d0557600080fd5b505190506000610d2482610d18866115b6565b9063ffffffff6129f116565b6001600160a01b038516600090815260d36020526040902054909150610d4d579150610e3f9050565b6001600160a01b038416600090815260d5602052604081205460ff1615610e29576001600160a01b038516600090815260d360209081526040918290205460cb5460cd5460cc548551637ee6b8cf60e01b81524360048201526024810194909452604484019290925260648301526084820152915173__Calculations__________________________92637ee6b8cf9260a4808301939192829003018186803b158015610dfa57600080fd5b505af4158015610e0e573d6000803e3d6000fd5b505050506040513d6020811015610e2457600080fd5b505190505b610e39828263ffffffff612a3a16565b93505050505b919050565b60688054604080516020601f6002600019610100600188161502019095169490940493840181900481028201810190925282815260609390929091830182828015610ed05780601f10610ea557610100808354040283529160200191610ed0565b820191906000526020600020905b815481529060010190602001808311610eb357829003601f168201915b505050505090505b90565b6000610eef610ee8612a94565b8484612a98565b5060015b92915050565b60ce5490565b60c9546001600160a01b03163314610f4c576040805162461bcd60e51b815260206004820181905260248201526000805160206135f1833981519152604482015290519081900360640190fd5b60c954600290600160a01b900460ff1615610f9c576040805162461bcd60e51b81526020600482018190526024820152600080516020613611833981519152604482015290519081900360640190fd5b60ca8160ff1660208110610fac57fe5b602081049091015460ff601f9092166101000a90041615611002576040805162461bcd60e51b81526020600482018190526024820152600080516020613611833981519152604482015290519081900360640190fd5b60d08290556040805183815290517fb0eafbd7bf0dfd994828ccc4941e26d6153f03fa274641773364c469893ecb4d9181900360200190a15050565b60675490565b600054610100900460ff168061105d575061105d612b84565b8061106b575060005460ff16155b6110a65760405162461bcd60e51b815260040180806020018281038252602e815260200180613672602e913960400191505060405180910390fd5b600054610100900460ff161580156110d1576000805460ff1961ff0019909116610100171660011790555b6110da82611db4565b6110e48b8b612b8a565b826001600160a01b0381166110f65750335b60cb8a905560cd89905560cc88905560cf87905560d086905560ce85905560d180546001600160a01b0319166001600160a01b0392909216919091179055600060d655801561114b576000805461ff00191690555b5050505050505050505050565b60d36020526000908152604090205481565b6040805162461bcd60e51b81526020600482015260156024820152741d1c985b9cd9995c919c9bdb48191a5cd8589b1959605a1b6044820152905160009181900360640190fd5b6001600160a01b038116600090815260d2602052604081205490806111d5846115b6565b6001600160a01b03909416600090815260d460205260409020549294915050565b606a5460ff1690565b6000610eef61120c612a94565b84611253856066600061121d612a94565b6001600160a01b03908116825260208083019390935260409182016000908120918c16815292529020549063ffffffff612a3a16565b612a98565b60c9546001600160a01b031633146112a5576040805162461bcd60e51b815260206004820181905260248201526000805160206135f1833981519152604482015290519081900360640190fd5b60c980546001600160a01b0383166001600160a01b0319909116811790915560408051918252517fc0c3fe6333763f87ec50ad1366067ab6f03fd677c62f3c20e50e9446afd32ef69181900360200190a150565b61130a611304612a94565b82612c3f565b50565b4390565b60d46020526000908152604090205481565b60c9546001600160a01b03163314611370576040805162461bcd60e51b815260206004820181905260248201526000805160206135f1833981519152604482015290519081900360640190fd5b60c954600190600160a01b900460ff16156113c0576040805162461bcd60e51b81526020600482018190526024820152600080516020613611833981519152604482015290519081900360640190fd5b60ca8160ff16602081106113d057fe5b602081049091015460ff601f9092166101000a90041615611426576040805162461bcd60e51b81526020600482018190526024820152600080516020613611833981519152604482015290519081900360640190fd5b60cf8290556040805183815290517ffbcfe400d40f66821e607b6730b04c270d0db7c3896db24e37c8faf589b2dce29181900360200190a15050565b60c9546001600160a01b031633146114af576040805162461bcd60e51b815260206004820181905260248201526000805160206135f1833981519152604482015290519081900360640190fd5b60c954600590600160a01b900460ff16156114ff576040805162461bcd60e51b81526020600482018190526024820152600080516020613611833981519152604482015290519081900360640190fd5b60ca8160ff166020811061150f57fe5b602081049091015460ff601f9092166101000a90041615611565576040805162461bcd60e51b81526020600482018190526024820152600080516020613611833981519152604482015290519081900360640190fd5b60cb8290556040805183815290517f8fb16ec2895927adc6e3a99733210699b27690fdccf3ccf84d2be61df915f9239181900360200190a15050565b60d1546001600160a01b031690565b60cc5490565b6001600160a01b031660009081526065602052604090205490565b600061160e826040518060600160405280602481526020016136a060249139611601866115fc612a94565b611e97565b919063ffffffff612d4716565b90506116228361161c612a94565b83612a98565b61162c8383612c3f565b505050565b60cb5490565b60d05490565b60d65481565b60c9546001600160a01b03163314611690576040805162461bcd60e51b815260206004820181905260248201526000805160206135f1833981519152604482015290519081900360640190fd5b60c954600490600160a01b900460ff16156116e0576040805162461bcd60e51b81526020600482018190526024820152600080516020613611833981519152604482015290519081900360640190fd5b60ca8160ff16602081106116f057fe5b602081049091015460ff601f9092166101000a90041615611746576040805162461bcd60e51b81526020600482018190526024820152600080516020613611833981519152604482015290519081900360640190fd5b60d654156117855760405162461bcd60e51b81526004018080602001828103825260428152602001806136e56042913960600191505060405180910390fd5b60cc8290556040805183815290517fa33ad833914e8c9f3e7ce6b82802aa3e930cf6dfde2d8a6149a42f6e78fb27129181900360200190a15050565b60698054604080516020601f6002600019610100600188161502019095169490940493840181900481028201810190925282815260609390929091830182828015610ed05780601f10610ea557610100808354040283529160200191610ed0565b61182c8282612c3f565b5050565b60cf5490565b6000610eef611843612a94565b84611253856040518060600160405280602581526020016137f2602591396066600061186d612a94565b6001600160a01b03908116825260208083019390935260409182016000908120918d1681529252902054919063ffffffff612d4716565b60d26020526000908152604090205481565b60008060006000805160206136528339815191526118d3336115b6565b604080516020810192909252808252601c828201527f53656e6465722062616c616e6365206265666f726520757064617465000000006060830152519081900360800190a16000611923336124d5565b905060008051602061365283398151915261193d336115b6565b604080516020810192909252808252601b828201527f53656e6465722062616c616e63652061667465722075706461746500000000006060830152519081900360800190a160008051602061365283398151915261199a876115b6565b604080516020810192909252808252601f828201527f526563697069656e742062616c616e6365206265666f726520757064617465006060830152519081900360800190a160006119ea876124d5565b9050600080516020613652833981519152611a04886115b6565b604080516020810192909252808252601e828201527f526563697069656e742062616c616e63652061667465722075706461746500006060830152519081900360800190a185611a53336115b6565b1015611a905760405162461bcd60e51b815260040180806020018281038252602381526020018061374c6023913960400191505060405180910390fd5b60d05460cf54611aa1918891612dde565b90945092506000611abc84610d18898863ffffffff6129f116565b905073__Calculations__________________________6320147c6f82611ae28b6115b6565b4360cb6000015460d460008f6001600160a01b03166001600160a01b03168152602001908152602001600020546040518663ffffffff1660e01b8152600401808681526020018581526020018481526020018381526020018281526020019550505050505060206040518083038186803b158015611b5f57600080fd5b505af4158015611b73573d6000803e3d6000fd5b505050506040513d6020811015611b8957600080fd5b50516001600160a01b038916600090815260d4602090815260408083209390935560d2905220544314611bd2576001600160a01b038816600090815260d2602052604090204390555b33600090815260d260205260409020544314611bfb5733600090815260d2602052604090204390555b611c058882613012565b506040805182815260208101879052808201869052606081018590526080810184905290516001600160a01b038a169133917fa3c1c81272d3f33b878008270aebb295c7ed4cdf3012646ea120616d132086219181900360a00190a3506001979650505050505050565b60cd5490565b60c9546001600160a01b03163314611cc2576040805162461bcd60e51b815260206004820181905260248201526000805160206135f1833981519152604482015290519081900360640190fd5b60c954600390600160a01b900460ff1615611d12576040805162461bcd60e51b81526020600482018190526024820152600080516020613611833981519152604482015290519081900360640190fd5b60ca8160ff1660208110611d2257fe5b602081049091015460ff601f9092166101000a90041615611d78576040805162461bcd60e51b81526020600482018190526024820152600080516020613611833981519152604482015290519081900360640190fd5b60cd8290556040805183815290517f430ef2291775088707f0aed2cc1058fee3b7f2f99b10dfa4107d1509b86da3f59181900360200190a15050565b600054610100900460ff1680611dcd5750611dcd612b84565b80611ddb575060005460ff16155b611e165760405162461bcd60e51b815260040180806020018281038252602e815260200180613672602e913960400191505060405180910390fd5b600054610100900460ff16158015611e41576000805460ff1961ff0019909116610100171660011790555b6001600160a01b038216611e665760c980546001600160a01b03191633179055611e82565b60c980546001600160a01b0319166001600160a01b0384161790555b801561182c576000805461ff00191690555050565b6001600160a01b03918216600090815260666020908152604080832093909416825291909152205490565b60c9546001600160a01b03163314611f0f576040805162461bcd60e51b815260206004820181905260248201526000805160206135f1833981519152604482015290519081900360640190fd5b600181151514611f505760405162461bcd60e51b815260040180806020018281038252604b815260200180613580604b913960600191505060405180910390fd5b600160ca8360ff1660208110611f6257fe5b602091828204019190066101000a81548160ff0219169083151502179055507f0a1c4fbbe900dd991589095fcecc99c37b45915eb6e6574e7398954e874bbebe82604051808260ff1660ff16815260200191505060405180910390a15050565b60c9546001600160a01b0316331461200f576040805162461bcd60e51b815260206004820181905260248201526000805160206135f1833981519152604482015290519081900360640190fd5b8061204b5760405162461bcd60e51b815260040180806020018281038252605f815260200180613793605f913960600191505060405180910390fd5b60c9805460ff60a01b1916600160a01b1790556040517f3f6efc34971655abc7da08a1bf5e861a7e41e21c617aa42f0a9e1643ed4c199d90600090a150565b60c9546001600160a01b031633146120d7576040805162461bcd60e51b815260206004820181905260248201526000805160206135f1833981519152604482015290519081900360640190fd5b60c954600090600160a01b900460ff1615612127576040805162461bcd60e51b81526020600482018190526024820152600080516020613611833981519152604482015290519081900360640190fd5b60ca8160ff166020811061213757fe5b602081049091015460ff601f9092166101000a9004161561218d576040805162461bcd60e51b81526020600482018190526024820152600080516020613611833981519152604482015290519081900360640190fd5b60d180546001600160a01b0384166001600160a01b0319909116811790915560408051918252517f41ac1fb38d2383f4a7a06cb5a6cc6e099612e9f8835233773dfd98ef487f0bb09181900360200190a15050565b60c9546001600160a01b0316331461222f576040805162461bcd60e51b815260206004820181905260248201526000805160206135f1833981519152604482015290519081900360640190fd5b60c954600890600160a01b900460ff161561227f576040805162461bcd60e51b81526020600482018190526024820152600080516020613611833981519152604482015290519081900360640190fd5b60ca8160ff166020811061228f57fe5b602081049091015460ff601f9092166101000a900416156122e5576040805162461bcd60e51b81526020600482018190526024820152600080516020613611833981519152604482015290519081900360640190fd5b60ce8290556040805183815290517ffe907f1e713307f4d281f5c3f23673f83fb7c0ae005ff34aec76633abc90ab8c9181900360200190a15050565b60d56020526000908152604090205460ff1681565b60c9546001600160a01b03163314612383576040805162461bcd60e51b815260206004820181905260248201526000805160206135f1833981519152604482015290519081900360640190fd5b6001600160a01b038116600090815260d560205260409020805460ff1916600117905560ce54158015906123cd57506001600160a01b038116600090815260d26020526040902054155b156124255760d68054600101905560ce546123e9908290613026565b60cb546123fd90439063ffffffff612a3a16565b6001600160a01b038216600090815260d4602090815260408083209390935560d29052204390555b6001600160a01b038116600081815260d36020526040808220439055517f619bf7388c3d01e96351d15ea181010fb3ae477b7d27b1bf9a40d0f9ac526f659190a260ce5460408051918252600060208301819052828201819052606083018190526080830152516001600160a01b0383169130917fa3c1c81272d3f33b878008270aebb295c7ed4cdf3012646ea120616d132086219181900360a00190a350565b60c9546001600160a01b031681565b6001600160a01b038116600090815260d26020526040812054819073__Calculations__________________________9063d6f8458290612515866115b6565b4360d46000896001600160a01b03166001600160a01b03168152602001908152602001600020546040518563ffffffff1660e01b81526004018085815260200184815260200183815260200182815260200194505050505060206040518083038186803b15801561258557600080fd5b505af4158015612599573d6000803e3d6000fd5b505050506040513d60208110156125af57600080fd5b50519050600081156125d5576125c58483612c3f565b6125ce846115b6565b90506125e1565b6125de846115b6565b90505b6001600160a01b038416600090815260d5602052604081205460ff161561285d576001600160a01b038516600090815260d360209081526040918290205460cb5460cd5460cc548551637ee6b8cf60e01b81524360048201526024810194909452604484019290925260648301526084820152915173__Calculations__________________________92637ee6b8cf9260a4808301939192829003018186803b15801561268e57600080fd5b505af41580156126a2573d6000803e3d6000fd5b505050506040513d60208110156126b857600080fd5b50519050801561285d576126cc8582613026565b60cc546001600160a01b038616600090815260d3602090815260409182902054825163542a9c8360e01b81524360048201526024810191909152604481018490529151612782939273__Calculations__________________________9263542a9c8392606480840193829003018186803b15801561274a57600080fd5b505af415801561275e573d6000803e3d6000fd5b505050506040513d602081101561277457600080fd5b50519063ffffffff61312416565b6001600160a01b038616600090815260d360209081526040808320805490940190935560cb5460d48252918390205483516320147c6f60e01b8152600481018690526024810187905243604482015260648101939093526084830152915173__Calculations__________________________926320147c6f9260a48082019391829003018186803b15801561281757600080fd5b505af415801561282b573d6000803e3d6000fd5b505050506040513d602081101561284157600080fd5b50516001600160a01b038616600090815260d460205260409020555b600083118061286c5750600081115b1561288d576001600160a01b038516600090815260d2602052604090204390555b949350505050565b60c9546001600160a01b031633146128e2576040805162461bcd60e51b815260206004820181905260248201526000805160206135f1833981519152604482015290519081900360640190fd5b60c954600690600160a01b900460ff1615612932576040805162461bcd60e51b81526020600482018190526024820152600080516020613611833981519152604482015290519081900360640190fd5b60ca8160ff166020811061294257fe5b602081049091015460ff601f9092166101000a90041615612998576040805162461bcd60e51b81526020600482018190526024820152600080516020613611833981519152604482015290519081900360640190fd5b6001600160a01b038216600081815260d56020908152604091829020805460ff19169055815192835290517ffc15dd3f26943a069c0abb77db936db2118c5826d2c99ce8d90290a5073559bd9281900390910190a15050565b6000612a3383836040518060400160405280601e81526020017f536166654d6174683a207375627472616374696f6e206f766572666c6f770000815250612d47565b9392505050565b600082820183811015612a33576040805162461bcd60e51b815260206004820152601b60248201527f536166654d6174683a206164646974696f6e206f766572666c6f770000000000604482015290519081900360640190fd5b3390565b6001600160a01b038316612add5760405162461bcd60e51b815260040180806020018281038252602481526020018061376f6024913960400191505060405180910390fd5b6001600160a01b038216612b225760405162461bcd60e51b815260040180806020018281038252602281526020018061353d6022913960400191505060405180910390fd5b6001600160a01b03808416600081815260666020908152604080832094871680845294825291829020859055815185815291517f8c5be1e5ebec7d5bd14f71427d1e84f3dd0314c0f7b2291e5b200ac8c7c3b9259281900390910190a3505050565b303b1590565b600054610100900460ff1680612ba35750612ba3612b84565b80612bb1575060005460ff16155b612bec5760405162461bcd60e51b815260040180806020018281038252602e815260200180613672602e913960400191505060405180910390fd5b600054610100900460ff16158015612c17576000805460ff1961ff0019909116610100171660011790555b612c1f61317d565b612c29838361321e565b801561162c576000805461ff0019169055505050565b6001600160a01b038216612c845760405162461bcd60e51b81526004018080602001828103825260218152602001806136c46021913960400191505060405180910390fd5b612c908260008361162c565b612cd38160405180606001604052806022815260200161351b602291396001600160a01b038516600090815260656020526040902054919063ffffffff612d4716565b6001600160a01b038316600090815260656020526040902055606754612cff908263ffffffff6129f116565b6067556040805182815290516000916001600160a01b038516917fddf252ad1be2c89b69c2b068fc378daa952ba7f163c4a11628f55a4df523b3ef9181900360200190a35050565b60008184841115612dd65760405162461bcd60e51b81526004018080602001828103825283818151815260200191508051906020019080838360005b83811015612d9b578181015183820152602001612d83565b50505050905090810190601f168015612dc85780820380516001836020036101000a031916815260200191505b509250505060405180910390fd5b505050900390565b600080600073__Calculations__________________________6390e58b9c87876040518363ffffffff1660e01b8152600401808381526020018281526020019250505060206040518083038186803b158015612e3a57600080fd5b505af4158015612e4e573d6000803e3d6000fd5b505050506040513d6020811015612e6457600080fd5b50516040805163096d59dd60e01b8152600481018990526024810188905260448101879052905191925060009173__Calculations__________________________9163096d59dd916064808301926020929190829003018186803b158015612ecc57600080fd5b505af4158015612ee0573d6000803e3d6000fd5b505050506040513d6020811015612ef657600080fd5b50516040805163f1b4e94160e01b8152600481018a90526024810189905260448101889052905191925060009173__Calculations__________________________9163f1b4e941916064808301926020929190829003018186803b158015612f5e57600080fd5b505af4158015612f72573d6000803e3d6000fd5b505050506040513d6020811015612f8857600080fd5b50519050612f9c828263ffffffff612a3a16565b8314612fd95760405162461bcd60e51b815260040180806020018281038252603a815260200180613817603a913960400191505060405180910390fd5b8015612fe857612fe8816112f9565b81156130065760d154613004906001600160a01b031683613012565b505b97909650945050505050565b6000610eef61301f612a94565b84846132f6565b6001600160a01b038216613081576040805162461bcd60e51b815260206004820152601f60248201527f45524332303a206d696e7420746f20746865207a65726f206164647265737300604482015290519081900360640190fd5b61308d6000838361162c565b6067546130a0908263ffffffff612a3a16565b6067556001600160a01b0382166000908152606560205260409020546130cc908263ffffffff612a3a16565b6001600160a01b03831660008181526065602090815260408083209490945583518581529351929391927fddf252ad1be2c89b69c2b068fc378daa952ba7f163c4a11628f55a4df523b3ef9281900390910190a35050565b60008261313357506000610ef3565b8282028284828161314057fe5b0414612a335760405162461bcd60e51b81526004018080602001828103825260218152602001806136316021913960400191505060405180910390fd5b600054610100900460ff16806131965750613196612b84565b806131a4575060005460ff16155b6131df5760405162461bcd60e51b815260040180806020018281038252602e815260200180613672602e913960400191505060405180910390fd5b600054610100900460ff1615801561320a576000805460ff1961ff0019909116610100171660011790555b801561130a576000805461ff001916905550565b600054610100900460ff16806132375750613237612b84565b80613245575060005460ff16155b6132805760405162461bcd60e51b815260040180806020018281038252602e815260200180613672602e913960400191505060405180910390fd5b600054610100900460ff161580156132ab576000805460ff1961ff0019909116610100171660011790555b82516132be90606890602086019061345f565b5081516132d290606990602085019061345f565b50606a805460ff19166012179055801561162c576000805461ff0019169055505050565b6001600160a01b03831661333b5760405162461bcd60e51b81526004018080602001828103825260258152602001806137276025913960400191505060405180910390fd5b6001600160a01b0382166133805760405162461bcd60e51b81526004018080602001828103825260238152602001806134f86023913960400191505060405180910390fd5b61338b83838361162c565b6133ce816040518060600160405280602681526020016135cb602691396001600160a01b038616600090815260656020526040902054919063ffffffff612d4716565b6001600160a01b038085166000908152606560205260408082209390935590841681522054613403908263ffffffff612a3a16565b6001600160a01b0380841660008181526065602090815260409182902094909455805185815290519193928716927fddf252ad1be2c89b69c2b068fc378daa952ba7f163c4a11628f55a4df523b3ef92918290030190a3505050565b828054600181600116156101000203166002900490600052602060002090601f016020900481019282601f106134a057805160ff19168380011785556134cd565b828001600101855582156134cd579182015b828111156134cd5782518255916020019190600101906134b2565b506134d99291506134dd565b5090565b610ed891905b808211156134d957600081556001016134e356fe45524332303a207472616e7366657220746f20746865207a65726f206164647265737345524332303a206275726e20616d6f756e7420657863656564732062616c616e636545524332303a20617070726f766520746f20746865207a65726f2061646472657373446f206e6f742073656e64206d6f6e657920746f2074686520636f6e7472616374546869732077696c6c207065726d616e656e746c792064697361626c652066756e6374696f6e2c20706c6561736520736574205f636f6e6669726d3d7472756520746f20636f6e6669726d45524332303a207472616e7366657220616d6f756e7420657863656564732062616c616e6365436f6e74726f6c6c6572206163636f756e742f636f6e7472616374206f6e6c7946756e6374696f6e206675736520686173206265656e20747269676765726564536166654d6174683a206d756c7469706c69636174696f6e206f766572666c6f77dd970dd9b5bfe707922155b058a407655cb18288b807e2216442bca8ad83d6b5436f6e747261637420696e7374616e63652068617320616c7265616479206265656e20696e697469616c697a656445524332303a206275726e20616d6f756e74206578636565647320616c6c6f77616e636545524332303a206275726e2066726f6d20746865207a65726f206164647265737347656e65726174696f6e20706572696f642063616e6e6f74206265206368616e676564206f6e636520636f6e747261637420697320696e206163746976652075736545524332303a207472616e736665722066726f6d20746865207a65726f20616464726573734e6f7420656e6f7567682062616c616e636520746f206d616b65207472616e7366657245524332303a20617070726f76652066726f6d20746865207a65726f2061646472657373546869732077696c6c207065726d616e656e746c792064697361626c652066756e6374696f6e20616c6c2066757365642066756e6374696f6e732c20706c6561736520736574205f636f6e6669726d3d7472756520746f20636f6e6669726d45524332303a2064656372656173656420616c6c6f77616e63652062656c6f77207a65726f66656573496e63436f6e747269627574696f6e2073686f756c6420657175616c20636f6e747269627574696f6e202b2066656573546f4275726ea2646970667358221220220f2f880d516387975a6aa9b1c53a6d779c552d3dfccd501ef195bb7b4be5bd64736f6c63430006060033",
  "compiler": {
    "name": "solc",
    "version": "0.6.6+commit.6c089d02.Emscripten.clang",
    "optimizer": {
      "enabled": true,
      "runs": 200
    },
    "evmVersion": "petersburg"
  }
}